@ba12 ; Affinity 
@bb02 ; MemBank 
@bc03 ; Command 
:020000020900F3
:1000000087C0FFCFFFC7FFCFFFC7FFCFFFC7FFCF1F
:10001000FFC7FFCFFFC7FFCFFFC7FFCFFFC7FFCF90
:10002000FFC7FFCFFFC7FFCFFFC7FFCFFFC7FFCF80
:10003000FFC7FFCFFFC7FFCFFFC7FFCFFFC7FFCF70
:10004000FFC7FFCFFFC7FFCFFFC7FFCFFFC7FFCF60
:10005000FFC7FFCFFFC7FFCFFFC7FFCFFFC7FFCF50
:10006000FFC7FFCFFFC7FFCFFFC7FFCFFFC7FFCF40
:10007000FFC7FFCFFFC7FFCFFFC7FFCFFFC7FFCF30
:10008000FFC7FFCFFFC7FFCFFFC7FFCFFFC7FFCF20
:10009000FFC7FFCFFFC7FFCFFFC7FFCFFFC7FFCF10
:1000A000FFC7FFCFFFC7FFCFFFC7FFCFFFC7FFCF00
:1000B000FFC7FFCFFFC7FFCFFFC7FFCFFFC7FFCFF0
:1000C000FFC7FFCFFFC7FFCFFFC7FFCFFFC7FFCFE0
:1000D000FFC7FFCFFFC7FFCFFFC7FFCFFFC7FFCFD0
:1000E000FFC7FFCFFFC7FFCFFFC7FFCFFFC7FFCFC0
:1000F000FFC7FFCFFFC7FFCFFFC7FFCFFFC7FFCFB0
:1001000001002BC102010000004AFF68CA1CC93A65
:10011000A895F8942224EFE1FAE6EDBFFEBFECE0EB
:10012000D4D4E8EDF3E0E4BFF093600000C000C079
:10013000E0916300E1FDFCCFE8EDF1E0E4BFF09376
:100140006200BBD4E0E0FAE6C0E0DEE02192219755
:10015000E9F764D409F067D473D409F076D4EFB327
:10016000E0930268E0910468E395F999E0930468EC
:10017000E0910368E395FB99E0930368E0910068E0
:10018000F09101683196E0930068F093016841D4E2
:1001900040D4A2D4E8E0E0933304E0933204E09347
:1001A0003404E0933104E0933004E0E6F8E0268282
:1001B000A0E6B0E0A087B187A0E0A583A3E0A78375
:1001C000AAE4A683239822982498219820982B9813
:1001D0002A98E0E0FBE02082218224862586AFEF8A
:1001E000A6837AD4CFD355D4A895E8EDE4BFE8E050
:1001F000E0930001EFD4AA98A29AB5C04AC5EDC514
:1002000041C5F6C50CC549C562C56BC57EC5ABC544
:10021000CDC5C2C0C1C0C0C0BFC0BEC00C9410001C
:100220000C9411000C9412000C9413000C94140004
:100230000C9415000C9416000C9417000C941800E4
:100240000C9419000C941A000C941B000C941C00C4
:100250000C941D000C941E000C941F000C942000A4
:100260000C9421000C9422000C9423000C94240084
:100270000C9425000C9426000C9427000C94280064
:100280000C9429000C942A000C942B000C942C0044
:100290000C942D000C942E000C942F000C94300024
:1002A0000C9431000C9432000C9433000C94340004
:1002B0000C9435000C9436000C9437000C943800E4
:1002C0000C9439000C943A000C943B000C943C00C4
:1002D0000C943D000C943E000C943F000C944000A4
:1002E0000C9441000C9442000C9443000C94440084
:1002F0000C9445000C9446000C944700209200702A
:10030000209219702092327020924B70209264706B
:1003100020927D702092007120921971209232718A
:1003200020924B712092647120927D712092007214
:10033000209219722092327220924B722092647233
:1003400020927D7220920073209219732092327352
:1003500020924B732092647320927D730895EBEF8B
:1003600033943E220895A6D117C0E29AD6D103D283
:1003700085E611D411C0E29AD0D100D28EE70BD419
:100380000BC0E29ACAD1FDD183E205D405C0C5D124
:10039000ECD18EE200D400C0239820926608A3D34B
:1003A000E0D3EFE1FAE6EDBFFEBF92D315D0D7D18F
:1003B000EBD1F1D1FFD1B1D191D101D007C2E09100
:1003C000706CE15040F0E093706C29F4EAE7E09340
:1003D00042080C9400100895E19990DFE79BBFDF7D
:1003E000E299AAD1ECB3E973ECBB00C00FD30AD3F6
:1003F0002DD0CC24E601D50187E165D0F0936F6C58
:1004000087E161D0F0936F6C87E15DD0F0936F6C02
:1004100087E159D0F0936F6C87E155D0F0936F6C02
:100420008FE751D0FD2DE1E0E081E7FD06D0E69BAE
:1004300007D0E4E0E093A7040895E69AE79A0895C8
:10044000E1E0DE26EBEFB394BE2237C0A895209200
:1004500066082092000BE0E0F0E0E0930A0BF093D6
:100460000B0B20920C0B20920D0BEFEFE093060B81
:10047000EAECE093660887E0C1E7DCE63199FECF5D
:10048000E3E0E093000B229AE4E0E093A704E0E0CD
:10049000FFE80090640807FEFCCF00906108109010
:1004A000600802FC62CF1992E125E0818A958AF703
:1004B000E0936F6C209266080895E1E7FCE6C7E4DC
:1004C000D8E687E042C2EAECE09366089D91E6999F
:1004D0009E7F219690FD239AE0E0FFE80D903199F0
:1004E000FECF90FD009262080D9090FD0092620890
:1004F0000090640807FEFCCF00906108109060082F
:1005000002FC33CF1992E125E0818A9589F362F7E5
:10051000F0916F6CFE2B23982092660808950C943E
:10052000AA0C0C94A50C0C94B30CABD0E9E7FCE638
:1005300087E1F7DF93C0A5D0E9E7FCE68DE0F1DFC6
:10054000E7E4F8E683E0EDDF83E0E9DF7BC099D004
:10055000D32DCEE780E8E0E0F9E6E3DF12C091D0EA
:1005600010C08FD0F6018AE0DCDFE6E4F9E683E034
:10057000D8DF8AE0D4DF72C089D083D0E9E7FCE617
:1005800003C084D07ED0F6018FE0CBDFD32DCEE741
:10059000AFE7B0E04FDEF32DEC2D3F96A193B19382
:1005A000C193D1934FC0E60188E1BDDF09F40895FE
:1005B000E2CEE601A2E1B0E03DDEF60173966DC049
:1005C000DD2DCEE7AFE7B0E035DEF6013F9665C042
:1005D000E091276AE211DBCEE601E985F091226A1B
:1005E000EF23FA95F093226AE211D1CE86C0E6019C
:1005F000E985F0916C6CF211EF13C9CE089508955E
:10060000E0916D6CE0FFC3CE0895E0916D6CE0FD6C
:1006100004C08091236A8211BACE0895FFDDA991AA
:10062000B9910D010128AE17BF07021051F4F8DD92
:10063000A991B9910D010128AE17BF07021009F465
:100640000895A5CED32DCC2DA2E1B0E0F3DDF32D9E
:10065000EC2D7396A193B193C193D193D32DCC2D4F
:1006600087E161DFE9930895DF93CF93C82F0E945C
:10067000D20CEF91FF91A193B193C193D193EF016C
:100680000895CC2DCA9504C0C4E602C0CDE700C0D1
:10069000D32D888181608993089501900A126BCED1
:1006A00001900B1268CE01900C1265CE01900D12D4
:1006B00062CE0895E3E0E093216AE0E0F4E76F01A1
:1006C000E0E0F0E75F01F2E73F2E20926D6C2092B0
:1006D000246AE6ECECBBC5D01DD00FC0E7990895A5
:1006E000FD2DE2E0808180FD01D00895E091276A30
:1006F000E211EA95E093276A0895E0914801FFE04E
:10070000F491F093226A2092276A0895EAE0E09338
:10071000276A08952092236A0895F32DE0E020824D
:10072000F32DE9E12082E2E32082EBE42082E4E69B
:100730002082EDE720820895F0E7BF2EF2E73F2EFA
:10074000DDCDE4E1F9E62192E033E9F70895209266
:10075000480120924901E1E0E09343010895E0E877
:10076000F9E6E7C0E4E8F9E6E4C0E8E8F9E6E1C064
:10077000E0E9F9E6DEC0ECE8F9E6DBC0E4E9F9E639
:10078000D8C0E8E9F9E6D5C0E0916F6C20926F6CB3
:10079000E211F1CD0895E7990895DD2DC5E0E881D6
:1007A000F0916E6CF395E0936E6CEF1709F4089579
:1007B000E29AE7CDDD2DC0E0EC85E093216AE79970
:1007C00003C3EB85E77FFBE00C94420D1ED0EBDE0C
:1007D00037C0E091C068F091C168C3E301D015C093
:1007E000DD2DCC2E888199819F3F49F4803051F0D6
:1007F0008F3F51F00090246A801521F005C08E17BC
:100800009F0711F40F900F900895CAE1DD2DCC2EB3
:1008100080E090E0E0E0F9E6099011908029012461
:100820009029E830C9F7803011F09211B0CDE0E0A6
:1008300009F0E1E0E0936D6C0895E601EA8102C001
:10084000E601E885E03120F4F0E0E250F74F09944A
:100850009ECD20926C6C2092686CECB3E260ECBB95
:10086000089501D042C0E0E0F9E60E942209EF01BC
:100870000E940E09E993F9930E941009E993F993F4
:100880000E94BC0CE993F9930E94BF0CE993F99381
:100890000E941209E993F9930E941409E993F993CC
:1008A00082E0E2DE81E0E0DE83E0DEDE84E0DCDECA
:1008B00087E0DADE85E0D8DE86E0D6DEE0E1F1E151
:1008C00080E12FDEE8E1F0E0E993F9932196E0E0A2
:1008D000F1E183E026DE80910268899380910068CF
:1008E0008993809101688993089509D081E0899363
:1008F000E8E0F9E68CE015DE299229920895C9E72F
:10090000DCE6E0E0F9E688E00CCE0C94CB0DF89440
:100910008AD0F8949AD00C945809F8947AD08BD055
:100920000C9458090E944D0DF894A895FFCF0C9493
:100930005A098081918101968083918328F4828174
:1009400093810196828393830895019009928A95F9
:10095000E1F7089529928A95E9F708952082218286
:10096000228223820895E0E0FFE80990E025E081FB
:100970008A95D9F7EE230895E0E0F0E00895E0E0ED
:10098000F0E00895E8E4FCE60E944609C8E2DAE6F1
:100990000E944809E8E2FCE60E944609C8E2DAE65D
:1009A0000C944809E8E4FCE60E944A090C943A09D0
:1009B0001FD005FE0EC001800DC01AD006FE09C072
:1009C00001800AC015D007FE04C0018007C010D006
:1009D00039F00895000C111C000C111C000C111CA6
:1009E00010820FB6F8942182228223820FBE0895CE
:1009F0001180100C11821280121C12820380039449
:100A0000038208952298349BFECF08953499FECF37
:100A10000895C0E0D8E6A4E0B0E01FC0C0E0D8E68A
:100A2000A8E0B0E027C0C0E0D8E680E493DFEFEFB5
:100A3000E09309680895C0E4D8E6A0E0B0E00DC0F6
:100A4000C0E4D8E6A4E0B0E015C0C0E4D8E680E891
:100A500081DFEFEFE093456808950E941A09F001E5
:100A6000A095B095C095D095A083B183C283D38360
:100A7000248208950E941A09F00180830895E2E01B
:100A8000F2E000C0EF23F0950090206A0F22E029E9
:100A900006C0E0E004C0EFEF02C0EBE000C0E0936E
:100AA000206A00C0E091206A0C941809EF23F095A9
:100AB0000090216A0F22E02908C0E0E006C0E5E5C9
:100AC00004C0EFEF02C0EFEF00C0E093216A00C066
:100AD000E091216A0C941609442455240895AA989B
:100AE0000895AA9A0895B39904C0E5E5B19B0C94C2
:100AF000440900C0E0914408E7FF0895E0914008F0
:100B0000E093007608958F93892F0AD08F9108C0C3
:100B10008F93892F05D08F9100C002D08CE23BC00B
:100B200001D003C08F93829501C08F938F70805D39
:100B30008A3308F0895F2FD08F9108958AE02BD0F7
:100B40008DE029C00F01451451F0F0914408F5FFE4
:100B500006C0F7E7E52DF081F09342085394F001C9
:100B60000895451459F0F0914408F5FFFACFF7E7DE
:100B7000E52DF081F09342085394F3CF0895C42DEE
:100B8000D7E70190002029F00882C395C511F9CF5D
:100B9000CA954C2ED8CF0F01F201FA95EF1719F034
:100BA000F7E780834394CFCF8F938E2FF201FA958E
:100BB000EF1719F0F7E7808343948F910895899197
:100BC000ACDF9A95E1F70895899182118813089511
:100BD000E2DFFACFC8EEDBE9F7DF80910268A0DF41
:100BE000C8EFDBE9F1DFBDCF0A0D1B5B34346D2E9E
:100BF0002E2E5B424C442D005D1B5B6D0A0D0000E8
:100C0000C8E0DCE9E1DFADCF0A0D1B5B34336D2EAC
:100C10002E2E5B5550445D1B5B6D0A0D0000F0DC11
:100C2000C8DC74DD82E671DEC0911A69D0911B695F
:100C3000CF3221F5D13C11F542DF93DFE601898502
:100C40008093C268888999898093C3689093C468A7
:100C50008E859F858093C0689093C1680E941B0D0C
:100C6000E6018A8980FF05C0E8EDE4BFE5E8E0938E
:100C7000011082E08093706C74DC8ECBECB3E26088
:100C8000ECBB85CBBDDC95DC41DD81E73EDE5FDC86
:100C900083CB89E63ADE0C94CC09B7DCE6012A96D0
:100CA000BDDC87DC33DD83E730DEE601EE85E093F3
:100CB000686CE985E0936C6C4ADDC7E0E8E4FCE62B
:100CC000E9DAC091686CE8E2FCE6E4DA65CB9DDC29
:100CD000E6012A96A3DC6DDC19DD85E716DEB9DDB9
:100CE0005BCB8EDC66DC12DD82E70FDEF601A285CF
:100CF000B385D32DCEE78585813808F048CB0D909C
:100D000009928A95E1F72BDC47CB71DC7EDC51DC64
:100D100057DCFCDC1CDD87E7F8DDF6018285938576
:100D2000F7DEF6018585F9DE229823982092660881
:100D30002E9807DDA0E8B0E0DD2DCEE7E8E4FCE684
:100D4000ABDAF601C285D385E8E2FCE683DAE60198
:100D5000AD85B0E0C8E4DCE6E8E2FCE6A1DAECB39D
:100D6000E260ECBB19CB43DC50DC23DCCFDC86E655
:100D7000CCDDF60182859385CBDE6BDDE2DC22984B
:100D80002398209266082E98E8E2FCE68FDAF601B6
:100D9000C285D385E8E2FCE65DDAE6018D8582DA7C
:100DA00085DA61DDECB3E260ECBBF6CA28DCE60173
:100DB0002A9634DCFEDBAADC8DE6A7DDF601818510
:100DC0008093236A0C94CC098DE29FDDE8E0F8E083
:100DD0000E94420DC7DC0C94CC0917DCE6012A9670
:100DE0001DDCE7DBF5DB80E790DD7FDDA4DBD4CA2B
:100DF0000CDCE6012A9612DCDCDB88DC82E585DD92
:100E000057CAFFFFFFFFFFFFFFFFFFFFFFFFFFFFCF
:00000001FF
; 
; *** EOF 
