@ba12 ; Affinity 
@bb02 ; MemBank 
@bc03 ; Command 
:020000020900F3
:1000000087C0FFCFFFC7FFCFFFC7FFCFFFC7FFCF1F
:10001000FFC7FFCFFFC7FFCFFFC7FFCFFFC7FFCF90
:10002000FFC7FFCFFFC7FFCFFFC7FFCFFFC7FFCF80
:10003000FFC7FFCFFFC7FFCFFFC7FFCFFFC7FFCF70
:10004000FFC7FFCFFFC7FFCFFFC7FFCFFFC7FFCF60
:10005000FFC7FFCFFFC7FFCFFFC7FFCFFFC7FFCF50
:10006000FFC7FFCFFFC7FFCFFFC7FFCFFFC7FFCF40
:10007000FFC7FFCFFFC7FFCFFFC7FFCFFFC7FFCF30
:10008000FFC7FFCFFFC7FFCFFFC7FFCFFFC7FFCF20
:10009000FFC7FFCFFFC7FFCFFFC7FFCFFFC7FFCF10
:1000A000FFC7FFCFFFC7FFCFFFC7FFCFFFC7FFCF00
:1000B000FFC7FFCFFFC7FFCFFFC7FFCFFFC7FFCFF0
:1000C000FFC7FFCFFFC7FFCFFFC7FFCFFFC7FFCFE0
:1000D000FFC7FFCFFFC7FFCFFFC7FFCFFFC7FFCFD0
:1000E000FFC7FFCFFFC7FFCFFFC7FFCFFFC7FFCFC0
:1000F000FFC7FFCFFFC7FFCFFFC7FFCFFFC7FFCFB0
:1001000001002BC1020100002DAC1E667E1738EBEA
:10011000A895F8942224EFB3E0930A68EFE1FAE699
:10012000EDBFFEBFECE031D4E8EDF3E0E4BFF093C7
:10013000600000C000C0E0916300E1FDFCCFE8ED8D
:10014000F1E0E4BFF09362001AD4E0E0FAE6C0E028
:10015000DEE021922197E9F726D4E8E0E09333042A
:10016000E0933204E0933404E0933104E0933004EC
:10017000E0E6F8E02682A0E6B0E0A087B187A0E044
:10018000A583A3E0A783AAE4A683239822982498B2
:10019000219820982B982A98E0E0FBE02082218289
:1001A00024862586AFEFA683FED38ED3D6D3E8ED83
:1001B000E4BFE5E0E0930001A8956CD4AA98A29A68
:1001C000B1C0DFC481C5D6C48AC59DC4DEC4F7C42E
:1001D00000C513C540C562C5BDC0BCC0BBC0BAC068
:1001E000B9C00C9408000C9409000C940A000C94FB
:1001F0000B000C940C000C940D000C940E000C944D
:100200000F000C9410000C9411000C9412000C942C
:1002100013000C9414000C9415000C9416000C940C
:1002200017000C9418000C9419000C941A000C94EC
:100230001B000C941C000C941D000C941E000C94CC
:100240001F000C9420000C9421000C9422000C94AC
:1002500023000C9424000C9425000C9426000C948C
:1002600027000C9428000C9429000C942A000C946C
:100270002B000C942C000C942D000C942E000C944C
:100280002F000C9430000C9431000C9432000C942C
:1002900033000C9434000C9435000C9436000C940C
:1002A00037000C9438000C9439000C943A000C94EC
:1002B0003B000C943C000C943D0020920070209276
:1002C00019702092327020924B70209264702092AC
:1002D0007D702092007120921971209232712092CB
:1002E0004B712092647120927D7120920072209255
:1002F00019722092327220924B7220926472209274
:100300007D72209200732092197320923273209292
:100310004B732092647320927D730895EBEF3394B6
:100320003E2208958BD116C0E29ABBD1E8D185E672
:1003300092D310C0E29AB5D1E5D18EE78CD30AC032
:10034000E29AAFD1E2D183E286D304C0AAD1D1D15F
:100350008EE200C02398209266081ED362D3EFE19C
:10036000FAE6EDBFFEBF14D307D0BDD1D1D1D7D1AE
:10037000E5D197D177D1EEC1E1999FDFE79BCEDF41
:10038000E2999ED1ECB3E973ECBB00C0B7D2B2D214
:100390002DD0CC24E601D50187E165D0F0936F6CB8
:1003A00087E161D0F0936F6C87E15DD0F0936F6C63
:1003B00087E159D0F0936F6C87E155D0F0936F6C63
:1003C0008FE751D0FD2DE1E0E081E7FD06D0E69B0F
:1003D00007D0E4E0E093A7040895E69AE79A089529
:1003E000E1E0DE26EBEFB394BE2237C0A895209261
:1003F00066082092000BE0E0F0E0E0930A0BF09337
:100400000B0B20920C0B20920D0BEFEFE093060BE1
:10041000EAECE093660887E0C0E7DCE63199FECFBE
:10042000E3E0E093000B229AE4E0E093A704E0E02D
:10043000FFE80090640807FEFCCF00906108109070
:10044000600802FC71CF1992E125E0818A958AF754
:10045000E0936F6C209266080895E0E7FCE6CCE03C
:10046000D8E687E019C2EAECE09366089D91E69928
:100470009E7F219690FD239AE0E0FFE80D90319950
:10048000FECF90FD009262080D9090FD00926208F0
:100490000090640807FEFCCF00906108109060088F
:1004A00002FC42CF1992E125E0818A9589F362F737
:1004B000F0916F6CFE2B23982092660808950C949F
:1004C000510C0C944C0C0C94550C9FD0E8E7FCE6B6
:1004D00087E1F7DF87C099D0E8E7FCE68DE0F1DF40
:1004E000ECE0F8E683E0EDDF83E0E9DF6FC08DD07C
:1004F000D32DCEE780E8E0E0F9E6E3DF02C085D067
:1005000000C088D082D0F6018FE0DBDFD32DCEE7AC
:10051000AFE7B0E072DEF32DEC2D3F96A193B193DF
:10052000C193D19353C0E60188E1CDDF09F408956A
:1005300001CFE601A2E1B0E060DEF601739671C082
:10054000DD2DCEE7AFE7B0E058DEF6013F9669C09B
:10055000E091276AE211E150E093276AE211F6CEBA
:10056000E601E985F091226AEF23FA95F093226A79
:10057000E211ECCE86C0E601E985F0916C6CF211D7
:10058000EF13E4CE08950895E0916D6CE0FFDECEA8
:100590000895E0916D6CE0FD04C08091236A8211A2
:1005A000D5CE08951EDEA991B9910D010128AE178F
:1005B000BF07021051F417DEA991B9910D0101286E
:1005C000AE17BF07021009F40895C0CED32DCC2D6D
:1005D000A2E1B0E012DEF32DEC2D7396A193B1935E
:1005E000C193D193D32DCC2D87E16DDFE99308958D
:1005F000DF93CF93C82F0E94740CEF91FF91A193CA
:10060000B193C193D193EF010895CC2DCA9504C045
:10061000C4E602C0CDE700C0D32D888181608993F4
:10062000089501900A1286CE01900B1283CE01909C
:100630000C1280CE01900D127DCE0895E3E0E09380
:10064000216AE0E0F4E76F01E0E0F0E75F01F2E744
:100650003F2E20926D6C2092246AE4E0ECBBC5D062
:100660001DD00FC0E7990895FD2DE2E0808180FD47
:1006700001D00895E091276AE211EA95E093276A94
:100680000895E0914801FFE0F491F093226A2092EE
:10069000276A0895EFE0E093276A08952092236A7D
:1006A0000895F32DE0E02082F32DE9E12082E2E3DA
:1006B0002082EBE42082E4E62082EDE720820895A8
:1006C000F0E7BF2EF2E73F2EF8CDE4E1F9E6219204
:1006D000E033E9F708952092480120924901E1E0D2
:1006E000E09343010895E0E8F9E6CAC0E4E8F9E6DA
:1006F000C7C0E8E8F9E6C4C0E0E9F9E6C1C0ECE843
:10070000F9E6BEC0E4E9F9E6BBC0E8E9F9E6B8C03D
:10071000E0916F6C20926F6CE2110CCE0895E79916
:100720000895DD2DC5E0E881F0916E6CF395E093BE
:100730006E6CEF1709F40895E29A02CEDD2DC0E049
:10074000EC85E093216AE799B7C2EB85E77FFBE090
:100750000C94A60C1ED0E7DE37C0E0910068F09143
:100760000168C3E301D015C0DD2DCC2E88819981AD
:100770009F3F49F4803051F08F3F51F00090246A40
:10078000801521F005C08E179F0711F40F900F9070
:100790000895CAE1DD2DCC2E80E090E0E0E0F9E69E
:1007A00009901190802901249029E830C9F7803000
:1007B00011F09211CBCDE0E009F0E1E0E0936D6C37
:1007C0000895E601EA8102C0E601E885E03120F4FF
:1007D000F0E0EF51F74F0994B9CD20926C6C209264
:1007E000686CECB3E260ECBB089501D037C0E0E088
:1007F000F9E60E940509EF010E94F108E993F993D7
:100800000E94F308E993F9930E945E0CE993F9932F
:100810000E94610CE993F9930E94F508E993F9931A
:100820000E94F708E993F99382E0E2DE81E0E0DEDE
:1008300083E0DEDE84E0DCDE87E0DADE85E0D8DE41
:1008400086E0D6DEE0E1F1E180E13BDEE8E1F0E0E8
:10085000E993F993E0910A68E993089509D081E05A
:100860008993E8E0F9E68CE02CDE2992299208953C
:10087000C8E7DCE6E0E0F9E688E023CE0C942B0D37
:100880008081918101968083918328F48281938174
:100890000196828393830895019009928A95E1F7E6
:1008A000089529928A95E9F70895E0E0FFE8099014
:1008B000E025E0818A95D9F7EE230895E0E0F0E0A5
:1008C0000895E0E0F0E00895E8E4FCE60E942909DC
:1008D000C8E2DAE60E942B09E8E2FCE60E94290958
:1008E000C8E2DAE60C942B09E8E4FCE60E942D0944
:1008F0000C941D092298349BFECF08953499FECFA5
:100900000895C0E0D8E6A4E0B0E00EC0C0E0D8E6AC
:10091000A8E0B0E014C0C0E0D8E680E0C2DF00C0CC
:10092000EFEFE0930968089568DCF001A095B095B9
:10093000C095D095A083B183C283D38308955DDC35
:10094000F00180830895E2E0F2E000C0EF23F0952B
:100950000090206A0F22E02904C0E0E002C0EFEF1F
:1009600000C0E093206A00C0E091206A0C94FB086C
:10097000EF23F0950090216A0F22E02906C0E0E005
:1009800004C0E5E502C0EFEF00C0E093216A00C0BB
:10099000E091216A0C94F908B39904C0E5E5B19B94
:1009A0000C94270907C0442455240895AA98089553
:1009B000AA9A0895E0914408E7FF0895E09140085D
:1009C000E093007608958F93892F0AD08F9108C005
:1009D0008F93892F05D08F9100C002D08CE23BC04D
:1009E00001D003C08F93829501C08F938F70805D7B
:1009F0008A3308F0895F2FD08F9108958AE02BD039
:100A00008DE029C00F01451451F0F0914408F5FF25
:100A100006C0F7E7E52DF081F09342085394F0010A
:100A20000895451459F0F0914408F5FFFACFF7E71F
:100A3000E52DF081F09342085394F3CF0895C42D2F
:100A4000D7E70190002029F00882C395C511F9CF9E
:100A5000CA954C2ED8CF0F01F201FA95EF1719F075
:100A6000F7E780834394CFCF8F938E2FF201FA95CF
:100A7000EF1719F0F7E7808343948F9108958991D8
:100A8000ACDF9A95E1F70895899182118813089552
:100A9000E2DFFACFC8EADAE9F7DF80910A68A0DF7F
:100AA000C8EBDAE9F1DFBDCF0A0D1B5B34346D2EE4
:100AB0002E2E5B424C442D005D1B5B6D0A0D000029
:100AC000C8ECDAE9E1DFADCF0A0D1B5B34336D2EE4
:100AD0002E2E5B5550445D1B5B6D0A0D0000C0EF70
:100AE000DAE9D2DFC0E0D8E690E1C9DF87DF99CF4D
:100AF0000A0D1B5B34326D2E2E2E5B4150505D1B58
:100B00005B6D202D200040DD14DDC4DD82E6B6DE05
:100B1000C0911A69D0911B69CF3241F5D13C31F5B2
:100B200022982398209266082E982BDF7ADFE60120
:100B30008985809302688889998980930368909356
:100B400004688E859F8580930068909301680E9459
:100B5000810CE6018A8980FF0C940010E8EDE09397
:100B60003400E5E8E09301100C940010ECB3E2606F
:100B7000ECBBECCB09DDDDDC8DDD81E77FDEB7DCB6
:100B8000E9CB89E67BDE0C94AA0903DDE6012A960F
:100B900009DDCFDC7FDD83E771DEE601EE85E093E2
:100BA000686CE985E0936C6C96DDC7E0E8E4FCE6F0
:100BB00054DBC091686CE8E2FCE64FDBCBCBE9DCB0
:100BC000E6012A96EFDCB5DC65DD85E757DE05DE5C
:100BD000C1CBDADCAEDC5EDD82E750DEF601A28559
:100BE000B385D32DCEE78585813808F0AFCB0D9046
:100BF00009928A95E1F783DCADCBBDDCCADC99DCD8
:100C00009FDC48DD68DD87E739DEF6018285938564
:100C1000DFDEF6018585E1DE2298239820926608C2
:100C20002E9853DDA0E8B0E0DD2DCEE7E8E4FCE649
:100C300016DBF601C285D385E8E2FCE6EEDAE601D2
:100C4000AD85B0E0C8E4DCE6E8E2FCE60CDBECB342
:100C5000E260ECBB7FCB8FDC9CDC6BDC1BDD86E6D3
:100C60000DDEF60182859385B3DEB7DD2EDD229899
:100C70002398209266082E98E8E2FCE6FADAF6015C
:100C8000C285D385E8E2FCE6C8DAE6018D85EDDAB7
:100C9000F0DAADDDECB3E260ECBB5CCB74DCE6011A
:100CA0002A9680DC46DCF6DC8DE6E8DDF6018185FF
:100CB0008093236A0C94AA098DE2E0DDE8E0F8E075
:100CC00045DE14DD0C94AA0964DCE6012A966ADC90
:100CD00030DC3EDC80E7D2DDC1DDFDDB3BCB59DC27
:100CE000E6012A965FDC25DCD5DC82E5C7DDC3CAD8
:00000001FF
; 
; *** EOF 
