@ba12 ; Affinity 
@bb01 ; MemBank 
@bc03 ; Command 
:020000020A00F2
:1000000059C1000081E04CC182E04AC183E048C18F
:10001000E4C0000085E044C186E042C173D076C0F0
:1000200088E03EC17ED081C08AE03AC18BE038C111
:10003000DAC00000DBC000008EE032C18FE030C1CA
:1000400080E12EC181E12CC182E12AC1DAC0000029
:1000500084E126C185E124C186E122C187E120C176
:100060008FC0000089E11CC18AE11AC18BE118C16F
:100070008CE116C16AC000008EE112C18FE110C18F
:1000800080E20EC181E20CC182E20AC183E208C1B2
:1000900084E206C185E204C186E202C187E200C1B2
:1000A00088E2FEC089E2FCC08AE2FAC08BE2F8C0B6
:1000B00061C000008DE2F4C08EE2F2C08FE2F0C0B9
:1000C00080E3EEC081E3ECC082E3EAC083E3E8C0F2
:1000D000A3C0000085E3E4C086E3E2C087E3E0C09C
:1000E00088E3DEC089E3DCC08AE3DAC08BE3D8C0F2
:1000F0008CE3D6C08DE3D4C08EE3D2C08FE3D0C0F2
:10010000858B65DF31E030930B0A1895CFB64F0130
:10011000E52FE33520F4F0E0E853F64E0994EFE0E4
:1001200070C730E130930B0A1895CFB64F01E091BC
:100130003A6AE395E0933A6AEA95EC3120F4F0E00C
:10014000EE57F34E0994E0E15CC77FB660900B0078
:1001500038E062FE03C0309352045A9A63FE03C033
:10016000309353045B9A3091316A36293093316A67
:100170007FBE189538E030933504E99A3D9A18957A
:100180003F01E091446AF091456A30911006319345
:10019000309111063083E091466AF091476A3191BF
:1001A00030930C063191309308063191309301065B
:1001B00031913093A00031913093446A3191309362
:1001C000456A319130930B06319130930A06E093E2
:1001D000466AF093476AF30118953F01E1E0E09326
:1001E0005301F30118953F01F501099460901C0B30
:1001F00070901D0B6092366A7092376A2092150BD0
:1002000018953F0130910008E0913B6AF32D31933E
:10021000E0933B6AF30118953F013091610832FD8C
:1002200018C030916008E32FFFB7E227FFBFFFE05F
:100230002081F8013193F091356AEF1301C0E49801
:100240000E2FE49B04C0FD2D318130936208F30131
:100250001895E498239822982092050B209265081F
:1002600020926608E598E29AE19AF12FE1E03FEFEB
:1002700030833FB7E0918C69F0918D693196E093BE
:100280008C69F0938D6948F4E0918E69F0918F69E3
:100290003196E0938E69F0938F693FBFF301189513
:1002A000F894239822982092650820926608E82FF7
:1002B0000C940118A895F8942224E8EDE0933400FA
:1002C000E5E8E0930110E8EDE4BF20921001EFE1D2
:1002D000FAE6EDBFFEBFE0E0FAE6C0E0DEE0219224
:1002E0002197E9F7A0910268A03110F0EBE152C428
:1002F000B0E0BA9FF001B6E0BA9FF00DE05AFF4FB0
:10030000E093206AF093216AAF50A195B0E0BA9FC4
:10031000F001B6E0BA9FF00DE093226AF093236AF1
:10032000E8E0E0931104E0933504E0E0F8E0268291
:10033000A0E8B1E0A087B187A0E0A583A3E0A783F0
:1003400001982598E0EAF0E0A0E0A083A1E0A28374
:1003500089988A98819A829AE0E0F6E0A1E1A083E8
:10036000A0E0A183A6E0A283A0E0A383A0E0A483F1
:100370002092A2062092A306E1E4E093A006209238
:10038000650820926608A4E0A093E605E0E8E09303
:100390009104E0939204E0E0FAE02082A6E0A283D8
:1003A000BFEFB0A7B1A7B2A7B3A7B4A7B5A7B6A32D
:1003B00027A220A221A2A3E6A183AFEFA387A1E1F8
:1003C000A287E0E0FBE02082A0E0A1832582E0E1BB
:1003D000FBE0A5E1A083A2E0A1832582A1E5A4839F
:1003E000A1E4A0931002A1E0A0934102A0E8A09391
:1003F0001102A2E0A0932C02A0915101A0FDFCCF1C
:10040000A1E2A0935001A1E0A093520103D4A895CA
:10041000E8EDE4BFE4E0E093000183D685D61ED684
:100420002FD01BD7789470C00FC07BC07AC00EC08D
:1004300078C077C076C075C074C073C072C008C081
:1004400070C06FC06EC06DC00C94EB170C94F717A2
:100450000C942A126CD440D483E7BBD58BE08093F4
:10046000976C9091146D80910611891B9091156D78
:1004700080910711890B88578093986CF9D355C0E8
:100480002DBA5527E1E0E093000A0895209200700C
:10049000209219702092327020924B7020926470DA
:1004A00020927D70209200712092197120923271F9
:1004B00020924B712092647120927D712092007283
:1004C000209219722092327220924B7220926472A2
:1004D00020927D72209200732092197320923273C1
:1004E00020924B732092647320927D730895EBEFFA
:1004F00033943E220895EBEFD394DE220895E1E099
:10050000F12E1E27089508956CD4FDDF0EC09CD4F3
:10051000CFD483E25ED609C097D4C7D48EE759D62C
:1005200004C092D4B9D48EE200C0EFE1FAE6EDBF88
:10053000FEBFF0D534D689D306D0A8D4C3D4D1D445
:1005400083D436D0DAC4E599FECFE1999FDFD9D2C2
:10055000E89BFECFD4DFE79BCADFE69BCCDFECB3A2
:10056000E973ECBBA8952092000B20920A0B209215
:100570000B0BE1E0E093060BE093050BE0E8E09362
:100580006508EAECE0936608C2D5BDD5E3E0F1E08A
:10059000F8943199FECFF093000AE093000BE59AAE
:1005A000E8987894FF2DE1E0E081E7FDE79A08956F
:1005B000CBEFD32DD395DC23C0E080E03CC5E0E059
:1005C000F6E0E0930C0BF0930D0BE1E0E093060BEB
:1005D000E4E3F3E15F01E0E8E0936508309160084F
:1005E0003091600830916008E8E1E093356A222D8F
:1005F000E0E0FD2D31910E2F30FF32C0239AE49AB6
:100600003191E081319B26C0319B24C0319B22C0B7
:10061000319B20C0319B1EC0319B1CC0319B1AC036
:10062000319B18C0319B16C0319B14C0319B12C046
:10063000319B10C0319B0EC0319B0CC0319B0AC056
:10064000319B08C0319B06C0319B04C0319B02C066
:10065000319B00C030936208E0936208F301189563
:10066000E498F30123981895F12FE1E0E081E7FD8C
:10067000E69A229AE0E0F6E0E0930C0BF0930D0B83
:10068000E1E0E093060BEFE8F3E15F01E0E8E093DF
:100690006508309160083091600830916008E1E3AE
:1006A000E093356A222DE9E1FD2D31910E2F30FFC7
:1006B00032C0239AE49A3191E081319B26C0319B6C
:1006C00024C0319B22C0319B20C0319B1EC0319B76
:1006D0001CC0319B1AC0319B18C0319B16C0319B86
:1006E00014C0319B12C0319B10C0319B0EC0319B96
:1006F0000CC0319B0AC0319B08C0319B06C0319BA6
:1007000004C0319B02C0319B00C030936208E0936B
:100710006208F3011895E498F30123981895E0E036
:10072000F6E0E0930C0BF0930D0BE1E0E093060B89
:10073000E4EEF3E15F01E0E8E093650830916008E2
:100740003091600830916008EAE4E093356A222D28
:10075000E2E3FD2D31910E2F30FF32C0239AE49A4F
:100760003191E081319B26C0319B24C0319B22C056
:10077000319B20C0319B1EC0319B1CC0319B1AC0D5
:10078000319B18C0319B16C0319B14C0319B12C0E5
:10079000319B10C0319B0EC0319B0CC0319B0AC0F5
:1007A000319B08C0319B06C0319B04C0319B02C005
:1007B000319B00C030936208E0936208F301189502
:1007C000E498F30123981895E0E0F6E0E0930C0B31
:1007D000F0930D0BE1E0E093060BE9E3F4E15F0138
:1007E000E0E8E0936508309160083091600830914E
:1007F0006008E3E6E093356A222DEBE4FD2D3191AC
:100800000E2F30FF32C0239AE49A3191E081319B60
:1008100026C0319B24C0319B22C0319B20C0319B1C
:100820001EC0319B1CC0319B1AC0319B18C0319B2C
:1008300016C0319B14C0319B12C0319B10C0319B3C
:100840000EC0319B0CC0319B0AC0319B08C0319B4C
:1008500006C0319B04C0319B02C0319B00C0309365
:100860006208E0936208F3011895E498F301239875
:100870001895E0E0F6E0E0930C0BF0930D0BE1E04F
:10088000E093060BEEE8F4E15F01E0E8E093650831
:10089000309160083091600830916008ECE7E09397
:1008A000356A222DE4E6FD2D31910E2F30FF32C046
:1008B000239AE49A3191E081319B26C0319B24C078
:1008C000319B22C0319B20C0319B1EC0319B1CC07C
:1008D000319B1AC0319B18C0319B16C0319B14C08C
:1008E000319B12C0319B10C0319B0EC0319B0CC09C
:1008F000319B0AC0319B08C0319B06C0319B04C0AC
:10090000319B02C0319B00C030936208E0936208C3
:10091000F3011895E498F30123981895E0E6FEE1B9
:10092000E0930C0BF0930D0BE1E0E093060BE3EE8C
:10093000F4E15F01E0E8E0936508309160083091F0
:10094000600830916008EDEFE093356A222DEDE705
:10095000FD2D31910E2F30FF32C0239AE49A319150
:10096000E081319B26C0319B24C0319B22C0319B4A
:1009700020C0319B1EC0319B1CC0319B1AC0319BD3
:1009800018C0319B16C0319B14C0319B12C0319BE3
:1009900010C0319B0EC0319B0CC0319B0AC0319BF3
:1009A00008C0319B06C0319B04C0319B02C0319B03
:1009B00000C030936208E0936208F3011895E49850
:1009C000F30123981895F091216AE091206AE09351
:1009D0000C0BF0930D0B20926508E1E0E093060B01
:1009E000E6EFF4E15F01F30123981895E0E0F6E00B
:1009F000E0930C0BF0930D0BE1E0E093060BE5E4C4
:100A0000F5E15F01E0E8E09365083091600830911E
:100A1000600830916008E3E6E093356A222DEBE44C
:100A2000FD2D31910E2F239AE49A3191E081319B73
:100A300026C0319B24C0319B22C0319B20C0319BFA
:100A40001EC0319B1CC0319B1AC0319B18C0319B0A
:100A500016C0319B14C0319B12C0319B10C0319B1A
:100A60000EC0319B0CC0319B0AC0319B08C0319B2A
:100A700006C0319B04C0319B02C0319B00C0309343
:100A80006208E0936208F3011895E091226AF09100
:100A9000236AE0930C0BF0930D0B20926508E1E0C4
:100AA000E093060BE8E5F5E15F012398F301189563
:100AB000E0E0F6E0E0930C0BF0930D0BE1E0E09347
:100AC000060BE5E7F5E15F013091600830916008C1
:100AD00030916008E0E8E0936508E498ECE7E09383
:100AE000356A222D05E6F3011895209265082092BB
:100AF00066082092050B2092000B2398E598F301DD
:100B00001895E49801E0E8E0E093356A222DE0E1F1
:100B1000F2E0E0930C0BF0930D0BE1E0E093060B99
:100B2000EFEDF2E15F0108950C9408000C940900C8
:100B30000C940A000C940B000C940C000C940D0007
:100B40000C940E000C940F000C9410000C941100E7
:100B50000C9412000C9413000C9414000C941500C7
:100B60000C9416000C9417000C9418000C941900A7
:100B70000C941A000C941B000C941C000C941D0087
:100B80000C941E000C941F000C9420000C94210067
:100B90000C9422000C9423000C9424000C94250047
:100BA0000C9426000C9427000C9428000C94290027
:100BB0000C942A000C942B000C942C000C942D0007
:100BC0000C942E000C942F000C9430000C943100E7
:100BD0000C9432000C9433000C9434000C943500C7
:100BE0000C9436000C9437000C9438000C943900A7
:100BF0000C943A000C943B000C943C000C943D0087
:100C0000E2E0F2E000C0EF23F0950090346A0F229A
:100C1000E02904C0E0E002C0EFEF00C0E093346AD6
:100C200000C0E091346A0C949E15EF23F09500907B
:100C3000336A0F22E02906C0E0E004C0E5E502C007
:100C4000EFEF00C0E093336A00C0E091336A0C9488
:100C50009C150C941B180C9416180C941F18E70183
:100C6000E885E03120F4F0E0EC5EFD4E099459CCCB
:100C70009FD0EFE8FCE687E1EEDF87C099D0EFE890
:100C8000FCE68DE0E8DFECE0F8E683E0E4DF83E01B
:100C9000E0DF6FC08DD0D32DCEE780E8E0E0F9E64D
:100CA000DADF02C085D000C088D082D0F7018FE0A3
:100CB000D2DFD32DCEE7AFE7B0E042DFF32DEE2D4C
:100CC0003F96A193B193C193D19353C0E70188E1BB
:100CD000C4DF09F4089520CCE701A2E1B0E030DFE1
:100CE000F701739671C0DF2DCEE7AFE7B0E028DFE4
:100CF000F7013F9669C0E091416AE211E150E0934B
:100D0000416AE2110ECCE701E985F0913D6AEF23DB
:100D1000FA95F0933D6AE21104CC86C0E701E985BB
:100D2000F0918C6CF211EF13FCCB08950895E091D3
:100D30008D6CE0FFF6CB0895E0918D6CE0FD04C072
:100D400080913E6A8211EDCB0895EEDEA991B991B2
:100D50000D010128AE17BF07021051F4E7DEA9917B
:100D6000B9910D010128AE17BF07021009F40895CB
:100D7000D8CBD32DCE2DA2E1B0E0E2DEF32DEE2DC7
:100D80007396A193B193C193D193D32DCE2D87E1C7
:100D900064DFE9930895DF93CF93C82F0E943E1834
:100DA000EF91FF91A193B193C193D193EF01089576
:100DB000CE2DCA9504C0C4E602C0CDE700C0D32D35
:100DC000888181608993089501900A12A5CB0190D2
:100DD0000B12A2CB01900C129FCB01900D129CCB59
:100DE0000895E3E0E093336AE0E0F4E78F01E0E0A8
:100DF000F5E77F01F0E7DF2EF2E73F2E20928D6CC2
:100E0000E4E0ECBBE0D01DD00FC0E7990895FF2DC2
:100E1000E2E0808180FD01D00895E091416AE21115
:100E2000EA95E093416A0895E0914801FFE0F4916A
:100E3000F0933D6A2092416A0895EFE0E093416AA1
:100E4000089520923E6A0895F32DE0E02082F32D6C
:100E5000E9E12082E2E32082EBE42082E4E62082E2
:100E6000EDE720820895F0E7DF2EF2E73F2E0ECB6C
:100E7000E4E1F9E62192E033E9F708952092480190
:100E800020924901E1E0E09343010895E0E8F9E6AA
:100E9000C1C0E4E8F9E6BEC0E8E8F9E6BBC0E0E9B5
:100EA000F9E6B8C0ECE8F9E6B5C0E4E9F9E6B2C0A5
:100EB000E8E9F9E6AFC0E091246A2092246AE211E1
:100EC0002BCB0895E7990895DF2DC5E0E881F091D7
:100ED000256AF395E093256AEF1709F40895E29ADD
:100EE00016CBDF2DC0E0ED85E093336AE79977C03C
:100EF000EB85E77FF9E00C94031602D0E7DEAFCE76
:100F0000CAE1DF2DEC2E80E090E0E0E0F9E6099008
:100F10001190802901249029E830C9F7803011F020
:100F20009211FFCAE0E009F0E1E0E0938D6C0895D2
:100F300020928C6C2092886CECB3E260ECBB08953C
:100F400001D037C0E0E0F9E60E94A815EF010E9449
:100F50009415E993F9930E949615E993F9930E94E9
:100F60002818E993F9930E942B18E993F9930E94AA
:100F70009815E993F9930E949A15E993F99382E001
:100F80000ADF81E008DF83E006DF84E004DF87E03A
:100F900002DF85E000DF86E0FEDEE0E1F1E180E1F6
:100FA0005ADEE8E1F0E0E993F993E0910A68E99309
:100FB000089509D081E08993E8E0F9E68CE04BDE02
:100FC000299229920895CFE8DCE6E0E0F9E688E08E
:100FD00042CE0C94E91889E6FCDF0C9495128DE260
:100FE000F8DFE8E0F8E00FDE54DF0C949512A4DEA1
:100FF000E7012A96AADE70DE20DF82E5EADFDECD99
:10100000ECE32398F894AFE1BAE6ADBFBEBF1ADEB9
:10101000A895FECF8081918101968083918328F4E9
:10102000828193810196828393830895019009922E
:101030008A95E1F7089529928A95E9F70895E0E005
:10104000FFE80990E025E0818A95D9F7EE2308951D
:10105000E0E0F0E00895E0E0F0E00895E8E6FCE686
:101060000E94CC15C8E4DAE60E94CE15E8E4FCE65E
:101070000E94CC15C8E4DAE60C94CE15E8E6FCE64E
:101080000E94D0150C94C015799FE001689FD00193
:10109000699FB00DC11DD21D789FB00DC11DD21D1D
:1010A000089580E404C080E202C080E100C0C083F3
:1010B000D1838283238224822582BDCF0DD007C0B5
:1010C0000BD003C009D0AA0FBB1FAA0FBB1FAA0FCA
:1010D000BB1FAA0FBB1F0895B381A081AB0FB181C5
:1010E000B21DDC91CC93A481B581AD1BB209AC0FCC
:1010F000B21DA483B583C281D381D395DC1708F0D8
:10110000DD27D38308952298349BFECF0895349928
:10111000FECF0895B39904C0E5E5B19B0C94CA15C0
:1011200007C0442455240895AA980895AA9A0895BA
:10113000E0914408E7FF0895E0914008E0930076CD
:1011400008958F93892F0AD08F9108C08F93892F8C
:1011500005D08F9100C002D08CE23BC001D003C00B
:101160008F93829501C08F938F70805D8A3308F0D2
:10117000895F2FD08F9108958AE02BD08DE029C010
:101180000F01451451F0F0914408F5FF06C0F7E750
:10119000E52DF081F09342085394F0010895451431
:1011A00059F0F0914408F5FFFACFF7E7E52DF0810B
:1011B000F09342085394F3CF0895C42DD7E70190DC
:1011C000002029F00882C395C511F9CFCA954C2E8D
:1011D000D8CF0F01F201FA95EF1719F0F7E78083E6
:1011E0004394CFCF8F938E2FF201FA95EF1719F01A
:1011F000F7E7808343948F9108958991ACDF9A95A6
:10120000E1F708958991821188130895E2DFFACFFA
:10121000C4E2D2EBF7DF80910A68A0DFC4E3D2EB2F
:10122000F1DFBDCF0A0D1B5B34346D2E2E2E5B42D9
:101230004C442D005D1B5B6D0A0D0000C4E4D2EB35
:10124000E1DFADCF0A0D1B5B34336D2E2E2E5B55C7
:1012500050445D1B5B6D0A0D0000CCE6D2EBD2DF83
:10126000C0E0D8E690E1C9DF87DF99CF0A0D1B5BAC
:1012700034326D2E2E2E5B4150505D1B5B6D202D48
:101280002000E091446AF091456AEF2B0895CF93D6
:10129000C091446AC21106C0C091456AC21102C021
:1012A000CF9103C0CF9188940895CF93C2E0C093AB
:1012B0000A06C1E0C0930D06C191C0930006C1911A
:1012C000C0930206C191C0930306C191C093040666
:1012D000C191C0930C06C191C0930806C191C093FF
:1012E0000106C191C093A000C191C093446AC1910D
:1012F000C093456AC191C0930B06C191C0930A0681
:10130000E093466AF093476ACF9108940895E4E128
:10131000F3EBCBCF1106000001050080006D01004A
:1013200001070080046D0001010B0080086D0001C1
:1013300001050080026D010001070080066D0001BB
:10134000010B00800A6D0001010B0080426A010060
:10135000010B0080106D000101070080426A01004E
:10136000010700800E6D000101050080426A010046
:10137000010500800C6D000101040080126D010068
:1013800001420081146D010000000080126D000216
:1013900052C07BC096C0A9C0B2C0BBC0BCC0BDC05B
:1013A000BEC0BFC0C0C0C1C0C2C0C3C0C4C0C5C031
:1013B000C6C0C7C0C8C0C9C0CAC0E3C0E4C0E9C095
:1013C000EAC0EEC0EFC0F0C0F1C0F2C0F3C0F4C09C
:1013D000F5C0F6C0F7C0F8C0F9C0FAC0FBC0FCC049
:1013E0000AC10BC10CC10FC112C115C118C11BC16B
:1013F0001EC121C124C127C12AC12DC130C133C1A1
:1014000036C139C151C152C153C17AC18FC1ABC1BB
:10141000ADC1BDC1BEC1C1C1C4C1C7C1CAC1CDC1B9
:10142000D0C1D3C1D6C1D9C1DCC1DFC1E2C1E5C1E0
:10143000E8C1EBC1EEC1E4E0E093A704F12FE5E6DB
:10144000478142954F70ED9943954EBB44814C7F47
:101450004DBB40910D6D440F42E308F04181539B19
:10146000EE9B40E04B3F08F04BEF4093A3064381D7
:101470004F7040932F6A440F440FF42F440F4F0FC7
:101480004093306A44DF51E0CEC1E4E0E093A7042A
:10149000209205082092060830923C6A44E0E8EB6E
:1014A000F2E0F3D2E091200AE43BE0F32092000A5C
:1014B000E0E4F2E0E093200AF093210AE89A52E097
:1014C000B5C1E4E0E093A704DF93CF93E0E0FFE849
:1014D000D0913C6ACCE44991E427E081C336D9F746
:1014E000E883CF91DF9153E09EC1E4E0E093A7044D
:1014F000F32DECE42192E436E9F754E097C1FF2D97
:10150000ECE6408142954F70F32DEDE5408355E0C8
:101510008AC156E08BC157E086C158E087C159E0C7
:1015200082C15AE083C15BE07EC15CE07FC15DE0C7
:101530007AC15EE07BC15FE076C150E177C151E1E5
:1015400072C152E173C153E16EC154E16FC1F32D19
:10155000EFE54081EC994064E091316A2092316A74
:10156000E2FD446052994061E3FD48605399406256
:10157000EFE54083E9E0E0935204E093530455E142
:1015800052C156E153C1EEB3EA95EEBB22F057E1EA
:101590004AC156E14BC1FF2DECE6E081EF70EFBB95
:1015A000E0E01CC0E1E01AC0E2E018C0E3E016C0D1
:1015B000E4E014C0E5E012C0E6E010C0E7E00EC0D1
:1015C000E8E00CC0E9E00AC0EAE008C0EBE006C0D1
:1015D000ECE004C0EDE002C0EEE000C04FB34E17F7
:1015E00009F44EC04E2FFF2DE359F081E35500C0A2
:1015F000E0932B6AFEBB59E210C1539511C153957C
:10160000F79B0BC110C15395F79B0AC10FC15395AE
:10161000F69B03C108C15395F69B02C107C15395C0
:10162000F59BFBC000C15395F59BFAC0FFC05395D5
:10163000F49BF3C0F8C05395F49BF2C0F7C05395E8
:10164000F39BEBC0F0C05395F39BEAC0EFC05395FA
:10165000F29BE3C0E8C05395F29BE2C0E7C053950C
:10166000F19BDBC0E0C05395F19BDAC0DFC053951E
:10167000F09BD3C0D8C050912B6AF09BD1C0D6C08C
:10168000F32DECE440910D6D44874091016D42874C
:101690004091036D438740910F6D45874091116DD7
:1016A00046874091136D47875BE3BDC05395BEC02D
:1016B000EB993DC0ED9901C0BECE5DE3FF2DEBE699
:1016C0004081F32DECE54083407E4695E42F46951E
:1016D0004E0FE0E7F2E0E40FF21DE0932D6AF09385
:1016E0002E6AE8E0F7E040912D6AE41B40912E6AF3
:1016F000F40B40E0C3D1E0912D6AF0912E6AB3C0A3
:101700005395FF2DEBE64081440F440F440FE0E971
:10171000FAE2E40FF21DE40FF21DE40FF21D409116
:101720002D6AE41B40912E6AF40BC9C084CEEA995D
:1017300004C040E4ECE5F1E003C040E8ECE5F1E092
:1017400040932A6AE093266AF093276AF695E79514
:10175000E093286AF093296AEEE7E0932C6A40E46C
:1017600040932B6A14C0E0912A6AE770E0912A6ADC
:10177000E15050F0E0932A6AE0912C6AFF2D4191EC
:101780004EBBE0932C6A08C0E0E0E0932B6A52E481
:1017900044C050912B6A44C053E45395F09B49C018
:1017A00052C05395F09B4AC053C05395F19B41C022
:1017B0004AC05395F19B42C04BC05395F29B39C030
:1017C00042C05395F29B3AC043C05395F39B31C03E
:1017D0003AC05395F39B32C03BC05395F49B29C04C
:1017E00032C05395F49B2AC033C05395F59B21C05A
:1017F0002AC05395F59B22C02BC05395F69B19C068
:1018000022C05395F69B1AC023C05395F79B11C075
:101810001AC05FE3F79B12C01BC0E0EEFAE023C0E2
:10182000E0EEFAE036C0E0E7F5E01DC0E0E7F5E005
:1018300030C0E091266AF091276A15C0E091266ACF
:10184000F091276A26C0E091286AF091296A0BC0BE
:10185000E091286AF091296A1CC0E0EEFAE042C0EB
:10186000E0E7F5E03FC0EC9916C0EF9B3BC0E0938A
:10187000360AF093370A4FEF40933B0A40933D0AF4
:101880004091306A40933A0A20923B0AF401CFBE5D
:101890000895EC99EACFEF9B25C0E093360AF093C8
:1018A000370A4FEF40933B0A40933D0A4091306A1C
:1018B00040933C0A20923D0AF401CFBE0895EF9B6D
:1018C00011C0E093360AF093370A20923A0A209228
:1018D0003B0A4091306A40933C0A20923D0AF40151
:1018E000CFBE0895E093360AF093370A4FEF409346
:1018F0003A0A40933B0A40933C0A40933D0AF40164
:10190000CFBE08951EC04CC079C091C0B2C0B1C056
:10191000B0C0AFC0AEC0ADC0ACC0ABC0AAC0A9C063
:10192000A8C0A7C0A6C0A5C0A4C0A3C0A2C0A1C093
:10193000A0C09FC09EC09DC09CC09CC0F401CFBEF3
:101940000895ECE4E0933B6AE0E8E0930608E0E801
:10195000E0930508E8E0F7E040912D6AE41B409130
:101960002E6AF40BE093386AF093396AE093366A92
:10197000F093376AE1E0E093160BE093150BE998DA
:10198000EBE0E0933504E0E0FFE040912D6AE41BDA
:1019900040912E6AF40BE093280AF093290ACECFE7
:1019A0004091366AF091376AE091386A4E1BE091B7
:1019B000396AFE0BF6954795F6954795F695479546
:1019C000E4E5F32D4083F32DEFE54081E999416093
:1019D0004083E0EAF1E140912D6AE41B40912E6AD8
:1019E000F40BE093386AF093396AE093366AF09327
:1019F000376AE093280AF093290AA0CFE998EBE030
:101A0000E0933504E1E0E093160BE093150BE0E77B
:101A1000F7E140912D6AE41B40912E6AF40BE093AC
:101A2000280AF093290AEEE4E0933B6A87CF4091BD
:101A3000366AF091376AE091386A4E1BE091396A54
:101A4000FE0BF6954795F6954795F695479511F453
:101A500020920608E5E5F32D4083F32DEFE5408164
:101A6000E999426040832092150BFFEFF093390A09
:101A700065CF64CFFFEFF093390A60CF40933A6AA5
:101A8000E093380AF093390A089540933A6AE09354
:101A9000280AF093290A0895FF0F4795FF0F4795ED
:101AA000FF0F4795FF0F4795FF0F4795FF0F47958E
:101AB000FF0F4795FF0F47950895FFFFFFFFFFFFBB
:00000001FF
; 
; *** EOF 
