@ba12 ; Affinity 
@bb01 ; MemBank 
@bc03 ; Command 
:020000020A00F2
:100000005FC1000081E052C182E050C183E04EC177
:10001000EAC0000085E04AC186E048C179D07CC0D2
:1000200088E044C184D087C08AE040C18BE03EC1F3
:10003000E0C00000E1C000008EE038C18FE036C1B2
:1000400080E134C181E132C182E130C1E0C0000011
:1000500084E12CC185E12AC186E128C187E126C15E
:1000600095C0000089E122C18AE120C18BE11EC157
:100070008CE11CC170C000008EE118C18FE116C177
:1000800080E214C181E212C182E210C183E20EC19A
:1000900084E20CC185E20AC186E208C187E206C19A
:1000A00088E204C189E202C18AE200C18BE2FEC09B
:1000B00067C000008DE2FAC08EE2F8C08FE2F6C0A1
:1000C00080E3F4C081E3F2C082E3F0C083E3EEC0DA
:1000D000A9C0000085E3EAC086E3E8C087E3E6C084
:1000E00088E3E4C089E3E2C08AE3E0C08BE3DEC0DA
:1000F0008CE3DCC08DE3DAC08EE3D8C08FE3D6C0DA
:1001000001002FC10201000055AC1E66069BE2D81B
:1001100031E030930B0A1895CFB64F01E52FE33548
:1001200020F4F0E0E85CF54E0994EFE0BCC730E164
:1001300030930B0A1895CFB64F01E091406AE395D2
:10014000E093406AEA95EC3120F4F0E0EE50F34E93
:100150000994E0E1A8C77FB660900B0038E062FE2A
:1001600003C0309352045A9A63FE03C03093530481
:100170005B9A3091376A36293093376A7FBE18957B
:1001800038E030933504E99A3D9A18953F01E091A3
:100190004B6AF0914C6A3091100631933091110600
:1001A0003083E0914D6AF0914E6A319130930C06A4
:1001B000319130930806319130930106319130939B
:1001C000A000319130934B6A319130934C6A319158
:1001D00030930B06319130930A06E0934D6AF09309
:1001E0004E6AF30118953F01E1E0E0935301F301FA
:1001F00018953F01F501099460901C0B70901D0B40
:1002000060923C6A70923D6A2092150B18953F01EE
:1002100030910008E091416AF32D3193E093416AF7
:10022000F30118953F013091610832FD18C03091FB
:100230006008E32FFFB7E227FFBFFFE02081F8014E
:100240003193F0913B6AEF1301C0E4980E2FE49BC9
:1002500004C0FD2D318130936208F3011895E498B4
:10026000239822982092050B209265082092660818
:10027000E598E29AE19AF12FE1E03FEF30833FB752
:10028000E0918C69F0918D693196E0938C69F093DF
:100290008D6948F4E0918E69F0918F693196E09311
:1002A0008E69F0938F693FBFF3011895F8942398F6
:1002B00022982092650820926608E82F0C94531823
:1002C000A895F8942224E8EDE0933400E5E8E09363
:1002D0000110E8EDE4BF20921001EFE1FAE6EDBF76
:1002E000FEBFE0E0FAE6C0E0DEE021922197E9F708
:1002F000A0910268A03110F0EBE137C4B0E0BA9FE2
:10030000F001B6E0BA9FF00DE05AFF4FE093266A85
:10031000F093276AAF50A195B0E0BA9FF001B6E024
:10032000BA9FF00DE093286AF093296AE8E0E09321
:100330001104E0933504E0E0F8E02682A0E8B1E0A3
:10034000A087B187A0E0A583A3E0A78301982598A3
:10035000E0EAF0E0A0E0A083A1E0A28389988A9877
:10036000819A829AE0E0F6E0A1E1A083A0E0A18377
:10037000A6E0A283A0E0A383A0E0A4832092A2062B
:100380002092A306E1E4E093A00620926508209263
:100390006608A4E0A093E605E0E8E0939104E0930A
:1003A0009204E0E0FAE02082A6E0A283BFEFB0A7CB
:1003B000B1A7B2A7B3A7B4A7B5A7B6A327A220A297
:1003C00021A2A3E6A183AFEFA387A1E1A287E0E08A
:1003D000FBE02082A0E0A1832582E0E1FBE0A5E133
:1003E000A083A2E0A1832582A1E5A483A1E4A09338
:1003F0001002A1E0A0934102A0E8A0931102A2E0A4
:10040000A0932C02A0915101A0FDFCCFA1E2A093EA
:100410005001A1E0A0935201E8D3A895E8EDE4BF14
:10042000E4E0E0930001CFD6D1D66AD614D067D7E6
:10043000789455C0DCC560C05FC0E5C55DC05CC0D8
:100440005BC05AC059C058C057C056C055C054C0F0
:1004500053C052C005C62DBA5527E1E0E093000A0B
:10046000089520920070209219702092327020928C
:100470004B702092647020927D70209200712092C7
:1004800019712092327120924B71209264712092E6
:100490007D71209200722092197220923272209205
:1004A0004B722092647220927D722092007320928F
:1004B00019732092327320924B73209264732092AE
:1004C0007D730895EBEF33943E220895EBEFD394C0
:1004D000DE220895E1E0F12E1E270895089563D4E9
:1004E000FDDF0EC095D4C8D483E2C5D609C090D430
:1004F000C0D48EE7C0D604C08BD4B2D48EE200C084
:10050000EFE1FAE6EDBFFEBF57D69BD689D306D002
:10051000A1D4BCD4CAD47CD436D0D3C4E599FECF00
:10052000E1999FDFD9D2E89BFECFD4DFE79BCADFFA
:10053000E69BCCDFECB3E973ECBBA8952092000BF3
:1005400020920A0B20920B0BE1E0E093060BE09364
:10055000050BE0E8E0936508EAECE093660829D62D
:1005600024D6E3E0F1E0F8943199FECFF093000A4D
:10057000E093000BE59AE8987894FF2DE1E0E081A4
:10058000E7FDE79A0895CBEFD32DD395DC23C0E0A8
:1005900080E0A3C5E0E0F6E0E0930C0BF0930D0BD8
:1005A000E1E0E093060BEFE1F3E15F01E0E8E093C7
:1005B0006508309160083091600830916008E8E18A
:1005C000E0933B6A222DE0E0FD2D31910E2F30FFAC
:1005D00032C0239AE49A3191E081319B26C0319B4D
:1005E00024C0319B22C0319B20C0319B1EC0319B57
:1005F0001CC0319B1AC0319B18C0319B16C0319B67
:1006000014C0319B12C0319B10C0319B0EC0319B76
:100610000CC0319B0AC0319B08C0319B06C0319B86
:1006200004C0319B02C0319B00C030936208E0934C
:100630006208F3011895E498F30123981895F12FB7
:10064000E1E0E081E7FDE69A229AE0E0F6E0E0935F
:100650000C0BF0930D0BE1E0E093060BEAE7F3E1FE
:100660005F01E0E8E0936508309160083091600830
:1006700030916008E1E3E0933B6A222DE9E1FD2D32
:1006800031910E2F30FF32C0239AE49A3191E081EC
:10069000319B26C0319B24C0319B22C0319B20C09E
:1006A000319B1EC0319B1CC0319B1AC0319B18C0AE
:1006B000319B16C0319B14C0319B12C0319B10C0BE
:1006C000319B0EC0319B0CC0319B0AC0319B08C0CE
:1006D000319B06C0319B04C0319B02C0319B00C0DE
:1006E00030936208E0936208F3011895E498F301EF
:1006F00023981895E0E0F6E0E0930C0BF0930D0BD7
:10070000E1E0E093060BEFECF3E15F01E0E8E0935A
:100710006508309160083091600830916008EAE423
:10072000E0933B6A222DE2E3FD2D31910E2F30FF45
:1007300032C0239AE49A3191E081319B26C0319BEB
:1007400024C0319B22C0319B20C0319B1EC0319BF5
:100750001CC0319B1AC0319B18C0319B16C0319B05
:1007600014C0319B12C0319B10C0319B0EC0319B15
:100770000CC0319B0AC0319B08C0319B06C0319B25
:1007800004C0319B02C0319B00C030936208E093EB
:100790006208F3011895E498F30123981895E0E0B6
:1007A000F6E0E0930C0BF0930D0BE1E0E093060B09
:1007B000E4E2F4E15F01E0E8E0936508309160086D
:1007C0003091600830916008E3E6E0933B6A222DA7
:1007D000EBE4FD2D31910E2F30FF32C0239AE49AC5
:1007E0003191E081319B26C0319B24C0319B22C0D6
:1007F000319B20C0319B1EC0319B1CC0319B1AC055
:10080000319B18C0319B16C0319B14C0319B12C064
:10081000319B10C0319B0EC0319B0CC0319B0AC074
:10082000319B08C0319B06C0319B04C0319B02C084
:10083000319B00C030936208E0936208F301189581
:10084000E498F30123981895E0E0F6E0E0930C0BB0
:10085000F0930D0BE1E0E093060BE9E7F4E15F01B3
:10086000E0E8E093650830916008309160083091CD
:100870006008ECE7E0933B6A222DE4E6FD2D319120
:100880000E2F30FF32C0239AE49A3191E081319BE0
:1008900026C0319B24C0319B22C0319B20C0319B9C
:1008A0001EC0319B1CC0319B1AC0319B18C0319BAC
:1008B00016C0319B14C0319B12C0319B10C0319BBC
:1008C0000EC0319B0CC0319B0AC0319B08C0319BCC
:1008D00006C0319B04C0319B02C0319B00C03093E5
:1008E0006208E0936208F3011895E498F3012398F5
:1008F0001895E0E6FEE1E0930C0BF0930D0BE1E0C0
:10090000E093060BEEECF4E15F01E0E8E0936508AC
:10091000309160083091600830916008EDEFE0930D
:100920003B6A222DEDE7FD2D31910E2F30FF32C0B5
:10093000239AE49A3191E081319B26C0319B24C0F7
:10094000319B22C0319B20C0319B1EC0319B1CC0FB
:10095000319B1AC0319B18C0319B16C0319B14C00B
:10096000319B12C0319B10C0319B0EC0319B0CC01B
:10097000319B0AC0319B08C0319B06C0319B04C02B
:10098000319B02C0319B00C030936208E093620843
:10099000F3011895E498F30123981895F091276ACC
:1009A000E091266AE0930C0BF0930D0B2092650802
:1009B000E1E0E093060BE1EEF4E15F01F30123983F
:1009C0001895E0E0F6E0E0930C0BF0930D0BE1E0FE
:1009D000E093060BE0E3F5E15F01E0E8E0936508F2
:1009E000309160083091600830916008E3E6E09350
:1009F0003B6A222DEBE4FD2D31910E2F239AE49AD0
:100A00003191E081319B26C0319B24C0319B22C0B3
:100A1000319B20C0319B1EC0319B1CC0319B1AC032
:100A2000319B18C0319B16C0319B14C0319B12C042
:100A3000319B10C0319B0EC0319B0CC0319B0AC052
:100A4000319B08C0319B06C0319B04C0319B02C062
:100A5000319B00C030936208E0936208F30118955F
:100A6000E091286AF091296AE0930C0BF0930D0B4A
:100A700020926508E1E0E093060BE3E4F5E15F0115
:100A80002398F3011895E0E0F6E0E0930C0BF09367
:100A90000D0BE1E0E093060BE0E6F5E15F0130913C
:100AA00060083091600830916008E0E8E0936508E4
:100AB000E498ECE7E0933B6A222D05E6F3011895F4
:100AC00020926508209266082092050B2092000B68
:100AD0002398E598F3011895E49801E0E8E0E093A5
:100AE0003B6A222DE0E1F2E0E0930C0BF0930D0B5A
:100AF000E1E0E093060BEAECF2E15F0108950C946B
:100B000008000C9409000C940A000C940B000C943F
:100B10000C000C940D000C940E000C940F000C941F
:100B200010000C9411000C9412000C9413000C94FF
:100B300014000C9415000C9416000C9417000C94DF
:100B400018000C9419000C941A000C941B000C94BF
:100B50001C000C941D000C941E000C941F000C949F
:100B600020000C9421000C9422000C9423000C947F
:100B700024000C9425000C9426000C9427000C945F
:100B800028000C9429000C942A000C942B000C943F
:100B90002C000C942D000C942E000C942F000C941F
:100BA00030000C9431000C9432000C9433000C94FF
:100BB00034000C9435000C9436000C9437000C94DF
:100BC00038000C9439000C943A000C943B000C94BF
:100BD0003C000C943D00E2E0F2E000C0EF23F09511
:100BE00000903A6A0F22E02904C0E0E002C0EFEF73
:100BF00000C0E0933A6A00C0E0913A6A0C9489150B
:100C0000EF23F0950090396A0F22E02906C0E0E05A
:100C100004C0E5E502C0EFEF00C0E093396A00C010
:100C2000E091396A0C9487150C946D180C9468182F
:100C30000C9471189FD0E6E9FCE687E1F7DF87C0E6
:100C400099D0E6E9FCE68DE0F1DFECE0F8E683E040
:100C5000EDDF83E0E9DF6FC08DD0D32DCEE780E8F4
:100C6000E0E0F9E6E3DF02C085D000C088D082D0A2
:100C7000F7018FE0DBDFD32DCEE7AFE7B0E04BDF4E
:100C8000F32DEE2D3F96A193B193C193D19353C011
:100C9000E70188E1CDDF09F4089529CCE701A2E15D
:100CA000B0E039DFF701739671C0DF2DCEE7AFE713
:100CB000B0E031DFF7013F9669C0E091486AE21188
:100CC000E150E093486AE21117CCE701E985F09121
:100CD000436AEF23FA95F093436AE2110DCC88C082
:100CE000E701E985F091936CF211EF1305CC0895BB
:100CF0000895E091946CE0FFFFCB0895E091946C2F
:100D0000E0FD04C08091446A8211F6CB0895F7DEBD
:100D1000A991B9910D010128AE17BF07021051F436
:100D2000F0DEA991B9910D010128AE17BF0702109D
:100D300009F40895E1CBD32DCE2DA2E1B0E0EBDE96
:100D4000F32DEE2D7396A193B193C193D193D32D2F
:100D5000CE2D87E16DDFE9930895DF93CF93C82F00
:100D60000E949018EF91FF91A193B193C193D193F9
:100D7000EF010895CE2DCA9504C0C4E602C0CDE7A8
:100D800000C0D32D888181608993089501900A1253
:100D9000AECB01900B12ABCB01900C12A8CB019003
:100DA0000D12A5CB0895E3E0E093396AE0E0F4E7A3
:100DB0008F01E0E0F5E77F01F0E7DF2EF2E73F2E5D
:100DC0002092946C2092456AE4E0ECBB08D11DD0DF
:100DD0000FC0E7990895FF2DE2E0808180FD01D0EA
:100DE0000895E091486AE211EA95E093486A08950F
:100DF000E0914801FFE0F491F093436A2092486A41
:100E00000895EFE0E093486A08952092446A0895B7
:100E1000F32DE0E02082F32DE9E12082E2E320825D
:100E2000EBE42082E4E62082EDE720820895F0E7FB
:100E3000DF2EF2E73F2E15CBE4E1F9E62192E03315
:100E4000E9F708952092480120924901E1E0E093FA
:100E500043010895E0E8F9E62FC1E4E8F9E62CC182
:100E6000E8E8F9E629C1E0E9F9E626C1ECE8F9E6A7
:100E700023C1E4E9F9E620C1E8E9F9E61DC1E09102
:100E80002A6A20922A6AE21132CB0895E7990895DE
:100E9000DF2DC5E0E881F0912B6AF395E0932B6A92
:100EA000EF1709F40895E29A1DCBDF2DC0E0ED8520
:100EB000E093396AE7999FC0EB85E77FF9E00C94EE
:100EC000EE1502D0E5DE34C0E0910068F0910168D3
:100ED000C3E301D015C0DF2DEC2E888199819F3F9F
:100EE00049F4803051F08F3F51F00090456A8015F1
:100EF00021F005C08E179F0711F40F900F900895F1
:100F0000CAE1DF2DEC2E80E090E0E0E0F9E6099008
:100F10001190802901249029E830C9F7803011F020
:100F20009211EACAE0E009F0E1E0E093946C0895E0
:100F3000E701EA8102C0E701E885E13120F4F0E051
:100F4000E65EFD4E0994D8CA2092936C20928F6C75
:100F5000ECB3E260ECBB089501D037C0E0E0F9E605
:100F60000E949315EF010E947F15E993F9930E9467
:100F70008115E993F9930E947A18E993F9930E94F5
:100F80007D18E993F9930E948315E993F9930E94E0
:100F90008515E993F99382E0E0DE81E0DEDE83E00F
:100FA000DCDE84E0DADE87E0D8DE85E0D6DE86E0CF
:100FB000D4DEE0E1F1E180E139DEE8E1F0E0E9935F
:100FC000F993E0910A68E993089509D081E0899343
:100FD000E8E0F9E68CE02ADE299229920895C6E934
:100FE000DCE6E0E0F9E688E021CE0C943B1989E6E6
:100FF000FCDF0C9480128DE2F8DFE8E0F8E0EEDD33
:101000002CDF0C9480127ADEE7012A9680DE46DE21
:10101000F8DE82E5EADFBDCD6CDE40DE83E7E5DFAA
:101020008BE080939E6CCFE9DCE68EE00E946D1829
:101030006091146D7091156D0E94D91960939F6C29
:101040007093A06C6091236A7091246A6093A16C84
:101050007093A26C6091256A6093A36CEBDD50CA1B
:1010600083E7C3DFC6E9DCE688E10E946D1880E112
:101070008093966C6091146D7091156D0E94D919D2
:101080006093976C7093986C6091236A7091246A56
:101090006093996C70939A6C6091256A60939B6CD5
:1010A000C9DD2ECAECE32398F894AFE1BAE6ADBFF0
:1010B000BEBFB3DDA895FECF80819181019680836C
:1010C000918328F48281938101968283938308958A
:1010D000019009928A95E1F7089529928A95E9F796
:1010E0000895E0E0FFE80990E025E0818A95D9F7CE
:1010F000EE230895E0E0F0E00895E0E0F0E00895E8
:10110000EFE6FCE60E94B715CFE4DAE60E94B915D7
:10111000EFE4FCE60E94B715CFE4DAE60C94B915CB
:10112000EFE6FCE60E94BB150C94AB15799FE0013D
:10113000689FD001699FB00DC11DD21D789FB00D71
:10114000C11DD21D089580E404C080E202C080E188
:1011500000C0C083D1838283238224822582BDCFB5
:101160000DD007C00BD003C009D0AA0FBB1FAA0F18
:10117000BB1FAA0FBB1FAA0FBB1F0895B381A0817D
:10118000AB0FB181B21DDC91CC93A481B581AD1BB5
:10119000B209AC0FB21DA483B583C281D381D395AC
:1011A000DC1708F0DD27D38308952298349BFECF07
:1011B00008953499FECF0895B39904C0E5E5B19B35
:1011C0000C94B51507C0442455240895AA98089591
:1011D000AA9A0895E0914408E7FF0895E091400835
:1011E000E093007608958F93892F0AD08F9108C0DD
:1011F0008F93892F05D08F9100C002D08CE23BC025
:1012000001D003C08F93829501C08F938F70805D52
:101210008A3308F0895F2FD08F9108958AE02BD010
:101220008DE029C00F01451451F0F0914408F5FFFD
:1012300006C0F7E7E52DF081F09342085394F001E2
:101240000895451459F0F0914408F5FFFACFF7E7F7
:10125000E52DF081F09342085394F3CF0895C42D07
:10126000D7E70190002029F00882C395C511F9CF76
:10127000CA954C2ED8CF0F01F201FA95EF1719F04D
:10128000F7E780834394CFCF8F938E2FF201FA95A7
:10129000EF1719F0F7E7808343948F9108958991B0
:1012A000ACDF9A95E1F7089589918211881308952A
:1012B000E2DFFACFC8ECD2EBF7DF80910A68A0DF5B
:1012C000C8EDD2EBF1DFBDCF0A0D1B5B34346D2EC0
:1012D0002E2E5B424C442D005D1B5B6D0A0D000001
:1012E000C8EED2EBE1DFADCF0A0D1B5B34336D2EC0
:1012F0002E2E5B5550445D1B5B6D0A0D0000C0E156
:10130000D3EBD2DFC0E0D8E690E1C9DF87DF99CF29
:101310000A0D1B5B34326D2E2E2E5B4150505D1B2F
:101320005B6D202D2000E0914B6AF0914C6AEF2B11
:101330000895CF93C0914B6AC21106C0C0914C6A08
:10134000C21102C0CF9103C0CF9188940895CF936A
:10135000C2E0C0930A06C1E0C0930D06C191C093DC
:101360000006C191C0930206C191C0930306C191CA
:10137000C0930406C191C0930C06C191C0930806A6
:10138000C191C0930106C191C093A000C191C093C7
:101390004B6AC191C0934C6AC191C0930B06C19135
:1013A000C0930A06E0934D6AF0934E6ACF91089479
:1013B0000895769567957695679576956795769570
:1013C00067958091061190910711861B970B60918C
:1013D000041170910511AADEC695B795C695B7950B
:1013E000C695B795C695B7957C2F6B2F0895E4EFFA
:1013F000F3EBADCF1106000001050080006D010088
:1014000001070080046D0001010B0080086D0001E0
:1014100001050080026D010001070080066D0001DA
:10142000010B00800A6D0001010B0080496A010078
:10143000010B0080106D000101070080496A010066
:10144000010700800E6D000101050080496A01005E
:10145000010500800C6D000101040080126D010087
:1014600001420081146D010000000080126D000235
:1014700052C07BC096C0A9C0B2C0BBC0BCC0BDC07A
:10148000BEC0BFC0C0C0C1C0C2C0C3C0C4C0C5C050
:10149000C6C0C7C0C8C0C9C0CAC0E3C0E4C0E9C0B4
:1014A000EAC0EEC0EFC0F0C0F1C0F2C0F3C0F4C0BB
:1014B000F5C0F6C0F7C0F8C0F9C0FAC0FBC0FCC068
:1014C0000AC10BC10CC10FC112C115C118C11BC18A
:1014D0001EC121C124C127C12AC12DC130C133C1C0
:1014E00036C139C151C152C153C17AC18FC1ABC1DB
:1014F000ADC1BDC1BEC1C1C1C4C1C7C1CAC1CDC1D9
:10150000D0C1D3C1D6C1D9C1DCC1DFC1E2C1E5C1FF
:10151000E8C1EBC1EEC1E4E0E093A704F12FE5E6FA
:10152000478142954F70ED9943954EBB44814C7F66
:101530004DBB40910D6D440F42E308F04181539B38
:10154000EE9B40E04B3F08F04BEF4093A3064381F6
:101550004F704093356A440F440FF42F440F4F0FE0
:101560004093366A44DF51E0CEC1E4E0E093A70443
:1015700020920508209206083092426A44E0E8EB87
:10158000F2E0F3D2E091200AE43BE0F32092000A7B
:10159000E0E4F2E0E093200AF093210AE89A52E0B6
:1015A000B5C1E4E0E093A704DF93CF93E0E0FFE868
:1015B000D091426ACCE44991E427E081C336D9F75F
:1015C000E883CF91DF9153E09EC1E4E0E093A7046C
:1015D000F32DECE42192E436E9F754E097C1FF2DB6
:1015E000ECE6408142954F70F32DEDE5408355E0E8
:1015F0008AC156E08BC157E086C158E087C159E0E7
:1016000082C15AE083C15BE07EC15CE07FC15DE0E6
:101610007AC15EE07BC15FE076C150E177C151E104
:1016200072C152E173C153E16EC154E16FC1F32D38
:10163000EFE54081EC994064E091376A2092376A87
:10164000E2FD446052994061E3FD48605399406275
:10165000EFE54083E9E0E0935204E093530455E161
:1016600052C156E153C1EEB3EA95EEBB22F057E109
:101670004AC156E14BC1FF2DECE6E081EF70EFBBB4
:10168000E0E01CC0E1E01AC0E2E018C0E3E016C0F0
:10169000E4E014C0E5E012C0E6E010C0E7E00EC0F0
:1016A000E8E00CC0E9E00AC0EAE008C0EBE006C0F0
:1016B000ECE004C0EDE002C0EEE000C04FB34E1716
:1016C00009F44EC04E2FFF2DE359F081E35500C0C1
:1016D000E093316AFEBB59E210C1539511C1539595
:1016E000F79B0BC110C15395F79B0AC10FC15395CE
:1016F000F69B03C108C15395F69B02C107C15395E0
:10170000F59BFBC000C15395F59BFAC0FFC05395F4
:10171000F49BF3C0F8C05395F49BF2C0F7C0539507
:10172000F39BEBC0F0C05395F39BEAC0EFC0539519
:10173000F29BE3C0E8C05395F29BE2C0E7C053952B
:10174000F19BDBC0E0C05395F19BDAC0DFC053953D
:10175000F09BD3C0D8C05091316AF09BD1C0D6C0A5
:10176000F32DECE440910D6D44874091016D42876B
:101770004091036D438740910F6D45874091116DF6
:1017800046874091136D47875BE3BDC05395BEC04C
:10179000EB993DC0ED9901C0BECE5DE3FF2DEBE6B8
:1017A0004081F32DECE54083407E4695E42F46953D
:1017B0004E0FE0E7F2E0E40FF21DE093336AF0939E
:1017C000346AE8E0F7E04091336AE41B4091346A00
:1017D000F40B40E0C3D1E091336AF091346AB3C0B6
:1017E0005395FF2DEBE64081440F440F440FE0E991
:1017F000FAE2E40FF21DE40FF21DE40FF21D409136
:10180000336AE41B4091346AF40BC9C084CEEA9970
:1018100004C040E4ECE5F1E003C040E8ECE5F1E0B1
:101820004093306AE0932C6AF0932D6AF695E79521
:10183000E0932E6AF0932F6AEEE7E093326A40E479
:101840004093316A14C0E091306AE770E091306AE9
:10185000E15050F0E093306AE091326AFF2D4191FF
:101860004EBBE093326A08C0E0E0E093316A52E494
:1018700044C05091316A44C053E45395F09B49C031
:1018800052C05395F09B4AC053C05395F19B41C041
:101890004AC05395F19B42C04BC05395F29B39C04F
:1018A00042C05395F29B3AC043C05395F39B31C05D
:1018B0003AC05395F39B32C03BC05395F49B29C06B
:1018C00032C05395F49B2AC033C05395F59B21C079
:1018D0002AC05395F59B22C02BC05395F69B19C087
:1018E00022C05395F69B1AC023C05395F79B11C095
:1018F0001AC05FE3F79B12C01BC0E0EEFAE023C002
:10190000E0EEFAE036C0E0E7F5E01DC0E0E7F5E024
:1019100030C0E0912C6AF0912D6A15C0E0912C6ADC
:10192000F0912D6A26C0E0912E6AF0912F6A0BC0CB
:10193000E0912E6AF0912F6A1CC0E0EEFAE042C0FE
:10194000E0E7F5E03FC0EC9916C0EF9B3BC0E093A9
:10195000360AF093370A4FEF40933B0A40933D0A13
:101960004091366A40933A0A20923B0AF401CFBE76
:101970000895EC99EACFEF9B25C0E093360AF093E7
:10198000370A4FEF40933B0A40933D0A4091366A35
:1019900040933C0A20923D0AF401CFBE0895EF9B8C
:1019A00011C0E093360AF093370A20923A0A209247
:1019B0003B0A4091366A40933C0A20923D0AF4016A
:1019C000CFBE0895E093360AF093370A4FEF409365
:1019D0003A0A40933B0A40933C0A40933D0AF40183
:1019E000CFBE08951EC04CC079C091C0B2C0B1C076
:1019F000B0C0AFC0AEC0ADC0ACC0ABC0AAC0A9C083
:101A0000A8C0A7C0A6C0A5C0A4C0A3C0A2C0A1C0B2
:101A1000A0C09FC09EC09DC09CC09CC0F401CFBE12
:101A20000895ECE4E093416AE0E8E0930608E0E81A
:101A3000E0930508E8E0F7E04091336AE41B409149
:101A4000346AF40BE0933E6AF0933F6AE0933C6A99
:101A5000F0933D6AE1E0E093160BE093150BE998F3
:101A6000EBE0E0933504E0E0FFE04091336AE41BF3
:101A70004091346AF40BE093280AF093290ACECF00
:101A800040913C6AF0913D6AE0913E6A4E1BE091C4
:101A90003F6AFE0BF6954795F6954795F69547955F
:101AA000E4E5F32D4083F32DEFE54081E9994160B2
:101AB0004083E0EAF1E14091336AE41B4091346AEB
:101AC000F40BE0933E6AF0933F6AE0933C6AF09334
:101AD0003D6AE093280AF093290AA0CFE998EBE049
:101AE000E0933504E1E0E093160BE093150BE0E79B
:101AF000F7E14091336AE41B4091346AF40BE093C0
:101B0000280AF093290AEEE4E093416A87CF4091D6
:101B10003C6AF0913D6AE0913E6A4E1BE0913F6A5B
:101B2000FE0BF6954795F6954795F695479511F472
:101B300020920608E5E5F32D4083F32DEFE5408183
:101B4000E999426040832092150BFFEFF093390A28
:101B500065CF64CFFFEFF093390A60CF4093406ABE
:101B6000E093380AF093390A08954093406AE0936D
:101B7000280AF093290A0895FF0F4795FF0F47950C
:101B8000FF0F4795FF0F4795FF0F4795FF0F4795AD
:101B9000FF0F4795FF0F47950895FFFFFFFFFFFFDA
:00000001FF
; 
; *** EOF 
