@ba12 ; Affinity 
@bb01 ; MemBank 
@bc03 ; Command 
:020000020A00F2
:100000006CC1000081E05AC182E058C183E056C152
:10001000F2C0000085E052C186E050C179D082C0B4
:1000200088E04CC18BD08EC08AE048C18BE046C1CD
:10003000E8C00000E9C000008EE040C18FE03EC192
:1000400080E13CC181E13AC182E138C1E8C00000F1
:1000500084E134C185E132C186E130C187E12EC13E
:100060009DC0000089E12AC18AE128C18BE126C137
:100070008CE124C178C000008EE120C18FE11EC157
:1000800080E21CC181E21AC182E218C183E216C17A
:1000900084E214C185E212C186E210C187E20EC17A
:1000A00088E20CC189E20AC18AE208C18BE206C17A
:1000B0006FC000008DE202C18EE200C18FE2FEC07F
:1000C00080E3FCC081E3FAC082E3F8C083E3F6C0BA
:1000D000B1C0000085E3F2C086E3F0C087E3EEC064
:1000E00088E3ECC089E3EAC08AE3E8C08BE3E6C0BA
:1000F0008CE3E4C08DE3E2C08EE3E0C08FE3DEC0BA
:1001000001002FC102010000354AFF68FEAB0F0E4F
:1001100031E030930B0AF89902C0F89A18953F9194
:100120003F911895CFB64F01E52FE33520F4F0E06D
:10013000E858F44E0994EFE00C94DC1830E1309369
:100140000B0A1895CFB64F01E091566AE395E093FC
:10015000566AEA95EE3120F4F0E0ED54F04E099441
:10016000E0E10C94DC187FB660900B0038E062FE92
:1001700003C0309352045A9A63FE03C03093530471
:100180005B9A30914A6A362930934A6A7FBE189545
:1001900038E030933504E99A3D9A18953F01E09193
:1001A0006A6AF0916B6A30911006319330911106B2
:1001B0003083E0916C6AF0916D6A319130930C0656
:1001C000319130930806319130930106319130938B
:1001D000A000319130936A6A319130936B6A31910A
:1001E00030930B06319130930A06E0936C6AF093DA
:1001F0006D6AF30118953F01E1E0E0935301F301CB
:1002000018953F01F501099460901C0B70901D0B2F
:100210006092526A7092536A2092150B18953F01B2
:1002200030910008E091576AF32D3193E093576ABB
:10023000F30118953F013091610832FD18C03091EB
:100240006008E32FFFB7E227FFBFFFE02081F8013E
:100250003193F091516AEF1301C0E4980E2FE49BA3
:1002600004C0FD2D318130936208F3011895E498A4
:10027000239822982092050B209265082092660808
:10028000E598E29AE19AF12FE1E03FEF30833FB742
:10029000E0918C69F0918D693196E0938C69F093CF
:1002A0008D6948F4E0918E69F0918F693196E09301
:1002B0008E69F0938F693FBFF3011895F8942398E6
:1002C000229820926508209266082092000AE7E0B2
:1002D000E093020AE82F0C94DC18A895F8942224E5
:1002E000E8EDE4BFE5E8E0930110E8EDE4BF20921B
:1002F0001001EFE1FAE6EDBFFEBFE0E0FAE6C0E094
:10030000DEE021922197E9F7A091C268A03110F0B8
:10031000EBE17DC4B0E0BA9FF001B6E0BA9FF00D0A
:10032000E05AFF4FE093286AF093296AAF50A195F5
:10033000B0E0BA9FF001B6E0BA9FF00DE0932A6AF0
:10034000F0932B6AE8E0E0931104E0933504E0E0D9
:10035000F8E02682A0E8B1E0A087B187A0E0A583FD
:10036000A3E0A78301982598E0EAF0E0A5E8A08340
:10037000A1E8A28389988A98819A829AE0E0F6E0BF
:10038000A1E1A083A0E0A183A6E0A283A0E0A383D3
:10039000A0E0A483A2E4A087A1E0A2872092A20605
:1003A0002092A306E1E4E093A00620926508209243
:1003B0006608A4E0A093E605E0E8E0939104E093EA
:1003C0009204E0E0FAE02082A6E0A283BFEFB0A7AB
:1003D000B1A7B2A7B3A7B4A7B5A7B6A327A220A277
:1003E00021A2A3E6A183AFEFA387A1E1A287209278
:1003F000D001A0EAA093D101AAE0A093D201A0EC81
:10040000A093D301A1E4A1E0A093C001E0E0FBE050
:100410002082A0E0A1832582E0E1FBE0A5E1A083AA
:10042000A2E0A1832582A1E5A483A1E4A093100208
:10043000A1E0A0934102A0E8A0931102A2E0A09342
:100440002C02A0915101A0FDFCCFA1E2A09350018C
:10045000A1E0A0935201A0910A06A0FDFCCFE0917B
:100460001006E0911106E295EF70E395E093266A9D
:100470003BD011D4A895E8EDE4BFE5E0E09300019E
:1004800090D792D7CCD60E942F1B0E944F1A7894F7
:1004900076C013C681C080C01DC67EC07DC07CC032
:1004A0007BC07AC079C078C077C076C075C074C090
:1004B00073C045C600C082E3FED5E701EB8114D0CE
:1004C000EC81E0934C6AC4EBDCE688E190D681E1F4
:1004D0008093B46C8091266A8093B56C8091276A72
:1004E0008093B66C01D45CC0EF70E093276AE2950C
:1004F000F894F0910800FF70FE2BF09308007894B8
:1005000008952092007020921970209232702092EB
:100510004B702092647020927D7020920071209226
:1005200019712092327120924B7120926471209245
:100530007D71209200722092197220923272209264
:100540004B722092647220927D72209200732092EE
:1005500019732092327320924B732092647320920D
:100560007D730895EBEF33943E220895EBEFD3941F
:10057000DE220895E1E0F12E1E27089508956ED43D
:10058000FDDF0EC0A0D4D3D483E26AD709C09BD4C8
:10059000CBD48EE765D704C096D4BDD48EE200C01C
:1005A000EFE1FAE6EDBFFEBF03D740D793D306D005
:1005B000ACD4C7D4D5D487D438D0DEC4E599FECF27
:1005C000E1999FDFDBD2E099FECFD4DFE79BCADF62
:1005D000E69BCCDFECB3E973ECBBA8952092000B53
:1005E00020920A0B20920B0BE1E0E093060BE093C4
:1005F000050BE0E8E0936508EAECE093660898D61E
:1006000093D6E3E0F1E0F8943199FECFF093000A3D
:10061000E093000BE59AE09A20924D6A7894FF2DC2
:10062000E1E0E081E7FDE79A0895CBEFD32DD39584
:10063000DC23C0E080E0DBC5E0E0F6E0E0930C0BFB
:10064000F0930D0BE1E0E093060BE1E7F3E15F01CE
:10065000E0E8E093650830916008309160083091DF
:100660006008E8E1E093516A222DE0E0FD2D319130
:100670000E2F30FF32C0239AE49A3191E081319BF2
:1006800026C0319B24C0319B22C0319B20C0319BAE
:100690001EC0319B1CC0319B1AC0319B18C0319BBE
:1006A00016C0319B14C0319B12C0319B10C0319BCE
:1006B0000EC0319B0CC0319B0AC0319B08C0319BDE
:1006C00006C0319B04C0319B02C0319B00C03093F7
:1006D0006208E0936208F3011895E498F301239807
:1006E0001895F12FE1E0E081E7FDE69A229AE0E03B
:1006F000F6E0E0930C0BF0930D0BE1E0E093060BBA
:10070000ECECF3E15F01E0E8E0936508309160080C
:100710003091600830916008E1E3E093516A222D46
:10072000E9E1FD2D31910E2F30FF32C0239AE49A7A
:100730003191E081319B26C0319B24C0319B22C086
:10074000319B20C0319B1EC0319B1CC0319B1AC005
:10075000319B18C0319B16C0319B14C0319B12C015
:10076000319B10C0319B0EC0319B0CC0319B0AC025
:10077000319B08C0319B06C0319B04C0319B02C035
:10078000319B00C030936208E0936208F301189532
:10079000E498F30123981895E0E0F6E0E0930C0B61
:1007A000F0930D0BE1E0E093060BE1E2F4E15F0171
:1007B000E0E8E0936508309160083091600830917E
:1007C0006008EAE4E093516A222DE2E3FD2D3191C5
:1007D0000E2F30FF32C0239AE49A3191E081319B91
:1007E00026C0319B24C0319B22C0319B20C0319B4D
:1007F0001EC0319B1CC0319B1AC0319B18C0319B5D
:1008000016C0319B14C0319B12C0319B10C0319B6C
:100810000EC0319B0CC0319B0AC0319B08C0319B7C
:1008200006C0319B04C0319B02C0319B00C0309395
:100830006208E0936208F3011895E498F3012398A5
:100840001895E0E0F6E0E0930C0BF0930D0BE1E07F
:10085000E093060BE6E7F4E15F01E0E8E09365086A
:10086000309160083091600830916008E3E6E093D1
:10087000516A222DEBE4FD2D31910E2F30FF32C055
:10088000239AE49A3191E081319B26C0319B24C0A8
:10089000319B22C0319B20C0319B1EC0319B1CC0AC
:1008A000319B1AC0319B18C0319B16C0319B14C0BC
:1008B000319B12C0319B10C0319B0EC0319B0CC0CC
:1008C000319B0AC0319B08C0319B06C0319B04C0DC
:1008D000319B02C0319B00C030936208E0936208F4
:1008E000F3011895E498F30123981895E0E0F6E0F9
:1008F000E0930C0BF0930D0BE1E0E093060BEBECB7
:10090000F4E15F01E0E8E093650830916008309120
:10091000600830916008ECE7E093516A222DE4E62C
:10092000FD2D31910E2F30FF32C0239AE49A319180
:10093000E081319B26C0319B24C0319B22C0319B7A
:1009400020C0319B1EC0319B1CC0319B1AC0319B03
:1009500018C0319B16C0319B14C0319B12C0319B13
:1009600010C0319B0EC0319B0CC0319B0AC0319B23
:1009700008C0319B06C0319B04C0319B02C0319B33
:1009800000C030936208E0936208F3011895E49880
:10099000F30123981895E0E6FEE1E0930C0BF09349
:1009A0000D0BE1E0E093060BE0E2F5E15F01E0E82A
:1009B000E0936508309160083091600830916008DC
:1009C000EDEFE093516A222DEDE7FD2D31910E2FD1
:1009D00030FF32C0239AE49A3191E081319B26C0E6
:1009E000319B24C0319B22C0319B20C0319B1EC053
:1009F000319B1CC0319B1AC0319B18C0319B16C063
:100A0000319B14C0319B12C0319B10C0319B0EC072
:100A1000319B0CC0319B0AC0319B08C0319B06C082
:100A2000319B04C0319B02C0319B00C030936208EF
:100A3000E0936208F3011895E498F3012398189560
:100A4000F091296AE091286AE0930C0BF0930D0B6A
:100A500020926508E1E0E093060BE3E3F5E15F0136
:100A6000F30123981895E0E0F6E0E0930C0BF09387
:100A70000D0BE1E0E093060BE2E8F5E15F01E0E851
:100A8000E09365083091600830916008309160080B
:100A9000E3E6E093516A222DEBE4FD2D31910E2F18
:100AA000239AE49A3191E081319B26C0319B24C086
:100AB000319B22C0319B20C0319B1EC0319B1CC08A
:100AC000319B1AC0319B18C0319B16C0319B14C09A
:100AD000319B12C0319B10C0319B0EC0319B0CC0AA
:100AE000319B0AC0319B08C0319B06C0319B04C0BA
:100AF000319B02C0319B00C030936208E0936208D2
:100B0000F3011895E0912A6AF0912B6AE0930C0B9F
:100B1000F0930D0B20926508E1E0E093060BE5E908
:100B2000F5E15F012398F3011895E0E0F6E0E0932A
:100B30000C0BF0930D0BE1E0E093060BE2EBF5E11B
:100B40005F01309160083091600830916008E0E802
:100B5000E0936508E498ECE7E093516A222D05E6FE
:100B6000F301189520926508209266082092050BE3
:100B70002092000B2398E598F3011895E49801E082
:100B8000E8E0E093516A222DE0E1F2E0E0930C0B03
:100B9000F0930D0BE1E0E093060BECE1F3E15F0174
:100BA00008950C9410000C9411000C9412000C94F5
:100BB00013000C9414000C9415000C9416000C9463
:100BC00017000C9418000C9419000C941A000C9443
:100BD0001B000C941C000C941D000C941E000C9423
:100BE0001F000C9420000C9421000C9422000C9403
:100BF00023000C9424000C9425000C9426000C94E3
:100C000027000C9428000C9429000C942A000C94C2
:100C10002B000C942C000C942D000C942E000C94A2
:100C20002F000C9430000C9431000C9432000C9482
:100C300033000C9434000C9435000C9436000C9462
:100C400037000C9438000C9439000C943A000C9442
:100C50003B000C943C000C943D000C943E000C9422
:100C60003F000C9440000C9441000C9442000C9402
:100C700043000C9444000C9445000C9446000C94E2
:100C80004700E2E0F2E000C0EF23F0950090506AE8
:100C90000F22E02906C0E0E004C0EFEF02C0EBE065
:100CA00000C0E093506A00C0E091506A0C94DB15DC
:100CB000EF23F09500904F6A0F22E02908C0E0E092
:100CC00006C0E5E504C0EFEF02C0EFEF00C0E0931F
:100CD0004F6A00C0E0914F6A0C94D9150C94F71834
:100CE0000C94F2180C940019A0D0E4EBFCE687E118
:100CF000F7DF88C09AD0E4EBFCE68DE0F1DFE7E4B3
:100D0000F8E683E0EDDF83E0E9DF70C08ED0D32D1D
:100D1000CEE780E8E0E0F9E6E3DF07C086D005C073
:100D200089D083D0E4EBFCE603C084D07ED0F70109
:100D30008FE0D6DFD32DCEE7AFE7B0E03EDFF32D77
:100D4000EE2D3F96A193B193C193D1934FC0E7018C
:100D500088E1C8DF09F408951ACCE701A2E1B0E008
:100D60002CDFF70173966DC0DF2DCEE7AFE7B0E063
:100D700024DFF7013F9665C0E091676AE2110CCC71
:100D8000E701E985F091626AEF23FA95F093626AD0
:100D9000E21102CC88C0E701E985F091B26CF21152
:100DA000EF13FACB08950895E091B36CE0FFF4CB14
:100DB0000895E091B36CE0FD04C08091636A8211F4
:100DC000EBCB0895EEDEA991B9910D010128AE1784
:100DD000BF07021051F4E7DEA991B9910D01012876
:100DE000AE17BF07021009F40895D6CBD32DCE2D30
:100DF000A2E1B0E0E2DEF32DEE2D7396A193B19364
:100E0000C193D193D32DCE2D87E16CDFE993089563
:100E1000DF93CF93C82F0E941F19EF91FF91A193E9
:100E2000B193C193D193EF010895CE2DCA9504C01B
:100E3000C4E602C0CDE700C0D32D888181608993CC
:100E4000089501900A12A3CB01900B12A0CB019040
:100E50000C129DCB01900D129ACB0895E3E0E09324
:100E60004F6AE0E0F4E78F01E0E0F5E77F01F0E7AB
:100E7000DF2EF2E73F2E2092B36C2092646AE6ECFC
:100E8000ECBB13D11DD00FC0E7990895FF2DE2E010
:100E9000808180FD01D00895E091676AE211EA95B2
:100EA000E093676A0895E0914801FFE0F491F093C0
:100EB000626A2092676A0895EAE0E093676A08959B
:100EC0002092636A0895F32DE0E02082F32DE9E19A
:100ED0002082E2E32082EBE42082E4E62082EDE758
:100EE00020820895F0E7DF2EF2E73F2E0ACBE4E1FF
:100EF000F9E62192E033E9F7089520924801209223
:100F00004901E1E0E09343010895E0E8F9E65EC1BC
:100F1000E4E8F9E65BC1E8E8F9E658C1E0E9F9E69A
:100F200055C1ECE8F9E652C1E4E9F9E64FC1E8E958
:100F3000F9E64CC1E0912C6A20922C6AE21127CB91
:100F40000895E7990895DF2DC5E0E881F0912D6AB5
:100F5000F395E0932D6AEF1709F40895E29A12CB06
:100F6000DF2DC0E0ED85E0934F6AE799AAC0EB85DD
:100F7000E77FF9E00C94441602D0E9DE34C0E0913A
:100F8000C068F091C168C3E301D015C0DF2DEC2E1D
:100F9000888199819F3F49F4803051F08F3F51F013
:100FA0000090646A801521F005C08E179F0711F428
:100FB0000F900F900895CAE1DF2DEC2E80E090E0B5
:100FC000E0E0F9E609901190802901249029E830A9
:100FD000C9F7803011F09211DFCAE0E009F0E1E0DA
:100FE000E093B36C0895E701EA8102C0E701E88568
:100FF000E23120F4F0E0E75BFD4E0994CDCA209287
:10100000B26C2092AE6CECB3E260ECBB089501D000
:1010100042C0E0E0F9E60E94E515EF010E94D1151B
:10102000E993F9930E94D315E993F9930E94091962
:10103000E993F9930E940C19E993F9930E94D5154D
:10104000E993F9930E94D715E993F99382E0E0DEE2
:1010500081E0DEDE83E0DCDE84E0DADE87E0D8DE1D
:1010600085E0D6DE86E0D4DEE0E1F1E180E138DE45
:10107000E8E1F0E0E993F9932196E0E0F1E183E023
:101080002FDE809102688993809100688993809116
:1010900001688993089509D081E08993E8E0F9E631
:1010A0008CE01EDE299229920895C4EBDCE6E0E094
:1010B000F9E688E015CE0C94301A89E6FCDF0C9432
:1010C000D0128DE2F8DFE8E0F8E00E94441620DF5D
:1010D0000C94D0126EDEE7012A9674DE3EDEECDE62
:1010E00082E5E9DFA8CD60DE38DE83E7E4DF8BE070
:1010F0008093BC6CCDEBDCE68EE00E94F71860912B
:10110000146D7091156D0E94B31A6093BD6C70934D
:10111000BE6C6091236A7091246A6093BF6C709377
:10112000C06C6091256A6093C16C6091276A60937E
:10113000BA6C60911F6D6093BB6CD6DD31CA83E7DA
:10114000BADFC4EBDCE688E10E94F71880E1809307
:10115000B46C6091146D7091156D0E94B31A609318
:10116000B56C7093B66C6091236A7091246A609339
:10117000B76C7093B86C6091256A6093B96C60919C
:10118000276A6093BA6C60911F6D6093BB6CACDD95
:1011900007CAF894DAD0F894EAD00C941B16F894A5
:1011A000CAD0DBD00C941B160E944F16F894A89559
:1011B000FFCF0C941D16ECE32398F894AFE1BAE648
:1011C000ADBFBEBF0E946716A895FECF80819181FA
:1011D00001968083918328F4828193810196828392
:1011E00093830895019009928A95E1F708952992D1
:1011F0008A95E9F708952082218222822382089528
:10120000E0E0FFE80990E025E0818A95D9F7EE2338
:101210000895E0E0F0E00895E0E0F0E00895EEE801
:10122000FCE60E940916CEE6DAE60E940B16EEE610
:10123000FCE60E940916CEE6DAE60C940B16EEE800
:10124000FCE60E940D160C94FD15799FE001689F45
:10125000D001699FB00DC11DD21D789FB00DC11D79
:10126000D21D089580E406C080E204C080E102C07F
:1012700088E000C0C083D1838283238224822582B8
:10128000B6CF11D00BC00FD007C00DD003C00BD00C
:10129000AA0FBB1FAA0FBB1FAA0FBB1FAA0FBB1F02
:1012A000AA0FBB1F0895B381A081AB0FB181B21DFE
:1012B000DC91CC93A481B581AD1BB209AC0FB21DFA
:1012C000A483B583C281D381D395DC1708F0DD27D1
:1012D000D38308951FD005FE0EC001800DC01AD023
:1012E00006FE09C001800AC015D007FE04C00180B7
:1012F00007C010D039F00895000C111C000C111C0F
:10130000000C111C10820FB6F894218222822382D5
:101310000FBE08951180100C11821280121C1282CF
:1013200003800394038208952298349BFECF08958E
:101330003499FECF0895C0E0D8E6A4E0B0E01FC025
:10134000C0E0D8E6A8E0B0E027C0C0E0D8E680E47E
:101350004EDFEFEFE09309680895C0E4D8E6A0E01F
:10136000B0E00DC0C0E4D8E6A4E0B0E015C0C0E431
:10137000D8E680E83CDFEFEFE093456808950E94EF
:10138000DD15F001A095B095C095D095A083B183EF
:10139000C283D383248208950E94DD15F0018083E7
:1013A0000895442455240895AA980895AA9A089562
:1013B000B39904C0E5E5B19B0C94071600C0E09119
:1013C0004408E7FF0895E0914008E093007608950F
:1013D0008F93892F0AD08F9108C08F93892F05D0C2
:1013E0008F9100C002D08CE23BC001D003C08F932C
:1013F000829501C08F938F70805D8A3308F0895F7A
:101400002FD08F9108958AE02BD08DE029C00F0155
:10141000451451F0F0914408F5FF06C0F7E7E52DBB
:10142000F081F09342085394F0010895451459F067
:10143000F0914408F5FFFACFF7E7E52DF081F0933E
:1014400042085394F3CF0895C42DD7E701900020AC
:1014500029F00882C395C511F9CFCA954C2ED8CF73
:101460000F01F201FA95EF1719F0F7E78083439423
:10147000CFCF8F938E2FF201FA95EF1719F0F7E780
:10148000808343948F9108958991ACDF9A95E1F719
:1014900008958991821188130895E2DFFACFC6EA90
:1014A000D4EBF7DFC3CF0A0D1B5B34326D2E2E2E2B
:1014B0005B4150505D1B5B6D0A0D0000C4ECD4EB2A
:1014C000E8DFB4CF0A0D1B5B34336D2E2E2E5B5537
:1014D00050445D1B5B6D0A0D0000E0916A6AF0915B
:1014E0006B6AEF2B0895CF93C0916A6AC21106C050
:1014F000C0916B6AC21102C0CF9103C0CF91889492
:101500000895CF93C2E0C0930A06C1E0C0930D06D0
:10151000C191C0930006C191C0930206C191C093CE
:101520000306C191C0930406C191C0930C06C191FA
:10153000C0930806C191C0930106C191C093A00059
:10154000C191C0936A6AC191C0936B6AC191C09303
:101550000B06C191C0930A06E0936C6AF0936D6A22
:10156000CF910894089576956795769567957695C9
:101570006795769567958091061190910711861B66
:10158000970B60910411709105115FDEC695B795B8
:10159000C695B795C695B795C695B7957C2F6B2F11
:1015A0000895EEEAF5EBADCFE2E3F6EBAACF110436
:1015B000010001050080006D010001070080046D3D
:1015C0000001010B0080086D000101050080026D23
:1015D000010001070080066D0001010B00800A6D0B
:1015E0000001010B0080686A0100010B0080106D92
:1015F000000101070080686A0100010700800E6D8C
:10160000000101050080686A0100010500800C6D81
:10161000000101040080126D010001420081146D7F
:101620000100010000851E6D0100000000801E6D9C
:1016300000021104010001050080686A0100010533
:101640000080686A000101050080686A01000105E8
:101650000080686A000100000080686A00022DBAFC
:101660002FBA552720925C6A20925D6AE0E5F1E08E
:10167000E0932E6AF0932F6AE093306AF093316A18
:10168000E0EFF0E0E093326AF093336AE093346A7B
:10169000F093356AE0E7F2E0E093366AF093376A58
:1016A000E0E3F0E0E093386AF093396AE0E3F0E0D9
:1016B000E0933A6AF0933B6AE0EBF1E0E0933C6A36
:1016C000F0933D6A2092000A2092200A2092210A7B
:1016D000E0E7F0E7E093360AF093370AEFEFE093A4
:1016E0003A0AE0933B0AE0933C0AE0933D0A0895EE
:1016F00052C076C0B2C0C5C0CEC0D7C0D8C0D9C055
:10170000DAC0DBC0DCC0DDC0DEC0DFC0E0C0E5C0E9
:10171000EAC005C109C10EC190C09DC00DC11AC16A
:101720001BC11CC11DC11EC11FC120C121C122C1BD
:1017300023C124C125C126C127C128C138C141C147
:101740004DC14EC14FC15AC165C168C16BC16EC1A7
:1017500071C174C177C17AC17DC180C183C186C1A5
:1017600089C18CC1A9C1AAC1ABC1D2C1E7C103C2A1
:1017700005C215C216C219C21CC21FC222C225C28E
:1017800028C22BC22EC231C234C237C23AC23DC2B5
:1017900040C243C246C2E4E0E093A704F12FE5E66D
:1017A000E081EF70FFE1099440915A6AF42FF370E1
:1017B000F093606A4C7F4DBB40915C6A539BEE9BFB
:1017C00040E04093A30640915E6A4770440F440F87
:1017D000F42F440F4F0F4093496AE3DE51E033C2C8
:1017E000E4E0E093A70420920508209206083092D6
:1017F000616AF091576AFE5440914E6AF2954F2B00
:10180000F32DEEE5408344E0E8EBF2E07BD4E09199
:10181000200AE43BE0F3E0914C6AE0FD0BC020922B
:10182000000AE0E4F2E0E093200AF093210AE09855
:1018300052E010C2E09854E10DC2E6E0E093566A2F
:1018400055E1E0914D6AE211FEC1E8E0E093566A8D
:1018500050934D6A02C054E1FDC1E4E0E093A70457
:10186000DF93CF93E0E0FFE8D091616ACCE4499147
:10187000E427E081C336D9F7E883CF91DF9153E0C5
:10188000E2C1E4E0E093A704F32DECE42192E43616
:10189000E9F754E0DFC1FF2DECE6408142954F703F
:1018A000F32DEDE5408355E0CEC156E0D3C157E0BE
:1018B000CAC158E0CFC159E0C6C15AE0CBC15BE014
:1018C000C2C15CE0C7C15DE0BEC15EE0C3C1E091E2
:1018D000606A5FE0E1FFB7C1E0C1E091606A50E19A
:1018E000E1FFB8C1E1C1F32DEFE54081ED9940681A
:1018F000EC994064E0914A6A20924A6AE2FD4460B1
:1019000052994061E3FD486053994062EFE540839E
:10191000E9E0E0935204E093530451E194C1409113
:10192000586A4EBB52E196C1EEB3EA95EEBB22F087
:1019300053E189C152E18EC1FF2DECE6E081EF70E9
:10194000E093446A09F49FC0E0E0FF2DE359F08181
:10195000E65529C0E1E01CC0E2E01AC0E3E018C08F
:10196000E4E016C0E5E014C0E6E012C0E7E010C015
:10197000E8E00EC0E9E00CC0EAE00AC0EBE008C015
:10198000ECE006C0EDE004C0EEE002C0EFE000C015
:101990004091446A4E1709F476C04E2FFF2DE3594B
:1019A000F081E65518C0E093436AFEBBFDDD57E2C7
:1019B000E091606AE0FD63C1E0914C6AE1FF35C1EE
:1019C00050C15AE2E091606AE0FD60C1E0914C6A6A
:1019D000E1FF32C14DC1E093436AFEBB59E225C12C
:1019E0005AE22AC1E0910D6DF091696AEF1710F487
:1019F000F0930D6D5395F79B18C125C1E0910D6DC6
:101A0000F091696AEF1710F4F0930D6D5395F79B01
:101A100013C120C15395F69B08C115C15395F69B80
:101A20000BC118C15395F59B00C10DC15395F59B92
:101A300003C110C15395F49BF8C005C15395F49BA5
:101A4000FBC008C15395F39BF0C0FDC05395F39BB9
:101A5000F3C000C15395F29BE8C0F5C05395F29BCB
:101A6000EBC0F8C05395F19BE0C0EDC05395F19BDE
:101A7000E3C0F0C05395F09BD8C0E5C05091436AD5
:101A8000F09BDAC0E7C0F32DECE440910D6D448784
:101A90004091016D42874091036D438740910F6DE6
:101AA00045874091116D46874091136D47874EE4FD
:101AB0004093576A20924E6A5BE3C5C05395CAC0F3
:101AC000EB993DC0ED9901C066CE5DE3FF2DEBE6DD
:101AD0004081F32DECE54083407E4695E42F46950A
:101AE0004E0FE0E7F2E0E40FF21DE093476AF09357
:101AF000486AE8E0F7E04091476AE41B4091486A91
:101B0000F40B40E0F8D2E091476AF091486AF5C0E2
:101B10005395FF2DEBE64081440F440F440FE0E95D
:101B2000FAE2E40FF21DE40FF21DE40FF21D409102
:101B3000476AE41B4091486AF40B0DC12CCEEA9928
:101B400004C040E4ECE5F1E003C040E8ECE5F1E07E
:101B50004093426AE0933E6AF0933F6AF695E795B8
:101B6000E093406AF093416AEEE7E093466A40E40E
:101B70004093436A14C0E091426AE770E091426A80
:101B8000E15050F0E093426AE091466AFF2D4191A6
:101B90004EBBE093466A08C0E0E0E093436A52E43B
:101BA00044C05091436A48C053E45395F09B83C0AE
:101BB0008CC05395F09B84C08DC05395F19B7BC026
:101BC00084C05395F19B7CC085C05395F29B73C034
:101BD0007CC05395F29B74C07DC05395F39B6BC042
:101BE00074C05395F39B6CC075C05395F49B63C050
:101BF0006CC05395F49B64C06DC05395F59B5BC05E
:101C000064C05395F59B5CC065C05395F69B53C06B
:101C10005CC05395F69B54C05DC05395F79B4BC079
:101C200054C05FE3F79B4CC055C0E0912E6AF09121
:101C30002F6AE05FF74F61C0E091306AF091316A3E
:101C4000E05FF74F71C0E091326AF091336AE0587B
:101C5000FB4F53C0E091346AF091356AE058FB4F76
:101C600063C0E0912E6AF0912F6AE858F64F45C0A4
:101C7000E091306AF091316AE858F64F55C0E09132
:101C8000366AF091376AE05FF74F37C0E091386A03
:101C9000F091396AE05FF74F47C0E0913A6AF091FE
:101CA0003B6AE058FB4F29C0E0913C6AF0913D6AE5
:101CB000E058FB4F39C0E0913E6AF0913F6A1DC089
:101CC000E0913E6AF0913F6A2FC0E091406AF09146
:101CD000416A13C0E091406AF091416A25C0E091E9
:101CE0002E6AF0912F6AE05FF74F49C0E091326AA7
:101CF000F091336AE058FB4F42C0EC9917C0EF9B5C
:101D00003EC0E093360AF093370A4FEF40933B0A08
:101D100040933D0A4091496A40933A0A20923B0A17
:101D2000F401CFBEF8980895EC99E9CFEF9B27C056
:101D3000E093360AF093370A4FEF40933B0A409303
:101D40003D0A4091496A40933C0A20923D0AF401C1
:101D5000CFBEF8980895EF9B12C0E093360AF09337
:101D6000370A20923A0A20923B0A4091496A4093EE
:101D70003C0A20923D0AF401CFBEF8980895E09302
:101D8000360AF093370A4FEF40933A0A40933B0AE2
:101D900040933C0A40933D0AF401CFBEF898089561
:101E00000FC03CC082C081C080C07FC07EC07DC08A
:101E10007CC07BC07AC079C078C077C076C075C0FE
:101E20000F921F92F12FE5E64091596A4093586A4C
:101E300040915B6A407F40935A6A40915F6A409349
:101E40005E6A018010905D6A019C10925C6AE0E518
:101E5000F1E0E0932E6AF0932F6AE093306AF093FA
:101E6000316AE0EFF0E0E093326AF093336AE09396
:101E7000346AF093356A1F900F9096CC0F921F92A0
:101E8000F12FE5E6478142954F70ED9943954093D8
:101E9000586A4093596A438140935A6A40935B6AF7
:101EA000418140935C6A40935D6A408142954695CA
:101EB000477040935E6A40935F6A48E1E481FE2F79
:101EC000EF70EE0FF295FF70FF0FE49F00922E6A05
:101ED00010922F6AF49F0092306A1092316AF12FAB
:101EE000E5E6E581FE2FEF70EE0FF295FF70FF0F34
:101EF000E49F0092326A1092336AF49F0092346A2F
:101F00001092356A1F900F904FCC4091596A4093C0
:101F1000586A40915B6A407F40935A6A40915F6A79
:101F200040935E6A40915D6A40935C6AE0E5F1E04F
:101F3000E0932E6AF0932F6AE093306AF093316A4F
:101F4000E0EFF0E0E093326AF093336AE093346AB2
:101F5000F093356AF12FE5E643E247834FEF408780
:101F60002186428721CC20C04EC07BC09DC0BEC010
:101F7000BDC0BCC0BBC0BAC0B9C0B8C0B7C0B6C095
:101F8000B5C0B4C0B3C0B2C0B1C0B0C0AFC0AEC0C5
:101F9000ADC0ACC0ABC0AAC0A9C0A8C0A7C0A6C0F5
:101FA000A6C0F401CFBE0895ECE4E093576AE0E8E0
:101FB000E0930608E0E8E0930508E8E0F7E04091E8
:101FC000476AE41B4091486AF40BE093546AF0932B
:101FD000556AE093526AF093536AE1E0E093160B7E
:101FE000E093150BE998EBE0E0933504E0E0FFE0C7
:101FF0004091476AE41B4091486AF40BE093280A39
:10200000F093290ACECF4091526AF091536AE09141
:10201000546A4E1BE091556AFE0BF6954795F6956E
:102020004795F6954795E4E5F32D4083F32DEFE5CD
:102030004081E99941604083E0EEF0E14091476AD8
:10204000E41B4091486AF40BE093546AF093556A9C
:10205000E093526AF093536AE093280AF093290AB6
:10206000A0CF20920608E998EBE0E0933504E0E782
:10207000F7E14091476AE41B4091486AF40BE09312
:10208000280AF093290AE091576AEC54E0934E6ACB
:10209000EEE4E093576AE1E0E093160BE093150B52
:1020A000E0E8E09306087DCF4091526AF091536AD0
:1020B000E091546A4E1BE091556AFE0BF6954795E8
:1020C000F6954795F695479511F420920608E5E5B3
:1020D000F32D4083F32DEFE54081E9994260408381
:1020E0002092150BFFEFF093390A5BCF5ACFFFEF29
:1020F000F093390A56CF4093566AE093380AF0932A
:10210000390A08954093566AE093280AF093290A01
:102110000895FF0F4795FF0F4795FF0F4795FF0F56
:102120004795FF0F4795FF0F4795FF0F4795FF0F07
:1021300047950895FFFFFFFFFFFFFFFFFFFFFFFF32
:00000001FF
; 
; *** EOF 
