:020000020000FC
:100000000C9448000C9423020C9423020C94B90124
:10001000010020C1000000003714DE685B454F92EC
:10002000D5C1D7C1D9C1DBC1F7C0E4C0C8C5C9C5F6
:10003000DBC1D8C1E0C18EC393C318C41BC4A4C321
:10004000AEC3B5C348C421C42FC498C38DC391C3E4
:10005000C1C4EFC1E3C1E8C131C336C341C342C328
:100060004AC356C36DC371C37CC4DFC0E6C073C44A
:10007000A6C3B0C38CC3CCC4D5C4E7C4E1C6E4C630
:10008000E6C6E8C6EDC6FBC60BC79DC1CDC0CCC059
:10009000F8942224E7E2F9E6EDBFFEBFE8EDF7E0D1
:1000A000E4BFF0930001A895E8EDF4E2E4BFF0931B
:1000B0006800E0914000E0934000EFBBE8EDE4BF52
:1000C000209201102BBE20B824B828B82CB820BA32
:1000D00024BAE8EDF0E6E4BFF0931001E0914101AD
:1000E000E211FCCF2092480120924901E1E0E09327
:1000F0004001E0E0E093E205E3E0E093E305ECE0BB
:10010000E093E405069A079A049AE4E0E093410933
:10011000E1E3E0934009E8E0E093B204E093B30444
:10012000E093B104E093B004E0E4F8E02682A0ECB0
:10013000B0E0A087B187A0E8A583A3E0A783A2ECE5
:10014000A683A398A198AA9AA89AA29AA09A039A79
:10015000A49AA598AD984CD05ED0F89B06C0E0E07C
:10016000F0E6AFEFA193F836E8F3E0ECF8E6FB99A0
:10017000E0E4FB99F8E6F899E0E0F899F8E62192D6
:10018000F038E8F3E0914801F0914901F230D0F302
:10019000E2E030D03CD0B39B0BC0009000900094C4
:1001A00029F0C2E009D5B5D409F460C1E1E041C14C
:1001B000E0E0FAE02082218222822382AFE0A08365
:1001C000E0E0FBE020822182AEE6B1E0A487B587C3
:1001D000A1E0A583A5E0A083BAD2BFD2789406D0CF
:1001E00016D0C2E6E0D4E0E0E9D145C0E0E002C0CC
:1001F000EFEF00C0E0FF0B9AE0FD0B98E1FFAC9A37
:10020000E1FDAC98E3FFA59AE3FDA5980895E0E031
:1002100003C0E5E501C0EFEFE093440904D003D04B
:1002200002D00F980F9A08950895F894E8EDF1E040
:10023000E0933400F0934100FFCFF894A895E8EDE7
:10024000E4BFE1E0E0930001FFCFCDD316D3968168
:10025000C1D30C92BED3CCC3C6D3BBD39781BAD380
:100260000CD309901C9001100C9211960197C9F7BC
:10027000B0D3BED30895E7E2F9E6EDBFFEBF222773
:1002800034E0EAE29BD1C091006996D43CD120349D
:1002900091F324FD10C026FFF9CFE6E3F3E00590CB
:1002A00000160590159019F4F0010995E4CFE23796
:1002B000B1F720FFEBCF003449F7622F6370613054
:1002C00029F720620DD17A3B21F46231A1F6206139
:1002D000DDCF24FFD0CF7B3B39F4693060F6C62FE9
:1002E0006BD4246031E0D2CF7C3B21F422FFC3CF1A
:1002F00098D1CCCF7F3B51F6603011F40AD0BBCF00
:10030000613009F40AD0B7CF68E08BC1C02F4BD45D
:10031000B2CF87D3E0EE52D1AECF9BD3EEEE4ED12B
:10032000AACF0053E1E00A9512F0EE0FFCCFFEB326
:10033000FE27FEBB089530910131910132910133C6
:100340009101349101359101369101379101532C7E
:100350000252130264840161860162860163860190
:100360006586016686017386017586016C860100CB
:100370003B01EFB64F01E0914408E7FF13C0E72DC2
:10038000E619E03C23FF08F0AA9AE0914108E2FD5B
:1003900082C0F0E7E72D7090400871927E2EF40144
:1003A000EFBE1895E091060BE093060B761411F45E
:1003B00042104A943A9422F4332EE8E0E093070482
:1003C000F401EFBE1895E0E0F0E00895EDE0F0E014
:1003D0000895E0E2F1EC0895E1E0F0E00895E0E254
:1003E000F1EC089503D0EDC301D0E9C3AFE0B0E074
:1003F000C0E1D1E10895F8DFA193B193C193D19306
:10040000F1DFA193B193C193D1930895DFEF672CEE
:1004100094D06710FBCF2197D9F7089517D048F0F3
:100420000895EBE001C0EAE0F7DE20924801209257
:100430004901A895F894AA98F0E208D0E8F7ECDE14
:10044000F0E404D0E8F7D2DEE2DEEFCE009048011F
:1004500000904901F0150895C0910069ADD359D3BA
:10046000C9F4CF3211F0CB32A9F4D0DF2092450885
:100470002092000A2092000B2092050B2092480146
:100480002092490193D1FE01E050F048F695E7959E
:10049000F8940994FBCEF89420924608AA98E8E0D4
:1004A000A9DEE5E5B9DEEFEFA89500C000C000C009
:1004B000E211EA95B19BF8CFE211F5CFC4CF8E2FB0
:1004C0009927AADEE8E096DEE6EA78D0F09101000E
:1004D000E2E0F3FDEAE08EDE32E0672C2ED0F6CFCC
:1004E00004D0702F02D0602F089507D002950F938B
:1004F00004D00F900029F00E089505D00F7D07530A
:1005000008F4095D089519D0421002C025FDB3CE4C
:100510007614C9F3F0E7E62D00816394206442105D
:100520002F7B26FD2F7EFBE04F2E21FF23950A30E7
:1005300011F00D3009F42C7F00C00F01A89523FDA8
:1005400006C0E72DE619E03218F4AA9801C0AA9A6D
:10055000F0010895019101D003C00F93029501C0ED
:100560000F930F70005D0A3308F0095F1BD00F91E5
:100570000895092FF0DF082FEECF0AE013D00DE029
:1005800011C0E0E0F1E1E6DFE5DFE4DF0EE20AD0F2
:1005900029DFCE01EEDFCD01ECDF26DFCE01E9DF82
:1005A000CD01E7CFD8E1C9DF0090440805FEFBCFBD
:1005B0002197B399C1F7009342080895E093016928
:1005C000FDE0E091016905910DBBE0930169002315
:1005D00091F012F0E7DFF4CFE9990ED0EA9911D04B
:1005E000EB991AD0EC99CDDFEE9913D0ED99B4D2F6
:1005F000E899C3DFE5CF0895C591E0930169DCD2A6
:1006000092C200900069109031690AE210100895BA
:10061000C9CF09E0C7DF89C2EC9BABCFEC980EB322
:100620009ACF6CBBE099BCD2E19907D0E3999CD2F8
:10063000E6991CCFE799F5CE089517D1B7D0C093AE
:100640000269D09303695FDF20FFFDCF0A33D9F73A
:100650004CDF502EF02E44DFC0910269D091036927
:10066000C60FD71F42DF003031F00130F1F0023009
:1006700069F0E4E024CFFDD008945208A0F02AD11C
:10068000E5E0C8F032DF802F0ED1F6CF29DF660F0C
:10069000771F660F771F660F771F660F771F6093B0
:1006A00002697093036903D0CECF5AD100C01DDF19
:1006B000F21411F0E6E003CF0895BBD0C2E6D3E018
:1006C00049D04EC0A8950895C487D5870895C930EC
:1006D00008F0C9E0DCE0CD9FE001C656D54708959B
:1006E000F6DFADC0C083D183C48BD58BCA0FDB1FAF
:1006F000C283D3830895A68FA895C28FD38FD5D0F8
:1007000020F0C28DD38D2197B9F70895AA27BB2772
:10071000C48FD58FEC8FFD8FA895A28FB38FC48D1A
:10072000D58DFE01B2D048F0C48DD58DFE01BCD070
:1007300020F0A28DB38D119779F708958FEF79D0BE
:10074000868FA895B2D0E8F70CC1FADF76CD71D0CC
:10075000CDEFD4E0C68BD78B08956BD0C6E0D5E043
:10076000C08FD18F089565D081D00ED018D027C208
:1007700060D07CD009D013D024C25BD0F5DF0284D6
:100780001384C015D1050895C489D5890895C489F5
:10079000D58900801180C019D10908954AD0A2815D
:1007A000B38104881588A019B109089542D0C08189
:1007B000D18108953ED0C281D38108953AD000807E
:1007C0001180C281D381C019D10909F0219600247A
:1007D000021C08957CDFFE0100801180C281D3815C
:1007E000F2CF0C2EC6EADAE81884101419F02C9611
:1007F000C630D1F70895DCE0CD9FE001C656D5475D
:100800000895CE01C6EADAE80880198080159105BE
:1008100030F00A801B808015910531F028F02C966D
:10082000C63091F70894089588940895A0E0B1E740
:100830000895E8E2F9E60895FCDFA487B5878CE027
:10084000099001928A95E1F73C97C481D58121975F
:10085000C095D095C28BD38BC081D181C687D787F5
:10086000C08BD18B278E02D07EC0E3DFC081D181C7
:1008700001C0DFDFC48BD58B089584819581A68567
:10088000B785C485D5850895D4DF25D038F0C489CF
:10089000D58950D020F08991C48BD58B08952196AD
:1008A0008FEF0894F9CFC5DF868F15D090F053D025
:1008B000C481D5812197A489B589CA23DB231196E8
:1008C000A48BB58BA485B585CA0FDB1F868D888365
:1008D00088940895AEDF0488108001140588118083
:1008E000010440F00488128001140588138001047B
:1008F00019F010F008940895889408959ADFC48937
:10090000D589A685B785CA17DB0730F0A089B189DC
:10091000CA17DB0719F010F0089408958894089519
:1009200088DFC685D78506D0A78DAE7F08F4A16085
:10093000A78F0895C034B0E1DB0748F0D63148F006
:10094000D03628F0D03828F0D03908F002C008940A
:10095000089588940895D3DF10F403D004D0089547
:1009600068DF2BD026C0C489D58902881388C021AE
:10097000D121C687D78784819581C80FD91F219738
:10098000C08BD18BCEDF40F0A685B785C485D585D9
:100990000D9009920197E1F70895078C00FC07C0BC
:1009A0006CDF09901D90011419F40197D1F7189488
:1009B0000895F3DF09F050CC0895078C00FC0895EA
:1009C0005CDF09901D90102001103FCC0197C9F702
:1009D000089590E0809102108370E1F78DE984BF63
:1009E00090930010089506880F9207880F9208953B
:1009F000008C0F92018C0F9208952860AA9AFF93A1
:100A0000F4E69BDDFA95E9F7FF910895277F95CDF0
:100A1000C2E066DE80E180930110B0DE209201101A
:100A2000089507DFEF01DFDF2DD069F09BE0D2DF13
:100A3000E895CFDF92E0CEDF00801180E895329616
:100A4000F03AD1F7C6DFFE01D3CFC2E049DE02D0D3
:100A5000F4CBEFDEFF93EF93C6DFDADF81F412D041
:100A600071F094919F3F59F09BE0B4DF0082B1DFB9
:100A700092E0B0DF04900192F03AE1F7AADFEF9143
:100A8000FF91B6CFE0E0F0E994918191891711F4DC
:100A9000F03AD1F7E0E0F0E908950000FFFF01002F
:100AA00000002D00000000A0FFFF00020802660108
:100AB0002FC10090FF9F0002080262022BC10014A8
:100AC000FF150100181265032EC180109F10200031
:100AD000080263042CC100111F11010000007305FE
:100AE0000000501058100100000075060000006062
:100AF000FF670002000061072AC140104F1001008B
:100B000000006C08000000110011010000002D0918
:100B1000000033DEA0930469B0930569C0930669B1
:100B2000D09307690895F5DF06C0E0E1E093011076
:100B3000F0DF20920110E0ED09F4E6ED0ED0909187
:100B400007698091066915DD9091056980910469B6
:100B500010DD02C0E0ED01C0ECEDFDE005910023E9
:100B600011F020DDFBCF089508DD7FDEF3DF61DECD
:100B70008489958900E1080F090FF02EE2E91EDD56
:100B800083DE38F0082FF00EE6DC53DE04890F70A8
:100B9000B9F7E0DFF1940F2DDEDC9CDE40F708951D
:100BA00064DECCDDDDCE05D00091316900930069B3
:100BB000089517DE3BDE40CE1EDE38DE3DCEE894E3
:100BC00004C06894CA0FDB1F00C0EF93FF936FEF60
:100BD0007FEFCB01FF27A8950EF019900EF41A9025
:100BE00008941794062E0F1E96958795779567950E
:100BF00000FE08C0EDEE9E27E8EB8E27E3E87E2797
:100C0000E0E26E27169471F7119728F7909580957A
:100C1000709560950E01DB01EC0186238723892303
:100C20008095FF91EF910895FFFFFFFFFFFFFFFF0A
:100D0000A1811B5B34316D2E2E2E5B524553455411
:100D10002D885DA11B5B34346D2E2E2E5B524F4D02
:100D20002E5254422E6273745D00A1814944205BAF
:100D3000905D814C3A208708523A201B5B33326D1C
:100D40004331325230303031A1533A208705553A81
:100D500020870681413A208707423A20C702433A5A
:100D6000208704453A208703463A20870181524F65
:100D70004D205B987C527C537C645D202D205B6110
:100D80007C627C637C657C667C6C7C737C755D3E80
:100D90002000813A31301B5B39346DA81B5B393040
:100DA0006D3030A0000081811B5B34356D2E2E2EFE
:100DB0005B4572726F722023885DA0202D203C62FB
:100DC0007265616B3E20746F20726573756D65008E
:100DD0001B5B39306D001B5B33326D001B5B6D009C
:100DE000A1811B5B34346D5B532D3E5D0000A181FE
:100DF0001B5B34346D5B3C2D525D0000FFFFFFFF39
:100E0000ACAAA9A5A3A69C9A999593968E8D8BB111
:100E1000B2B4B874726C6A696563665C5A595553AA
:100E2000564E4D4B4771E8E4E2D1C9C5D8D4D2CA79
:100E3000C6CC78171B1D1E2E363A272B2D3539337D
:100E40001ED00ED01CD00CC00BD019D009C017D0AA
:100E500007D015C005D0E991EF73E081ED930895B7
:100E6000E991EF70F881FF0FEE1FFF0FEE1FFEE814
:100E7000E081ED93E991EF73E081ED930895FEE851
:100E8000E881E695E695E081ED93E991E370E295DE
:100E9000F881F07FF295EF2BFEE8E081ED93089565
:100EA000FEE8E881E081ED930895FFFFFFFFFFFF7B
:100F0000005EBCE2613FDD83C29C7E20A3FD1F41E9
:100F10009DC3217FFCA2401E5F01E3BD3E6082DCD9
:100F2000237D9FC1421CFEA0E1BF5D0380DE3C62C9
:100F3000BEE0025CDF81633D7C22C09E1D43A1FFB9
:100F40004618FAA427799BC584DA3866E5BB5907A9
:100F5000DB856739BAE406581947A5FB7826C49A99
:100F6000653BD987045AB8E6A7F91B45C6987A2489
:100F7000F8A6441A99C7257B3A6486D85B05E7B979
:100F80008CD2306EEDB3510F4E10F2AC2F7193CD69
:100F9000114FADF3702ECC92D38D6F31B2EC0E5059
:100FA000AFF1134DCE90722C6D33D18F0C52B0EE49
:100FB000326C8ED0530DEFB1F0AE4C1291CF2D7339
:100FC000CA947628ABF517490856B4EA6937D58B29
:100FD0005709EBB536688AD495CB2977F4AA481619
:100FE000E9B7550B88D6346A2B7597C94A14F6A809
:100FF000742AC896154BA9F7B6E80A54D7896B35F9
:1010000087C0FFCFFFC7FFCFFFC7FFCFFFC7FFCF0F
:10101000FFC7FFCFFFC7FFCFFFC7FFCFFFC7FFCF80
:10102000FFC7FFCFFFC7FFCFFFC7FFCFFFC7FFCF70
:10103000FFC7FFCFFFC7FFCFFFC7FFCFFFC7FFCF60
:10104000FFC7FFCFFFC7FFCFFFC7FFCFFFC7FFCF50
:10105000FFC7FFCFFFC7FFCFFFC7FFCFFFC7FFCF40
:10106000FFC7FFCFFFC7FFCFFFC7FFCFFFC7FFCF30
:10107000FFC7FFCFFFC7FFCFFFC7FFCFFFC7FFCF20
:10108000FFC7FFCFFFC7FFCFFFC7FFCFFFC7FFCF10
:10109000FFC7FFCFFFC7FFCFFFC7FFCFFFC7FFCF00
:1010A000FFC7FFCFFFC7FFCFFFC7FFCFFFC7FFCFF0
:1010B000FFC7FFCFFFC7FFCFFFC7FFCFFFC7FFCFE0
:1010C000FFC7FFCFFFC7FFCFFFC7FFCFFFC7FFCFD0
:1010D000FFC7FFCFFFC7FFCFFFC7FFCFFFC7FFCFC0
:1010E000FFC7FFCFFFC7FFCFFFC7FFCFFFC7FFCFB0
:1010F000FFC7FFCFFFC7FFCFFFC7FFCFFFC7FFCFA0
:1011000001002BC1020100003714DE688BCA88BDC4
:10111000A895F8942224EFE1FAE6EDBFFEBFECE0DB
:10112000D4D4E8EDF3E0E4BFF093600000C000C069
:10113000E0916300E1FDFCCFE8EDF1E0E4BFF09366
:101140006200BBD4E0E0FAE6C0E0DEE02192219745
:10115000E9F764D409F067D473D409F076D4EFB317
:10116000E0930268E0910468E395F999E0930468DC
:10117000E0910368E395FB99E0930368E0910068D0
:10118000F09101683196E0930068F093016841D4D2
:1011900040D4A2D4E8E0E0933304E0933204E09337
:1011A0003404E0933104E0933004E0E6F8E0268272
:1011B000A0E6B0E0A087B187A0E0A583A3E0A78365
:1011C000AAE4A683239822982498219820982B9803
:1011D0002A98E0E0FBE02082218224862586AFEF7A
:1011E000A6837AD4CFD355D4A895E8EDE4BFE8E040
:1011F000E0930001EFD4AA98A29AB5C04AC5EDC504
:1012000041C5F6C50CC549C562C56BC57EC5ABC534
:10121000CDC5C2C0C1C0C0C0BFC0BEC00C9410000C
:101220000C9411000C9412000C9413000C941400F4
:101230000C9415000C9416000C9417000C941800D4
:101240000C9419000C941A000C941B000C941C00B4
:101250000C941D000C941E000C941F000C94200094
:101260000C9421000C9422000C9423000C94240074
:101270000C9425000C9426000C9427000C94280054
:101280000C9429000C942A000C942B000C942C0034
:101290000C942D000C942E000C942F000C94300014
:1012A0000C9431000C9432000C9433000C943400F4
:1012B0000C9435000C9436000C9437000C943800D4
:1012C0000C9439000C943A000C943B000C943C00B4
:1012D0000C943D000C943E000C943F000C94400094
:1012E0000C9441000C9442000C9443000C94440074
:1012F0000C9445000C9446000C944700209200701A
:10130000209219702092327020924B70209264705B
:1013100020927D702092007120921971209232717A
:1013200020924B712092647120927D712092007204
:10133000209219722092327220924B722092647223
:1013400020927D7220920073209219732092327342
:1013500020924B732092647320927D730895EBEF7B
:1013600033943E220895A6D117C0E29AD6D103D273
:1013700085E611D411C0E29AD0D100D28EE70BD409
:101380000BC0E29ACAD1FDD183E205D405C0C5D114
:10139000ECD18EE200D400C0239820926608A3D33B
:1013A000E0D3EFE1FAE6EDBFFEBF92D315D0D7D17F
:1013B000EBD1F1D1FFD1B1D191D101D007C2E091F0
:1013C000706CE15040F0E093706C29F4EAE7E09330
:1013D00042080C9400100895E19990DFE79BBFDF6D
:1013E000E299AAD1ECB3E973ECBB00C00FD30AD3E6
:1013F0002DD0CC24E601D50187E165D0F0936F6C48
:1014000087E161D0F0936F6C87E15DD0F0936F6CF2
:1014100087E159D0F0936F6C87E155D0F0936F6CF2
:101420008FE751D0FD2DE1E0E081E7FD06D0E69B9E
:1014300007D0E4E0E093A7040895E69AE79A0895B8
:10144000E1E0DE26EBEFB394BE2237C0A8952092F0
:1014500066082092000BE0E0F0E0E0930A0BF093C6
:101460000B0B20920C0B20920D0BEFEFE093060B71
:10147000EAECE093660887E0C1E7DCE63199FECF4D
:10148000E3E0E093000B229AE4E0E093A704E0E0BD
:10149000FFE80090640807FEFCCF00906108109000
:1014A000600802FC62CF1992E125E0818A958AF7F3
:1014B000E0936F6C209266080895E1E7FCE6C7E4CC
:1014C000D8E687E042C2EAECE09366089D91E6998F
:1014D0009E7F219690FD239AE0E0FFE80D903199E0
:1014E000FECF90FD009262080D9090FD0092620880
:1014F0000090640807FEFCCF00906108109060081F
:1015000002FC33CF1992E125E0818A9589F362F7D5
:10151000F0916F6CFE2B23982092660808950C942E
:10152000AA0C0C94A50C0C94B30CABD0E9E7FCE628
:1015300087E1F7DF93C0A5D0E9E7FCE68DE0F1DFB6
:10154000E7E4F8E683E0EDDF83E0E9DF7BC099D0F4
:10155000D32DCEE780E8E0E0F9E6E3DF12C091D0DA
:1015600010C08FD0F6018AE0DCDFE6E4F9E683E024
:10157000D8DF8AE0D4DF72C089D083D0E9E7FCE607
:1015800003C084D07ED0F6018FE0CBDFD32DCEE731
:10159000AFE7B0E04FDEF32DEC2D3F96A193B19372
:1015A000C193D1934FC0E60188E1BDDF09F40895EE
:1015B000E2CEE601A2E1B0E03DDEF60173966DC039
:1015C000DD2DCEE7AFE7B0E035DEF6013F9665C032
:1015D000E091276AE211DBCEE601E985F091226A0B
:1015E000EF23FA95F093226AE211D1CE86C0E6018C
:1015F000E985F0916C6CF211EF13C9CE089508954E
:10160000E0916D6CE0FFC3CE0895E0916D6CE0FD5C
:1016100004C08091236A8211BACE0895FFDDA9919A
:10162000B9910D010128AE17BF07021051F4F8DD82
:10163000A991B9910D010128AE17BF07021009F455
:101640000895A5CED32DCC2DA2E1B0E0F3DDF32D8E
:10165000EC2D7396A193B193C193D193D32DCC2D3F
:1016600087E161DFE9930895DF93CF93C82F0E944C
:10167000D20CEF91FF91A193B193C193D193EF015C
:101680000895CC2DCA9504C0C4E602C0CDE700C0C1
:10169000D32D888181608993089501900A126BCEC1
:1016A00001900B1268CE01900C1265CE01900D12C4
:1016B00062CE0895E3E0E093216AE0E0F4E76F0191
:1016C000E0E0F0E75F01F2E73F2E20926D6C2092A0
:1016D000246AE6ECECBBC5D01DD00FC0E799089595
:1016E000FD2DE2E0808180FD01D00895E091276A20
:1016F000E211EA95E093276A0895E0914801FFE03E
:10170000F491F093226A2092276A0895EAE0E09328
:10171000276A08952092236A0895F32DE0E020823D
:10172000F32DE9E12082E2E32082EBE42082E4E68B
:101730002082EDE720820895F0E7BF2EF2E73F2EEA
:10174000DDCDE4E1F9E62192E033E9F70895209256
:10175000480120924901E1E0E09343010895E0E867
:10176000F9E6E7C0E4E8F9E6E4C0E8E8F9E6E1C054
:10177000E0E9F9E6DEC0ECE8F9E6DBC0E4E9F9E629
:10178000D8C0E8E9F9E6D5C0E0916F6C20926F6CA3
:10179000E211F1CD0895E7990895DD2DC5E0E881C6
:1017A000F0916E6CF395E0936E6CEF1709F4089569
:1017B000E29AE7CDDD2DC0E0EC85E093216AE79960
:1017C00003C3EB85E77FFBE00C94420D1ED0EBDEFC
:1017D00037C0E091C068F091C168C3E301D015C083
:1017E000DD2DCC2E888199819F3F49F4803051F0C6
:1017F0008F3F51F00090246A801521F005C08E17AC
:101800009F0711F40F900F900895CAE1DD2DCC2EA3
:1018100080E090E0E0E0F9E6099011908029012451
:101820009029E830C9F7803011F09211B0CDE0E096
:1018300009F0E1E0E0936D6C0895E601EA8102C0F1
:10184000E601E885E03120F4F0E0E250F74F09943A
:101850009ECD20926C6C2092686CECB3E260ECBB85
:10186000089501D042C0E0E0F9E60E942209EF01AC
:101870000E940E09E993F9930E941009E993F993E4
:101880000E94BC0CE993F9930E94BF0CE993F99371
:101890000E941209E993F9930E941409E993F993BC
:1018A00082E0E2DE81E0E0DE83E0DEDE84E0DCDEBA
:1018B00087E0DADE85E0D8DE86E0D6DEE0E1F1E141
:1018C00080E12FDEE8E1F0E0E993F9932196E0E092
:1018D000F1E183E026DE80910268899380910068BF
:1018E0008993809101688993089509D081E0899353
:1018F000E8E0F9E68CE015DE299229920895C9E71F
:10190000DCE6E0E0F9E688E00CCE0C94CB0DF89430
:101910008AD0F8949AD00C945809F8947AD08BD045
:101920000C9458090E944D0DF894A895FFCF0C9483
:101930005A098081918101968083918328F4828164
:1019400093810196828393830895019009928A95E9
:10195000E1F7089529928A95E9F708952082218276
:10196000228223820895E0E0FFE80990E025E081EB
:101970008A95D9F7EE230895E0E0F0E00895E0E0DD
:10198000F0E00895E8E4FCE60E944609C8E2DAE6E1
:101990000E944809E8E2FCE60E944609C8E2DAE64D
:1019A0000C944809E8E4FCE60E944A090C943A09C0
:1019B0001FD005FE0EC001800DC01AD006FE09C062
:1019C00001800AC015D007FE04C0018007C010D0F6
:1019D00039F00895000C111C000C111C000C111C96
:1019E00010820FB6F8942182228223820FBE0895BE
:1019F0001180100C11821280121C12820380039439
:101A0000038208952298349BFECF08953499FECF27
:101A10000895C0E0D8E6A4E0B0E01FC0C0E0D8E67A
:101A2000A8E0B0E027C0C0E0D8E680E493DFEFEFA5
:101A3000E09309680895C0E4D8E6A0E0B0E00DC0E6
:101A4000C0E4D8E6A4E0B0E015C0C0E4D8E680E881
:101A500081DFEFEFE093456808950E941A09F001D5
:101A6000A095B095C095D095A083B183C283D38350
:101A7000248208950E941A09F00180830895E2E00B
:101A8000F2E000C0EF23F0950090206A0F22E029D9
:101A900006C0E0E004C0EFEF02C0EBE000C0E0935E
:101AA000206A00C0E091206A0C941809EF23F09599
:101AB0000090216A0F22E02908C0E0E006C0E5E5B9
:101AC00004C0EFEF02C0EFEF00C0E093216A00C056
:101AD000E091216A0C941609442455240895AA988B
:101AE0000895AA9A0895B39904C0E5E5B19B0C94B2
:101AF000440900C0E0914408E7FF0895E0914008E0
:101B0000E093007608958F93892F0AD08F9108C0B3
:101B10008F93892F05D08F9100C002D08CE23BC0FB
:101B200001D003C08F93829501C08F938F70805D29
:101B30008A3308F0895F2FD08F9108958AE02BD0E7
:101B40008DE029C00F01451451F0F0914408F5FFD4
:101B500006C0F7E7E52DF081F09342085394F001B9
:101B60000895451459F0F0914408F5FFFACFF7E7CE
:101B7000E52DF081F09342085394F3CF0895C42DDE
:101B8000D7E70190002029F00882C395C511F9CF4D
:101B9000CA954C2ED8CF0F01F201FA95EF1719F024
:101BA000F7E780834394CFCF8F938E2FF201FA957E
:101BB000EF1719F0F7E7808343948F910895899187
:101BC000ACDF9A95E1F70895899182118813089501
:101BD000E2DFFACFC8EEDBE9F7DF80910268A0DF31
:101BE000C8EFDBE9F1DFBDCF0A0D1B5B34346D2E8E
:101BF0002E2E5B424C442D005D1B5B6D0A0D0000D8
:101C0000C8E0DCE9E1DFADCF0A0D1B5B34336D2E9C
:101C10002E2E5B5550445D1B5B6D0A0D0000F0DC01
:101C2000C8DC74DD82E671DEC0911A69D0911B694F
:101C3000CF3221F5D13C11F542DF93DFE6018985F2
:101C40008093C268888999898093C3689093C46897
:101C50008E859F858093C0689093C1680E941B0DFC
:101C6000E6018A8980FF05C0E8EDE4BFE5E8E0937E
:101C7000011082E08093706C74DC8ECBECB3E26078
:101C8000ECBB85CBBDDC95DC41DD81E73EDE5FDC76
:101C900083CB89E63ADE0C94CC09B7DCE6012A96C0
:101CA000BDDC87DC33DD83E730DEE601EE85E093E3
:101CB000686CE985E0936C6C4ADDC7E0E8E4FCE61B
:101CC000E9DAC091686CE8E2FCE6E4DA65CB9DDC19
:101CD000E6012A96A3DC6DDC19DD85E716DEB9DDA9
:101CE0005BCB8EDC66DC12DD82E70FDEF601A285BF
:101CF000B385D32DCEE78585813808F048CB0D908C
:101D000009928A95E1F72BDC47CB71DC7EDC51DC54
:101D100057DCFCDC1CDD87E7F8DDF6018285938566
:101D2000F7DEF6018585F9DE229823982092660871
:101D30002E9807DDA0E8B0E0DD2DCEE7E8E4FCE674
:101D4000ABDAF601C285D385E8E2FCE683DAE60188
:101D5000AD85B0E0C8E4DCE6E8E2FCE6A1DAECB38D
:101D6000E260ECBB19CB43DC50DC23DCCFDC86E645
:101D7000CCDDF60182859385CBDE6BDDE2DC22983B
:101D80002398209266082E98E8E2FCE68FDAF601A6
:101D9000C285D385E8E2FCE65DDAE6018D8582DA6C
:101DA00085DA61DDECB3E260ECBBF6CA28DCE60163
:101DB0002A9634DCFEDBAADC8DE6A7DDF601818500
:101DC0008093236A0C94CC098DE29FDDE8E0F8E073
:101DD0000E94420DC7DC0C94CC0917DCE6012A9660
:101DE0001DDCE7DBF5DB80E790DD7FDDA4DBD4CA1B
:101DF0000CDCE6012A9612DCDCDB88DC82E585DD82
:101E000057CAFFFFFFFFFFFFFFFFFFFFFFFFFFFFBF
:102000006CC1000081E05AC182E058C183E056C132
:10201000F2C0000085E052C186E050C179D082C094
:1020200088E04CC18BD08EC08AE048C18BE046C1AD
:10203000E8C00000E9C000008EE040C18FE03EC172
:1020400080E13CC181E13AC182E138C1E8C00000D1
:1020500084E134C185E132C186E130C187E12EC11E
:102060009DC0000089E12AC18AE128C18BE126C117
:102070008CE124C178C000008EE120C18FE11EC137
:1020800080E21CC181E21AC182E218C183E216C15A
:1020900084E214C185E212C186E210C187E20EC15A
:1020A00088E20CC189E20AC18AE208C18BE206C15A
:1020B0006FC000008DE202C18EE200C18FE2FEC05F
:1020C00080E3FCC081E3FAC082E3F8C083E3F6C09A
:1020D000B1C0000085E3F2C086E3F0C087E3EEC044
:1020E00088E3ECC089E3EAC08AE3E8C08BE3E6C09A
:1020F0008CE3E4C08DE3E2C08EE3E0C08FE3DEC09A
:1021000001002FC1020100003714DE682C75BB4EA0
:1021100031E030930B0AF89902C0F89A18953F9174
:102120003F911895CFB64F01E52FE33520F4F0E04D
:10213000E858F44E0994EFE00C94DC1830E1309349
:102140000B0A1895CFB64F01E091566AE395E093DC
:10215000566AEA95EE3120F4F0E0ED54F04E099421
:10216000E0E10C94DC187FB660900B0038E062FE72
:1021700003C0309352045A9A63FE03C03093530451
:102180005B9A30914A6A362930934A6A7FBE189525
:1021900038E030933504E99A3D9A18953F01E09173
:1021A0006A6AF0916B6A3091100631933091110692
:1021B0003083E0916C6AF0916D6A319130930C0636
:1021C000319130930806319130930106319130936B
:1021D000A000319130936A6A319130936B6A3191EA
:1021E00030930B06319130930A06E0936C6AF093BA
:1021F0006D6AF30118953F01E1E0E0935301F301AB
:1022000018953F01F501099460901C0B70901D0B0F
:102210006092526A7092536A2092150B18953F0192
:1022200030910008E091576AF32D3193E093576A9B
:10223000F30118953F013091610832FD18C03091CB
:102240006008E32FFFB7E227FFBFFFE02081F8011E
:102250003193F091516AEF1301C0E4980E2FE49B83
:1022600004C0FD2D318130936208F3011895E49884
:10227000239822982092050B2092650820926608E8
:10228000E598E29AE19AF12FE1E03FEF30833FB722
:10229000E0918C69F0918D693196E0938C69F093AF
:1022A0008D6948F4E0918E69F0918F693196E093E1
:1022B0008E69F0938F693FBFF3011895F8942398C6
:1022C000229820926508209266082092000AE7E092
:1022D000E093020AE82F0C94DC18A895F8942224C5
:1022E000E8EDE4BFE5E8E0930110E8EDE4BF2092FB
:1022F0001001EFE1FAE6EDBFFEBFE0E0FAE6C0E074
:10230000DEE021922197E9F7A091C268A03110F098
:10231000EBE17DC4B0E0BA9FF001B6E0BA9FF00DEA
:10232000E05AFF4FE093286AF093296AAF50A195D5
:10233000B0E0BA9FF001B6E0BA9FF00DE0932A6AD0
:10234000F0932B6AE8E0E0931104E0933504E0E0B9
:10235000F8E02682A0E8B1E0A087B187A0E0A583DD
:10236000A3E0A78301982598E0EAF0E0A5E8A08320
:10237000A1E8A28389988A98819A829AE0E0F6E09F
:10238000A1E1A083A0E0A183A6E0A283A0E0A383B3
:10239000A0E0A483A2E4A087A1E0A2872092A206E5
:1023A0002092A306E1E4E093A00620926508209223
:1023B0006608A4E0A093E605E0E8E0939104E093CA
:1023C0009204E0E0FAE02082A6E0A283BFEFB0A78B
:1023D000B1A7B2A7B3A7B4A7B5A7B6A327A220A257
:1023E00021A2A3E6A183AFEFA387A1E1A287209258
:1023F000D001A0EAA093D101AAE0A093D201A0EC61
:10240000A093D301A1E4A1E0A093C001E0E0FBE030
:102410002082A0E0A1832582E0E1FBE0A5E1A0838A
:10242000A2E0A1832582A1E5A483A1E4A0931002E8
:10243000A1E0A0934102A0E8A0931102A2E0A09322
:102440002C02A0915101A0FDFCCFA1E2A09350016C
:10245000A1E0A0935201A0910A06A0FDFCCFE0915B
:102460001006E0911106E295EF70E395E093266A7D
:102470003BD011D4A895E8EDE4BFE5E0E09300017E
:1024800090D792D7CCD60E942F1B0E944F1A7894D7
:1024900076C013C681C080C01DC67EC07DC07CC012
:1024A0007BC07AC079C078C077C076C075C074C070
:1024B00073C045C600C082E3FED5E701EB8114D0AE
:1024C000EC81E0934C6AC4EBDCE688E190D681E1D4
:1024D0008093B46C8091266A8093B56C8091276A52
:1024E0008093B66C01D45CC0EF70E093276AE295EC
:1024F000F894F0910800FF70FE2BF0930800789498
:1025000008952092007020921970209232702092CB
:102510004B702092647020927D7020920071209206
:1025200019712092327120924B7120926471209225
:102530007D71209200722092197220923272209244
:102540004B722092647220927D72209200732092CE
:1025500019732092327320924B73209264732092ED
:102560007D730895EBEF33943E220895EBEFD394FF
:10257000DE220895E1E0F12E1E27089508956ED41D
:10258000FDDF0EC0A0D4D3D483E26AD709C09BD4A8
:10259000CBD48EE765D704C096D4BDD48EE200C0FC
:1025A000EFE1FAE6EDBFFEBF03D740D793D306D0E5
:1025B000ACD4C7D4D5D487D438D0DEC4E599FECF07
:1025C000E1999FDFDBD2E099FECFD4DFE79BCADF42
:1025D000E69BCCDFECB3E973ECBBA8952092000B33
:1025E00020920A0B20920B0BE1E0E093060BE093A4
:1025F000050BE0E8E0936508EAECE093660898D6FE
:1026000093D6E3E0F1E0F8943199FECFF093000A1D
:10261000E093000BE59AE09A20924D6A7894FF2DA2
:10262000E1E0E081E7FDE79A0895CBEFD32DD39564
:10263000DC23C0E080E0DBC5E0E0F6E0E0930C0BDB
:10264000F0930D0BE1E0E093060BE1E7F3E15F01AE
:10265000E0E8E093650830916008309160083091BF
:102660006008E8E1E093516A222DE0E0FD2D319110
:102670000E2F30FF32C0239AE49A3191E081319BD2
:1026800026C0319B24C0319B22C0319B20C0319B8E
:102690001EC0319B1CC0319B1AC0319B18C0319B9E
:1026A00016C0319B14C0319B12C0319B10C0319BAE
:1026B0000EC0319B0CC0319B0AC0319B08C0319BBE
:1026C00006C0319B04C0319B02C0319B00C03093D7
:1026D0006208E0936208F3011895E498F3012398E7
:1026E0001895F12FE1E0E081E7FDE69A229AE0E01B
:1026F000F6E0E0930C0BF0930D0BE1E0E093060B9A
:10270000ECECF3E15F01E0E8E093650830916008EC
:102710003091600830916008E1E3E093516A222D26
:10272000E9E1FD2D31910E2F30FF32C0239AE49A5A
:102730003191E081319B26C0319B24C0319B22C066
:10274000319B20C0319B1EC0319B1CC0319B1AC0E5
:10275000319B18C0319B16C0319B14C0319B12C0F5
:10276000319B10C0319B0EC0319B0CC0319B0AC005
:10277000319B08C0319B06C0319B04C0319B02C015
:10278000319B00C030936208E0936208F301189512
:10279000E498F30123981895E0E0F6E0E0930C0B41
:1027A000F0930D0BE1E0E093060BE1E2F4E15F0151
:1027B000E0E8E0936508309160083091600830915E
:1027C0006008EAE4E093516A222DE2E3FD2D3191A5
:1027D0000E2F30FF32C0239AE49A3191E081319B71
:1027E00026C0319B24C0319B22C0319B20C0319B2D
:1027F0001EC0319B1CC0319B1AC0319B18C0319B3D
:1028000016C0319B14C0319B12C0319B10C0319B4C
:102810000EC0319B0CC0319B0AC0319B08C0319B5C
:1028200006C0319B04C0319B02C0319B00C0309375
:102830006208E0936208F3011895E498F301239885
:102840001895E0E0F6E0E0930C0BF0930D0BE1E05F
:10285000E093060BE6E7F4E15F01E0E8E09365084A
:10286000309160083091600830916008E3E6E093B1
:10287000516A222DEBE4FD2D31910E2F30FF32C035
:10288000239AE49A3191E081319B26C0319B24C088
:10289000319B22C0319B20C0319B1EC0319B1CC08C
:1028A000319B1AC0319B18C0319B16C0319B14C09C
:1028B000319B12C0319B10C0319B0EC0319B0CC0AC
:1028C000319B0AC0319B08C0319B06C0319B04C0BC
:1028D000319B02C0319B00C030936208E0936208D4
:1028E000F3011895E498F30123981895E0E0F6E0D9
:1028F000E0930C0BF0930D0BE1E0E093060BEBEC97
:10290000F4E15F01E0E8E093650830916008309100
:10291000600830916008ECE7E093516A222DE4E60C
:10292000FD2D31910E2F30FF32C0239AE49A319160
:10293000E081319B26C0319B24C0319B22C0319B5A
:1029400020C0319B1EC0319B1CC0319B1AC0319BE3
:1029500018C0319B16C0319B14C0319B12C0319BF3
:1029600010C0319B0EC0319B0CC0319B0AC0319B03
:1029700008C0319B06C0319B04C0319B02C0319B13
:1029800000C030936208E0936208F3011895E49860
:10299000F30123981895E0E6FEE1E0930C0BF09329
:1029A0000D0BE1E0E093060BE0E2F5E15F01E0E80A
:1029B000E0936508309160083091600830916008BC
:1029C000EDEFE093516A222DEDE7FD2D31910E2FB1
:1029D00030FF32C0239AE49A3191E081319B26C0C6
:1029E000319B24C0319B22C0319B20C0319B1EC033
:1029F000319B1CC0319B1AC0319B18C0319B16C043
:102A0000319B14C0319B12C0319B10C0319B0EC052
:102A1000319B0CC0319B0AC0319B08C0319B06C062
:102A2000319B04C0319B02C0319B00C030936208CF
:102A3000E0936208F3011895E498F3012398189540
:102A4000F091296AE091286AE0930C0BF0930D0B4A
:102A500020926508E1E0E093060BE3E3F5E15F0116
:102A6000F30123981895E0E0F6E0E0930C0BF09367
:102A70000D0BE1E0E093060BE2E8F5E15F01E0E831
:102A8000E0936508309160083091600830916008EB
:102A9000E3E6E093516A222DEBE4FD2D31910E2FF8
:102AA000239AE49A3191E081319B26C0319B24C066
:102AB000319B22C0319B20C0319B1EC0319B1CC06A
:102AC000319B1AC0319B18C0319B16C0319B14C07A
:102AD000319B12C0319B10C0319B0EC0319B0CC08A
:102AE000319B0AC0319B08C0319B06C0319B04C09A
:102AF000319B02C0319B00C030936208E0936208B2
:102B0000F3011895E0912A6AF0912B6AE0930C0B7F
:102B1000F0930D0B20926508E1E0E093060BE5E9E8
:102B2000F5E15F012398F3011895E0E0F6E0E0930A
:102B30000C0BF0930D0BE1E0E093060BE2EBF5E1FB
:102B40005F01309160083091600830916008E0E8E2
:102B5000E0936508E498ECE7E093516A222D05E6DE
:102B6000F301189520926508209266082092050BC3
:102B70002092000B2398E598F3011895E49801E062
:102B8000E8E0E093516A222DE0E1F2E0E0930C0BE3
:102B9000F0930D0BE1E0E093060BECE1F3E15F0154
:102BA00008950C9410000C9411000C9412000C94D5
:102BB00013000C9414000C9415000C9416000C9443
:102BC00017000C9418000C9419000C941A000C9423
:102BD0001B000C941C000C941D000C941E000C9403
:102BE0001F000C9420000C9421000C9422000C94E3
:102BF00023000C9424000C9425000C9426000C94C3
:102C000027000C9428000C9429000C942A000C94A2
:102C10002B000C942C000C942D000C942E000C9482
:102C20002F000C9430000C9431000C9432000C9462
:102C300033000C9434000C9435000C9436000C9442
:102C400037000C9438000C9439000C943A000C9422
:102C50003B000C943C000C943D000C943E000C9402
:102C60003F000C9440000C9441000C9442000C94E2
:102C700043000C9444000C9445000C9446000C94C2
:102C80004700E2E0F2E000C0EF23F0950090506AC8
:102C90000F22E02906C0E0E004C0EFEF02C0EBE045
:102CA00000C0E093506A00C0E091506A0C94DB15BC
:102CB000EF23F09500904F6A0F22E02908C0E0E072
:102CC00006C0E5E504C0EFEF02C0EFEF00C0E093FF
:102CD0004F6A00C0E0914F6A0C94D9150C94F71814
:102CE0000C94F2180C940019A0D0E4EBFCE687E1F8
:102CF000F7DF88C09AD0E4EBFCE68DE0F1DFE7E493
:102D0000F8E683E0EDDF83E0E9DF70C08ED0D32DFD
:102D1000CEE780E8E0E0F9E6E3DF07C086D005C053
:102D200089D083D0E4EBFCE603C084D07ED0F701E9
:102D30008FE0D6DFD32DCEE7AFE7B0E03EDFF32D57
:102D4000EE2D3F96A193B193C193D1934FC0E7016C
:102D500088E1C8DF09F408951ACCE701A2E1B0E0E8
:102D60002CDFF70173966DC0DF2DCEE7AFE7B0E043
:102D700024DFF7013F9665C0E091676AE2110CCC51
:102D8000E701E985F091626AEF23FA95F093626AB0
:102D9000E21102CC88C0E701E985F091B26CF21132
:102DA000EF13FACB08950895E091B36CE0FFF4CBF4
:102DB0000895E091B36CE0FD04C08091636A8211D4
:102DC000EBCB0895EEDEA991B9910D010128AE1764
:102DD000BF07021051F4E7DEA991B9910D01012856
:102DE000AE17BF07021009F40895D6CBD32DCE2D10
:102DF000A2E1B0E0E2DEF32DEE2D7396A193B19344
:102E0000C193D193D32DCE2D87E16CDFE993089543
:102E1000DF93CF93C82F0E941F19EF91FF91A193C9
:102E2000B193C193D193EF010895CE2DCA9504C0FB
:102E3000C4E602C0CDE700C0D32D888181608993AC
:102E4000089501900A12A3CB01900B12A0CB019020
:102E50000C129DCB01900D129ACB0895E3E0E09304
:102E60004F6AE0E0F4E78F01E0E0F5E77F01F0E78B
:102E7000DF2EF2E73F2E2092B36C2092646AE6ECDC
:102E8000ECBB13D11DD00FC0E7990895FF2DE2E0F0
:102E9000808180FD01D00895E091676AE211EA9592
:102EA000E093676A0895E0914801FFE0F491F093A0
:102EB000626A2092676A0895EAE0E093676A08957B
:102EC0002092636A0895F32DE0E02082F32DE9E17A
:102ED0002082E2E32082EBE42082E4E62082EDE738
:102EE00020820895F0E7DF2EF2E73F2E0ACBE4E1DF
:102EF000F9E62192E033E9F7089520924801209203
:102F00004901E1E0E09343010895E0E8F9E65EC19C
:102F1000E4E8F9E65BC1E8E8F9E658C1E0E9F9E67A
:102F200055C1ECE8F9E652C1E4E9F9E64FC1E8E938
:102F3000F9E64CC1E0912C6A20922C6AE21127CB71
:102F40000895E7990895DF2DC5E0E881F0912D6A95
:102F5000F395E0932D6AEF1709F40895E29A12CBE6
:102F6000DF2DC0E0ED85E0934F6AE799AAC0EB85BD
:102F7000E77FF9E00C94441602D0E9DE34C0E0911A
:102F8000C068F091C168C3E301D015C0DF2DEC2EFD
:102F9000888199819F3F49F4803051F08F3F51F0F3
:102FA0000090646A801521F005C08E179F0711F408
:102FB0000F900F900895CAE1DF2DEC2E80E090E095
:102FC000E0E0F9E609901190802901249029E83089
:102FD000C9F7803011F09211DFCAE0E009F0E1E0BA
:102FE000E093B36C0895E701EA8102C0E701E88548
:102FF000E23120F4F0E0E75BFD4E0994CDCA209267
:10300000B26C2092AE6CECB3E260ECBB089501D0E0
:1030100042C0E0E0F9E60E94E515EF010E94D115FB
:10302000E993F9930E94D315E993F9930E94091942
:10303000E993F9930E940C19E993F9930E94D5152D
:10304000E993F9930E94D715E993F99382E0E0DEC2
:1030500081E0DEDE83E0DCDE84E0DADE87E0D8DEFD
:1030600085E0D6DE86E0D4DEE0E1F1E180E138DE25
:10307000E8E1F0E0E993F9932196E0E0F1E183E003
:103080002FDE8091026889938091006889938091F6
:1030900001688993089509D081E08993E8E0F9E611
:1030A0008CE01EDE299229920895C4EBDCE6E0E074
:1030B000F9E688E015CE0C94301A89E6FCDF0C9412
:1030C000D0128DE2F8DFE8E0F8E00E94441620DF3D
:1030D0000C94D0126EDEE7012A9674DE3EDEECDE42
:1030E00082E5E9DFA8CD60DE38DE83E7E4DF8BE050
:1030F0008093BC6CCDEBDCE68EE00E94F71860910B
:10310000146D7091156D0E94B31A6093BD6C70932D
:10311000BE6C6091236A7091246A6093BF6C709357
:10312000C06C6091256A6093C16C6091276A60935E
:10313000BA6C60911F6D6093BB6CD6DD31CA83E7BA
:10314000BADFC4EBDCE688E10E94F71880E18093E7
:10315000B46C6091146D7091156D0E94B31A6093F8
:10316000B56C7093B66C6091236A7091246A609319
:10317000B76C7093B86C6091256A6093B96C60917C
:10318000276A6093BA6C60911F6D6093BB6CACDD75
:1031900007CAF894DAD0F894EAD00C941B16F89485
:1031A000CAD0DBD00C941B160E944F16F894A89539
:1031B000FFCF0C941D16ECE32398F894AFE1BAE628
:1031C000ADBFBEBF0E946716A895FECF80819181DA
:1031D00001968083918328F4828193810196828372
:1031E00093830895019009928A95E1F708952992B1
:1031F0008A95E9F708952082218222822382089508
:10320000E0E0FFE80990E025E0818A95D9F7EE2318
:103210000895E0E0F0E00895E0E0F0E00895EEE8E1
:10322000FCE60E940916CEE6DAE60E940B16EEE6F0
:10323000FCE60E940916CEE6DAE60C940B16EEE8E0
:10324000FCE60E940D160C94FD15799FE001689F25
:10325000D001699FB00DC11DD21D789FB00DC11D59
:10326000D21D089580E406C080E204C080E102C05F
:1032700088E000C0C083D183828323822482258298
:10328000B6CF11D00BC00FD007C00DD003C00BD0EC
:10329000AA0FBB1FAA0FBB1FAA0FBB1FAA0FBB1FE2
:1032A000AA0FBB1F0895B381A081AB0FB181B21DDE
:1032B000DC91CC93A481B581AD1BB209AC0FB21DDA
:1032C000A483B583C281D381D395DC1708F0DD27B1
:1032D000D38308951FD005FE0EC001800DC01AD003
:1032E00006FE09C001800AC015D007FE04C0018097
:1032F00007C010D039F00895000C111C000C111CEF
:10330000000C111C10820FB6F894218222822382B5
:103310000FBE08951180100C11821280121C1282AF
:1033200003800394038208952298349BFECF08956E
:103330003499FECF0895C0E0D8E6A4E0B0E01FC005
:10334000C0E0D8E6A8E0B0E027C0C0E0D8E680E45E
:103350004EDFEFEFE09309680895C0E4D8E6A0E0FF
:10336000B0E00DC0C0E4D8E6A4E0B0E015C0C0E411
:10337000D8E680E83CDFEFEFE093456808950E94CF
:10338000DD15F001A095B095C095D095A083B183CF
:10339000C283D383248208950E94DD15F0018083C7
:1033A0000895442455240895AA980895AA9A089542
:1033B000B39904C0E5E5B19B0C94071600C0E091F9
:1033C0004408E7FF0895E0914008E09300760895EF
:1033D0008F93892F0AD08F9108C08F93892F05D0A2
:1033E0008F9100C002D08CE23BC001D003C08F930C
:1033F000829501C08F938F70805D8A3308F0895F5A
:103400002FD08F9108958AE02BD08DE029C00F0135
:10341000451451F0F0914408F5FF06C0F7E7E52D9B
:10342000F081F09342085394F0010895451459F047
:10343000F0914408F5FFFACFF7E7E52DF081F0931E
:1034400042085394F3CF0895C42DD7E7019000208C
:1034500029F00882C395C511F9CFCA954C2ED8CF53
:103460000F01F201FA95EF1719F0F7E78083439403
:10347000CFCF8F938E2FF201FA95EF1719F0F7E760
:10348000808343948F9108958991ACDF9A95E1F7F9
:1034900008958991821188130895E2DFFACFC6EA70
:1034A000D4EBF7DFC3CF0A0D1B5B34326D2E2E2E0B
:1034B0005B4150505D1B5B6D0A0D0000C4ECD4EB0A
:1034C000E8DFB4CF0A0D1B5B34336D2E2E2E5B5517
:1034D00050445D1B5B6D0A0D0000E0916A6AF0913B
:1034E0006B6AEF2B0895CF93C0916A6AC21106C030
:1034F000C0916B6AC21102C0CF9103C0CF91889472
:103500000895CF93C2E0C0930A06C1E0C0930D06B0
:10351000C191C0930006C191C0930206C191C093AE
:103520000306C191C0930406C191C0930C06C191DA
:10353000C0930806C191C0930106C191C093A00039
:10354000C191C0936A6AC191C0936B6AC191C093E3
:103550000B06C191C0930A06E0936C6AF0936D6A02
:10356000CF910894089576956795769567957695A9
:103570006795769567958091061190910711861B46
:10358000970B60910411709105115FDEC695B79598
:10359000C695B795C695B795C695B7957C2F6B2FF1
:1035A0000895EEEAF5EBADCFE2E3F6EBAACF110416
:1035B000010001050080006D010001070080046D1D
:1035C0000001010B0080086D000101050080026D03
:1035D000010001070080066D0001010B00800A6DEB
:1035E0000001010B0080686A0100010B0080106D72
:1035F000000101070080686A0100010700800E6D6C
:10360000000101050080686A0100010500800C6D61
:10361000000101040080126D010001420081146D5F
:103620000100010000851E6D0100000000801E6D7C
:1036300000021104010001050080686A0100010513
:103640000080686A000101050080686A01000105C8
:103650000080686A000100000080686A00022DBADC
:103660002FBA552720925C6A20925D6AE0E5F1E06E
:10367000E0932E6AF0932F6AE093306AF093316AF8
:10368000E0EFF0E0E093326AF093336AE093346A5B
:10369000F093356AE0E7F2E0E093366AF093376A38
:1036A000E0E3F0E0E093386AF093396AE0E3F0E0B9
:1036B000E0933A6AF0933B6AE0EBF1E0E0933C6A16
:1036C000F0933D6A2092000A2092200A2092210A5B
:1036D000E0E7F0E7E093360AF093370AEFEFE09384
:1036E0003A0AE0933B0AE0933C0AE0933D0A0895CE
:1036F00052C076C0B2C0C5C0CEC0D7C0D8C0D9C035
:10370000DAC0DBC0DCC0DDC0DEC0DFC0E0C0E5C0C9
:10371000EAC005C109C10EC190C09DC00DC11AC14A
:103720001BC11CC11DC11EC11FC120C121C122C19D
:1037300023C124C125C126C127C128C138C141C127
:103740004DC14EC14FC15AC165C168C16BC16EC187
:1037500071C174C177C17AC17DC180C183C186C185
:1037600089C18CC1A9C1AAC1ABC1D2C1E7C103C281
:1037700005C215C216C219C21CC21FC222C225C26E
:1037800028C22BC22EC231C234C237C23AC23DC295
:1037900040C243C246C2E4E0E093A704F12FE5E64D
:1037A000E081EF70FFE1099440915A6AF42FF370C1
:1037B000F093606A4C7F4DBB40915C6A539BEE9BDB
:1037C00040E04093A30640915E6A4770440F440F67
:1037D000F42F440F4F0F4093496AE3DE51E033C2A8
:1037E000E4E0E093A70420920508209206083092B6
:1037F000616AF091576AFE5440914E6AF2954F2BE0
:10380000F32DEEE5408344E0E8EBF2E07BD4E09179
:10381000200AE43BE0F3E0914C6AE0FD0BC020920B
:10382000000AE0E4F2E0E093200AF093210AE09835
:1038300052E010C2E09854E10DC2E6E0E093566A0F
:1038400055E1E0914D6AE211FEC1E8E0E093566A6D
:1038500050934D6A02C054E1FDC1E4E0E093A70437
:10386000DF93CF93E0E0FFE8D091616ACCE4499127
:10387000E427E081C336D9F7E883CF91DF9153E0A5
:10388000E2C1E4E0E093A704F32DECE42192E436F6
:10389000E9F754E0DFC1FF2DECE6408142954F701F
:1038A000F32DEDE5408355E0CEC156E0D3C157E09E
:1038B000CAC158E0CFC159E0C6C15AE0CBC15BE0F4
:1038C000C2C15CE0C7C15DE0BEC15EE0C3C1E091C2
:1038D000606A5FE0E1FFB7C1E0C1E091606A50E17A
:1038E000E1FFB8C1E1C1F32DEFE54081ED994068FA
:1038F000EC994064E0914A6A20924A6AE2FD446091
:1039000052994061E3FD486053994062EFE540837E
:10391000E9E0E0935204E093530451E194C14091F3
:10392000586A4EBB52E196C1EEB3EA95EEBB22F067
:1039300053E189C152E18EC1FF2DECE6E081EF70C9
:10394000E093446A09F49FC0E0E0FF2DE359F08161
:10395000E65529C0E1E01CC0E2E01AC0E3E018C06F
:10396000E4E016C0E5E014C0E6E012C0E7E010C0F5
:10397000E8E00EC0E9E00CC0EAE00AC0EBE008C0F5
:10398000ECE006C0EDE004C0EEE002C0EFE000C0F5
:103990004091446A4E1709F476C04E2FFF2DE3592B
:1039A000F081E65518C0E093436AFEBBFDDD57E2A7
:1039B000E091606AE0FD63C1E0914C6AE1FF35C1CE
:1039C00050C15AE2E091606AE0FD60C1E0914C6A4A
:1039D000E1FF32C14DC1E093436AFEBB59E225C10C
:1039E0005AE22AC1E0910D6DF091696AEF1710F467
:1039F000F0930D6D5395F79B18C125C1E0910D6DA6
:103A0000F091696AEF1710F4F0930D6D5395F79BE1
:103A100013C120C15395F69B08C115C15395F69B60
:103A20000BC118C15395F59B00C10DC15395F59B72
:103A300003C110C15395F49BF8C005C15395F49B85
:103A4000FBC008C15395F39BF0C0FDC05395F39B99
:103A5000F3C000C15395F29BE8C0F5C05395F29BAB
:103A6000EBC0F8C05395F19BE0C0EDC05395F19BBE
:103A7000E3C0F0C05395F09BD8C0E5C05091436AB5
:103A8000F09BDAC0E7C0F32DECE440910D6D448764
:103A90004091016D42874091036D438740910F6DC6
:103AA00045874091116D46874091136D47874EE4DD
:103AB0004093576A20924E6A5BE3C5C05395CAC0D3
:103AC000EB993DC0ED9901C066CE5DE3FF2DEBE6BD
:103AD0004081F32DECE54083407E4695E42F4695EA
:103AE0004E0FE0E7F2E0E40FF21DE093476AF09337
:103AF000486AE8E0F7E04091476AE41B4091486A71
:103B0000F40B40E0F8D2E091476AF091486AF5C0C2
:103B10005395FF2DEBE64081440F440F440FE0E93D
:103B2000FAE2E40FF21DE40FF21DE40FF21D4091E2
:103B3000476AE41B4091486AF40B0DC12CCEEA9908
:103B400004C040E4ECE5F1E003C040E8ECE5F1E05E
:103B50004093426AE0933E6AF0933F6AF695E79598
:103B6000E093406AF093416AEEE7E093466A40E4EE
:103B70004093436A14C0E091426AE770E091426A60
:103B8000E15050F0E093426AE091466AFF2D419186
:103B90004EBBE093466A08C0E0E0E093436A52E41B
:103BA00044C05091436A48C053E45395F09B83C08E
:103BB0008CC05395F09B84C08DC05395F19B7BC006
:103BC00084C05395F19B7CC085C05395F29B73C014
:103BD0007CC05395F29B74C07DC05395F39B6BC022
:103BE00074C05395F39B6CC075C05395F49B63C030
:103BF0006CC05395F49B64C06DC05395F59B5BC03E
:103C000064C05395F59B5CC065C05395F69B53C04B
:103C10005CC05395F69B54C05DC05395F79B4BC059
:103C200054C05FE3F79B4CC055C0E0912E6AF09101
:103C30002F6AE05FF74F61C0E091306AF091316A1E
:103C4000E05FF74F71C0E091326AF091336AE0585B
:103C5000FB4F53C0E091346AF091356AE058FB4F56
:103C600063C0E0912E6AF0912F6AE858F64F45C084
:103C7000E091306AF091316AE858F64F55C0E09112
:103C8000366AF091376AE05FF74F37C0E091386AE3
:103C9000F091396AE05FF74F47C0E0913A6AF091DE
:103CA0003B6AE058FB4F29C0E0913C6AF0913D6AC5
:103CB000E058FB4F39C0E0913E6AF0913F6A1DC069
:103CC000E0913E6AF0913F6A2FC0E091406AF09126
:103CD000416A13C0E091406AF091416A25C0E091C9
:103CE0002E6AF0912F6AE05FF74F49C0E091326A87
:103CF000F091336AE058FB4F42C0EC9917C0EF9B3C
:103D00003EC0E093360AF093370A4FEF40933B0AE8
:103D100040933D0A4091496A40933A0A20923B0AF7
:103D2000F401CFBEF8980895EC99E9CFEF9B27C036
:103D3000E093360AF093370A4FEF40933B0A4093E3
:103D40003D0A4091496A40933C0A20923D0AF401A1
:103D5000CFBEF8980895EF9B12C0E093360AF09317
:103D6000370A20923A0A20923B0A4091496A4093CE
:103D70003C0A20923D0AF401CFBEF8980895E093E2
:103D8000360AF093370A4FEF40933A0A40933B0AC2
:103D900040933C0A40933D0AF401CFBEF898089541
:103E00000FC03CC082C081C080C07FC07EC07DC06A
:103E10007CC07BC07AC079C078C077C076C075C0DE
:103E20000F921F92F12FE5E64091596A4093586A2C
:103E300040915B6A407F40935A6A40915F6A409329
:103E40005E6A018010905D6A019C10925C6AE0E5F8
:103E5000F1E0E0932E6AF0932F6AE093306AF093DA
:103E6000316AE0EFF0E0E093326AF093336AE09376
:103E7000346AF093356A1F900F9096CC0F921F9280
:103E8000F12FE5E6478142954F70ED9943954093B8
:103E9000586A4093596A438140935A6A40935B6AD7
:103EA000418140935C6A40935D6A408142954695AA
:103EB000477040935E6A40935F6A48E1E481FE2F59
:103EC000EF70EE0FF295FF70FF0FE49F00922E6AE5
:103ED00010922F6AF49F0092306A1092316AF12F8B
:103EE000E5E6E581FE2FEF70EE0FF295FF70FF0F14
:103EF000E49F0092326A1092336AF49F0092346A0F
:103F00001092356A1F900F904FCC4091596A4093A0
:103F1000586A40915B6A407F40935A6A40915F6A59
:103F200040935E6A40915D6A40935C6AE0E5F1E02F
:103F3000E0932E6AF0932F6AE093306AF093316A2F
:103F4000E0EFF0E0E093326AF093336AE093346A92
:103F5000F093356AF12FE5E643E247834FEF408760
:103F60002186428721CC20C04EC07BC09DC0BEC0F0
:103F7000BDC0BCC0BBC0BAC0B9C0B8C0B7C0B6C075
:103F8000B5C0B4C0B3C0B2C0B1C0B0C0AFC0AEC0A5
:103F9000ADC0ACC0ABC0AAC0A9C0A8C0A7C0A6C0D5
:103FA000A6C0F401CFBE0895ECE4E093576AE0E8C0
:103FB000E0930608E0E8E0930508E8E0F7E04091C8
:103FC000476AE41B4091486AF40BE093546AF0930B
:103FD000556AE093526AF093536AE1E0E093160B5E
:103FE000E093150BE998EBE0E0933504E0E0FFE0A7
:103FF0004091476AE41B4091486AF40BE093280A19
:10400000F093290ACECF4091526AF091536AE09121
:10401000546A4E1BE091556AFE0BF6954795F6954E
:104020004795F6954795E4E5F32D4083F32DEFE5AD
:104030004081E99941604083E0EEF0E14091476AB8
:10404000E41B4091486AF40BE093546AF093556A7C
:10405000E093526AF093536AE093280AF093290A96
:10406000A0CF20920608E998EBE0E0933504E0E762
:10407000F7E14091476AE41B4091486AF40BE093F2
:10408000280AF093290AE091576AEC54E0934E6AAB
:10409000EEE4E093576AE1E0E093160BE093150B32
:1040A000E0E8E09306087DCF4091526AF091536AB0
:1040B000E091546A4E1BE091556AFE0BF6954795C8
:1040C000F6954795F695479511F420920608E5E593
:1040D000F32D4083F32DEFE54081E9994260408361
:1040E0002092150BFFEFF093390A5BCF5ACFFFEF09
:1040F000F093390A56CF4093566AE093380AF0930A
:10410000390A08954093566AE093280AF093290AE1
:104110000895FF0F4795FF0F4795FF0F4795FF0F36
:104120004795FF0F4795FF0F4795FF0F4795FF0FE7
:1041300047950895FFFFFFFFFFFFFFFFFFFFFFFF12
:1090000087C0FFCFFFC7FFCFFFC7FFCFFFC7FFCF8F
:10901000FFC7FFCFFFC7FFCFFFC7FFCFFFC7FFCF00
:10902000FFC7FFCFFFC7FFCFFFC7FFCFFFC7FFCFF0
:10903000FFC7FFCFFFC7FFCFFFC7FFCFFFC7FFCFE0
:10904000FFC7FFCFFFC7FFCFFFC7FFCFFFC7FFCFD0
:10905000FFC7FFCFFFC7FFCFFFC7FFCFFFC7FFCFC0
:10906000FFC7FFCFFFC7FFCFFFC7FFCFFFC7FFCFB0
:10907000FFC7FFCFFFC7FFCFFFC7FFCFFFC7FFCFA0
:10908000FFC7FFCFFFC7FFCFFFC7FFCFFFC7FFCF90
:10909000FFC7FFCFFFC7FFCFFFC7FFCFFFC7FFCF80
:1090A000FFC7FFCFFFC7FFCFFFC7FFCFFFC7FFCF70
:1090B000FFC7FFCFFFC7FFCFFFC7FFCFFFC7FFCF60
:1090C000FFC7FFCFFFC7FFCFFFC7FFCFFFC7FFCF50
:1090D000FFC7FFCFFFC7FFCFFFC7FFCFFFC7FFCF40
:1090E000FFC7FFCFFFC7FFCFFFC7FFCFFFC7FFCF30
:1090F000FFC7FFCFFFC7FFCFFFC7FFCFFFC7FFCF20
:1091000001002BC1020100003714DE688BCA88BD44
:10911000A895F8942224EFE1FAE6EDBFFEBFECE05B
:10912000D4D4E8EDF3E0E4BFF093600000C000C0E9
:10913000E0916300E1FDFCCFE8EDF1E0E4BFF093E6
:109140006200BBD4E0E0FAE6C0E0DEE021922197C5
:10915000E9F764D409F067D473D409F076D4EFB397
:10916000E0930268E0910468E395F999E09304685C
:10917000E0910368E395FB99E0930368E091006850
:10918000F09101683196E0930068F093016841D452
:1091900040D4A2D4E8E0E0933304E0933204E093B7
:1091A0003404E0933104E0933004E0E6F8E02682F2
:1091B000A0E6B0E0A087B187A0E0A583A3E0A783E5
:1091C000AAE4A683239822982498219820982B9883
:1091D0002A98E0E0FBE02082218224862586AFEFFA
:1091E000A6837AD4CFD355D4A895E8EDE4BFE8E0C0
:1091F000E0930001EFD4AA98A29AB5C04AC5EDC584
:1092000041C5F6C50CC549C562C56BC57EC5ABC5B4
:10921000CDC5C2C0C1C0C0C0BFC0BEC00C9410008C
:109220000C9411000C9412000C9413000C94140074
:109230000C9415000C9416000C9417000C94180054
:109240000C9419000C941A000C941B000C941C0034
:109250000C941D000C941E000C941F000C94200014
:109260000C9421000C9422000C9423000C942400F4
:109270000C9425000C9426000C9427000C942800D4
:109280000C9429000C942A000C942B000C942C00B4
:109290000C942D000C942E000C942F000C94300094
:1092A0000C9431000C9432000C9433000C94340074
:1092B0000C9435000C9436000C9437000C94380054
:1092C0000C9439000C943A000C943B000C943C0034
:1092D0000C943D000C943E000C943F000C94400014
:1092E0000C9441000C9442000C9443000C944400F4
:1092F0000C9445000C9446000C944700209200709A
:10930000209219702092327020924B7020926470DB
:1093100020927D70209200712092197120923271FA
:1093200020924B712092647120927D712092007284
:10933000209219722092327220924B7220926472A3
:1093400020927D72209200732092197320923273C2
:1093500020924B732092647320927D730895EBEFFB
:1093600033943E220895A6D117C0E29AD6D103D2F3
:1093700085E611D411C0E29AD0D100D28EE70BD489
:109380000BC0E29ACAD1FDD183E205D405C0C5D194
:10939000ECD18EE200D400C0239820926608A3D3BB
:1093A000E0D3EFE1FAE6EDBFFEBF92D315D0D7D1FF
:1093B000EBD1F1D1FFD1B1D191D101D007C2E09170
:1093C000706CE15040F0E093706C29F4EAE7E093B0
:1093D00042080C9400100895E19990DFE79BBFDFED
:1093E000E299AAD1ECB3E973ECBB00C00FD30AD366
:1093F0002DD0CC24E601D50187E165D0F0936F6CC8
:1094000087E161D0F0936F6C87E15DD0F0936F6C72
:1094100087E159D0F0936F6C87E155D0F0936F6C72
:109420008FE751D0FD2DE1E0E081E7FD06D0E69B1E
:1094300007D0E4E0E093A7040895E69AE79A089538
:10944000E1E0DE26EBEFB394BE2237C0A895209270
:1094500066082092000BE0E0F0E0E0930A0BF09346
:109460000B0B20920C0B20920D0BEFEFE093060BF1
:10947000EAECE093660887E0C1E7DCE63199FECFCD
:10948000E3E0E093000B229AE4E0E093A704E0E03D
:10949000FFE80090640807FEFCCF00906108109080
:1094A000600802FC62CF1992E125E0818A958AF773
:1094B000E0936F6C209266080895E1E7FCE6C7E44C
:1094C000D8E687E042C2EAECE09366089D91E6990F
:1094D0009E7F219690FD239AE0E0FFE80D90319960
:1094E000FECF90FD009262080D9090FD0092620800
:1094F0000090640807FEFCCF00906108109060089F
:1095000002FC33CF1992E125E0818A9589F362F755
:10951000F0916F6CFE2B23982092660808950C94AE
:10952000AA0C0C94A50C0C94B30CABD0E9E7FCE6A8
:1095300087E1F7DF93C0A5D0E9E7FCE68DE0F1DF36
:10954000E7E4F8E683E0EDDF83E0E9DF7BC099D074
:10955000D32DCEE780E8E0E0F9E6E3DF12C091D05A
:1095600010C08FD0F6018AE0DCDFE6E4F9E683E0A4
:10957000D8DF8AE0D4DF72C089D083D0E9E7FCE687
:1095800003C084D07ED0F6018FE0CBDFD32DCEE7B1
:10959000AFE7B0E04FDEF32DEC2D3F96A193B193F2
:1095A000C193D1934FC0E60188E1BDDF09F408956E
:1095B000E2CEE601A2E1B0E03DDEF60173966DC0B9
:1095C000DD2DCEE7AFE7B0E035DEF6013F9665C0B2
:1095D000E091276AE211DBCEE601E985F091226A8B
:1095E000EF23FA95F093226AE211D1CE86C0E6010C
:1095F000E985F0916C6CF211EF13C9CE08950895CE
:10960000E0916D6CE0FFC3CE0895E0916D6CE0FDDC
:1096100004C08091236A8211BACE0895FFDDA9911A
:10962000B9910D010128AE17BF07021051F4F8DD02
:10963000A991B9910D010128AE17BF07021009F4D5
:109640000895A5CED32DCC2DA2E1B0E0F3DDF32D0E
:10965000EC2D7396A193B193C193D193D32DCC2DBF
:1096600087E161DFE9930895DF93CF93C82F0E94CC
:10967000D20CEF91FF91A193B193C193D193EF01DC
:109680000895CC2DCA9504C0C4E602C0CDE700C041
:10969000D32D888181608993089501900A126BCE41
:1096A00001900B1268CE01900C1265CE01900D1244
:1096B00062CE0895E3E0E093216AE0E0F4E76F0111
:1096C000E0E0F0E75F01F2E73F2E20926D6C209220
:1096D000246AE6ECECBBC5D01DD00FC0E799089515
:1096E000FD2DE2E0808180FD01D00895E091276AA0
:1096F000E211EA95E093276A0895E0914801FFE0BE
:10970000F491F093226A2092276A0895EAE0E093A8
:10971000276A08952092236A0895F32DE0E02082BD
:10972000F32DE9E12082E2E32082EBE42082E4E60B
:109730002082EDE720820895F0E7BF2EF2E73F2E6A
:10974000DDCDE4E1F9E62192E033E9F708952092D6
:10975000480120924901E1E0E09343010895E0E8E7
:10976000F9E6E7C0E4E8F9E6E4C0E8E8F9E6E1C0D4
:10977000E0E9F9E6DEC0ECE8F9E6DBC0E4E9F9E6A9
:10978000D8C0E8E9F9E6D5C0E0916F6C20926F6C23
:10979000E211F1CD0895E7990895DD2DC5E0E88146
:1097A000F0916E6CF395E0936E6CEF1709F40895E9
:1097B000E29AE7CDDD2DC0E0EC85E093216AE799E0
:1097C00003C3EB85E77FFBE00C94420D1ED0EBDE7C
:1097D00037C0E091C068F091C168C3E301D015C003
:1097E000DD2DCC2E888199819F3F49F4803051F046
:1097F0008F3F51F00090246A801521F005C08E172C
:109800009F0711F40F900F900895CAE1DD2DCC2E23
:1098100080E090E0E0E0F9E60990119080290124D1
:109820009029E830C9F7803011F09211B0CDE0E016
:1098300009F0E1E0E0936D6C0895E601EA8102C071
:10984000E601E885E03120F4F0E0E250F74F0994BA
:109850009ECD20926C6C2092686CECB3E260ECBB05
:10986000089501D042C0E0E0F9E60E942209EF012C
:109870000E940E09E993F9930E941009E993F99364
:109880000E94BC0CE993F9930E94BF0CE993F993F1
:109890000E941209E993F9930E941409E993F9933C
:1098A00082E0E2DE81E0E0DE83E0DEDE84E0DCDE3A
:1098B00087E0DADE85E0D8DE86E0D6DEE0E1F1E1C1
:1098C00080E12FDEE8E1F0E0E993F9932196E0E012
:1098D000F1E183E026DE809102688993809100683F
:1098E0008993809101688993089509D081E08993D3
:1098F000E8E0F9E68CE015DE299229920895C9E79F
:10990000DCE6E0E0F9E688E00CCE0C94CB0DF894B0
:109910008AD0F8949AD00C945809F8947AD08BD0C5
:109920000C9458090E944D0DF894A895FFCF0C9403
:109930005A098081918101968083918328F48281E4
:1099400093810196828393830895019009928A9569
:10995000E1F7089529928A95E9F7089520822182F6
:10996000228223820895E0E0FFE80990E025E0816B
:109970008A95D9F7EE230895E0E0F0E00895E0E05D
:10998000F0E00895E8E4FCE60E944609C8E2DAE661
:109990000E944809E8E2FCE60E944609C8E2DAE6CD
:1099A0000C944809E8E4FCE60E944A090C943A0940
:1099B0001FD005FE0EC001800DC01AD006FE09C0E2
:1099C00001800AC015D007FE04C0018007C010D076
:1099D00039F00895000C111C000C111C000C111C16
:1099E00010820FB6F8942182228223820FBE08953E
:1099F0001180100C11821280121C128203800394B9
:109A0000038208952298349BFECF08953499FECFA7
:109A10000895C0E0D8E6A4E0B0E01FC0C0E0D8E6FA
:109A2000A8E0B0E027C0C0E0D8E680E493DFEFEF25
:109A3000E09309680895C0E4D8E6A0E0B0E00DC066
:109A4000C0E4D8E6A4E0B0E015C0C0E4D8E680E801
:109A500081DFEFEFE093456808950E941A09F00155
:109A6000A095B095C095D095A083B183C283D383D0
:109A7000248208950E941A09F00180830895E2E08B
:109A8000F2E000C0EF23F0950090206A0F22E02959
:109A900006C0E0E004C0EFEF02C0EBE000C0E093DE
:109AA000206A00C0E091206A0C941809EF23F09519
:109AB0000090216A0F22E02908C0E0E006C0E5E539
:109AC00004C0EFEF02C0EFEF00C0E093216A00C0D6
:109AD000E091216A0C941609442455240895AA980B
:109AE0000895AA9A0895B39904C0E5E5B19B0C9432
:109AF000440900C0E0914408E7FF0895E091400860
:109B0000E093007608958F93892F0AD08F9108C033
:109B10008F93892F05D08F9100C002D08CE23BC07B
:109B200001D003C08F93829501C08F938F70805DA9
:109B30008A3308F0895F2FD08F9108958AE02BD067
:109B40008DE029C00F01451451F0F0914408F5FF54
:109B500006C0F7E7E52DF081F09342085394F00139
:109B60000895451459F0F0914408F5FFFACFF7E74E
:109B7000E52DF081F09342085394F3CF0895C42D5E
:109B8000D7E70190002029F00882C395C511F9CFCD
:109B9000CA954C2ED8CF0F01F201FA95EF1719F0A4
:109BA000F7E780834394CFCF8F938E2FF201FA95FE
:109BB000EF1719F0F7E7808343948F910895899107
:109BC000ACDF9A95E1F70895899182118813089581
:109BD000E2DFFACFC8EEDBE9F7DF80910268A0DFB1
:109BE000C8EFDBE9F1DFBDCF0A0D1B5B34346D2E0E
:109BF0002E2E5B424C442D005D1B5B6D0A0D000058
:109C0000C8E0DCE9E1DFADCF0A0D1B5B34336D2E1C
:109C10002E2E5B5550445D1B5B6D0A0D0000F0DC81
:109C2000C8DC74DD82E671DEC0911A69D0911B69CF
:109C3000CF3221F5D13C11F542DF93DFE601898572
:109C40008093C268888999898093C3689093C46817
:109C50008E859F858093C0689093C1680E941B0D7C
:109C6000E6018A8980FF05C0E8EDE4BFE5E8E093FE
:109C7000011082E08093706C74DC8ECBECB3E260F8
:109C8000ECBB85CBBDDC95DC41DD81E73EDE5FDCF6
:109C900083CB89E63ADE0C94CC09B7DCE6012A9640
:109CA000BDDC87DC33DD83E730DEE601EE85E09363
:109CB000686CE985E0936C6C4ADDC7E0E8E4FCE69B
:109CC000E9DAC091686CE8E2FCE6E4DA65CB9DDC99
:109CD000E6012A96A3DC6DDC19DD85E716DEB9DD29
:109CE0005BCB8EDC66DC12DD82E70FDEF601A2853F
:109CF000B385D32DCEE78585813808F048CB0D900C
:109D000009928A95E1F72BDC47CB71DC7EDC51DCD4
:109D100057DCFCDC1CDD87E7F8DDF60182859385E6
:109D2000F7DEF6018585F9DE2298239820926608F1
:109D30002E9807DDA0E8B0E0DD2DCEE7E8E4FCE6F4
:109D4000ABDAF601C285D385E8E2FCE683DAE60108
:109D5000AD85B0E0C8E4DCE6E8E2FCE6A1DAECB30D
:109D6000E260ECBB19CB43DC50DC23DCCFDC86E6C5
:109D7000CCDDF60182859385CBDE6BDDE2DC2298BB
:109D80002398209266082E98E8E2FCE68FDAF60126
:109D9000C285D385E8E2FCE65DDAE6018D8582DAEC
:109DA00085DA61DDECB3E260ECBBF6CA28DCE601E3
:109DB0002A9634DCFEDBAADC8DE6A7DDF601818580
:109DC0008093236A0C94CC098DE29FDDE8E0F8E0F3
:109DD0000E94420DC7DC0C94CC0917DCE6012A96E0
:109DE0001DDCE7DBF5DB80E790DD7FDDA4DBD4CA9B
:109DF0000CDCE6012A9612DCDCDB88DC82E585DD02
:109E000057CAFFFFFFFFFFFFFFFFFFFFFFFFFFFF3F
:00000001FF
