:020000020000FC
:100000000C943E000C940F020C940F020C94A5016A
:10001000C9C1CBC1CDC1CFC1F2C0DFC0B5C5B6C566
:10002000CFC1CCC1D4C17DC382C307C40AC493C3AA
:100030009DC3A4C337C410C41EC487C37CC380C37C
:10004000B0C4E3C1D7C1DCC120C325C330C331C3B1
:1000500039C345C35CC360C36BC4E9C0EFC062C4AD
:1000600095C39FC37BC3BBC4C4C4D9C4E9C6ECC693
:10007000EEC6F0C6F5C603C713C791C1F894222493
:10008000E7E2F9E6EDBFFEBFE4E0E0938000E8EDD3
:10009000F7E0E4BFF0930001A895E8EDF4E2E4BFD7
:1000A000F0936800E0914000E0934000EFBBE8ED82
:1000B000E4BF209201102BBE20B824B828B82CB879
:1000C00020BA24BAE8EDF0E6E4BFF0931001E09125
:1000D0004101E211FCCF2092480120924901E1E068
:1000E000E0934001E0E0E093E205E3E0E093E30524
:1000F000ECE0E093E405069A079A049AE4E0E093C2
:100100004109E1E3E0934009E8E0E093B204E093C1
:10011000B304E093B104E093B004E0E4F8E0268295
:10012000A0ECB0E0A087B187A0E8A583A3E0A783F7
:10013000A2ECA683A398A198AA9AA89AA29AA09A98
:10014000039AA49AA598AD9846D058D0F89902C0C1
:10015000F99B06C0E0E0F0E6AFEFA193F836E8F3D4
:10016000E0E0F8E62192F038E8F3E0914801F09100
:100170004901F230D0F3E2E030D03CD0B39B0BC069
:1001800000900090009429F0C2E0FBD4A7D409F4B9
:1001900059C1E1E03AC1E0E0FAE020822182228206
:1001A0002382AFE0A083E0E0FBE020822182AEE684
:1001B000B1E0A487B587A1E0A583A5E0A083AED276
:1001C000B3D2789406D016D0C2E6D2D4E0E0E2D121
:1001D00054C0E0E002C0EFEF00C0E0FF0B9AE0FD8A
:1001E0000B98E1FFAC9AE1FDAC98E3FFA59AE3FD23
:1001F000A5980895E0E003C0E5E501C0EFEFE695BE
:10020000FF1FE695FF1FE695FF1FE695FF1FE6958A
:10021000FF1FE695FF1FE695FF1FE695FF1FF09372
:10022000440904D003D002D00F980F9A0895E8ED46
:10023000F1E0E0933400F0934100FFCFA895E8EDA2
:10024000E4BFE1E0E0930001FFCFB4D3FDD296819B
:10025000A8D30C92A5D3B3C3ADD3A2D39781A1D316
:10026000F3D209901C9001100C9211960197C9F7D6
:1002700097D3A5D30895F2E44111E7E2F9E6EDBF83
:10028000FEBF222734E0EAE285D1C091006979D42B
:1002900026D1203491F324FD10C026FFF9CFE6E2E9
:1002A000F3E0059000160590159019F4F0010995FA
:1002B000E4CFEA34B1F720FFEBCF003449F7622FE7
:1002C0006370613029F72062F7D07A3B21F4623104
:1002D000A1F62061DDCF24FFD0CF7B3B39F469301C
:1002E00060F6C62F4ED4246031E0D2CF7C3B21F49F
:1002F00022FFC3CF7DD1CCCF7F3B51F6603011F4CC
:100300000AD0BBCF613009F40AD0B7CF68E070C122
:10031000C02F2ED4B2CF6CD3EEED3CD1AECF7ED376
:10032000ECEE38D1AACF53180252FF016486016166
:100330008801628801638801658801668801738885
:10034000017588016C8801003D01EFB64F01E09115
:100350004408E7FF13C0E72DE619E03C23FF08F04F
:10036000AA9AE0914108E2FD82C0F0E7E72D709083
:10037000400871927E2EF401EFBE1895E091060BB5
:10038000E093060B761411F442104A943A9422F446
:10039000332EE8E0E0930704F401EFBE1895E0E0A7
:1003A000F0E00895EDE0F0E00895E0E2F1EC08956A
:1003B000E1E0F0E00895E0E2F1EC089503D0E6C357
:1003C00001D0E2C3AFE0B0E0C0E1D1E10895F8DFD1
:1003D000A193B193C193D193F1DFA193B193C19351
:1003E000D1930895DFEF672C94D06710FBCF21974E
:1003F000D9F7089517D048F00895EBE001C0EAE07E
:10040000FEDE2092480120924901A895F894AA980E
:10041000F0E208D0E8F7F3DEF0E404D0E8F7D9DE44
:10042000E9DE05CF0090480100904901F0150895DC
:10043000C0910069A6D352D3C9F4CF3211F0CB32A8
:10044000A9F4D0DF209245082092000A2092000BE8
:100450002092050B20924801209249018ED1FE0185
:10046000E050F048F695E795F894099411CFF89488
:1004700020924608AA98E8E0B0DEE5E5C0DEEFEF9E
:10048000A89500C000C000C0E211EA95B19BF8CF6A
:10049000E211F5CFC4CF8E2F9927B1DEE8E09DDEC3
:1004A000E4EA78D0F0910100E2E0F3FDEAE095DEC5
:1004B00032E0672C2ED0F6CF04D0702F02D0602F00
:1004C000089507D002950F9304D00F900029F00EE5
:1004D000089505D00F7D075308F4095D089519D0DC
:1004E000421002C025FDC9CE7614C9F3F0E7E62D0F
:1004F00000816394206442102F7B26FD2F7EFBE059
:100500004F2E21FF23950A3011F00D3009F42C7F76
:1005100000C00F01A89523FD06C0E72DE619E032C3
:1005200018F4AA9801C0AA9AF0010895019101D087
:1005300003C00F93029501C00F930F70005D0A3343
:1005400008F0095F1BD00F910895092FF0DF082FE5
:10055000EECF0AE013D00DE011C0E0E0F1E1E6DFFC
:10056000E5DFE4DF0EE20AD029DFCE01EEDFCD01C8
:10057000ECDF26DFCE01E9DFCD01E7CFD8E1C9DF2F
:100580000090440805FEFBCF2197B399C1F7009373
:1005900042080895E0930169FDE0E0910169059149
:1005A0000EBBE0930169002391F012F0E7DFF4CF76
:1005B000F1990ED0F29911D0F399C7DFF499CDDFFC
:1005C000F69913D0F599ADD2F099C3DFE5CF089530
:1005D000C591E0930169D5D28BC20090006910905B
:1005E00031690AE210100895C9CF09E0C7DF82C25D
:1005F0006CBBE099BAD2E19907D0E3999AD2E69917
:1006000021CFE799FACE089517D1B7D0C0930269E8
:10061000D093036964DF20FFFDCF0A33D9F751DFA0
:10062000502EF02E49DFC0910269D0910369C60FA8
:10063000D71F47DF003031F00130F1F0023069F0B0
:10064000E4E029CFFDD008945208A0F02AD1E5E0DB
:10065000C8F037DF802F0ED1F6CF2EDF660F771F61
:10066000660F771F660F771F660F771F609302690B
:100670007093036903D0CECF5AD100C022DFF214A9
:1006800011F0E6E008CF0895BBD0C9E4D3E049D02B
:100690004EC0A8950895C487D5870895C93008F03D
:1006A000C9E0DCE0CD9FE001CC59D5470895F6DFE5
:1006B000ADC0C083D183C48BD58BCA0FDB1FC2836F
:1006C000D3830895A68FA895C28FD38FD5D020F05D
:1006D000C28DD38D2197B9F70895AA27BB27C48F60
:1006E000D58FEC8FFD8FA895A28FB38FC48DD58D3C
:1006F000FE01B2D048F0C48DD58DFE01BCD020F0F3
:10070000A28DB38D119779F708958FEF79D0868FE9
:10071000A895B2D0E8F70CC1FADFFFCF71D0C4EED4
:10072000D4E0C68BD78B08956BD0CDEED4E0C08FCC
:10073000D18F089565D081D00ED018D025C260D059
:100740007CD009D013D022C25BD0F5DF02841384A1
:10075000C015D1050895C489D5890895C489D5895E
:1007600000801180C019D10908954AD0A281B381B7
:1007700004881588A019B109089542D0C081D1819B
:1007800008953ED0C281D38108953AD0008011806F
:10079000C281D381C019D10909F021960024021C1D
:1007A00008957CDFFE0100801180C281D381F2CFE9
:1007B0000C2EC0E7DAE81884101419F02C96C03D0E
:1007C000D1F70895DCE0CD9FE001CC59D5470895DD
:1007D000CE01C0E7DAE8088019808015910530F075
:1007E0000A801B808015910531F028F02C96C03DC1
:1007F00091F70894089588940895A0E0B1E70895CA
:10080000E8E2F9E60895FCDFA487B5878CE009905B
:1008100001928A95E1F73C97C481D5812197C095D3
:10082000D095C28BD38BC081D181C687D787C08B2F
:10083000D18B278E02D07EC0E3DFC081D18101C081
:10084000DFDFC48BD58B089584819581A685B7851C
:10085000C485D5850895D4DF25D038F0C489D589DD
:1008600050D020F08991C48BD58B089521968FEFBD
:100870000894F9CFC5DF868F15D090F053D0C4818E
:10088000D5812197A489B589CA23DB231196A48B2E
:10089000B58BA485B585CA0FDB1F868D88838894A8
:1008A0000895AEDF048810800114058811800104CA
:1008B00040F004881280011405881380010419F0A7
:1008C00010F008940895889408959ADFC489D58912
:1008D000A685B785CA17DB0730F0A089B189CA178A
:1008E000DB0719F010F0089408958894089588DFC4
:1008F000C685D78506D0A78DAE7F08F4A160A78FE7
:100900000895C034B0E1DB0748F0D63148F0D03666
:1009100028F0D03828F0D03908F002C008940895A3
:1009200088940895D3DF10F403D004D0089568DFCD
:100930002BD026C0C489D58902881388C021D12133
:10094000C687D78784819581C80FD91F2197C08B0F
:10095000D18BCEDF40F0A685B785C485D5850D90B7
:1009600009920197E1F70895078C00FC07C06CDF3E
:1009700009901D90011419F40197D1F71894089566
:10098000F3DF09F069CC0895078C00FC08955CDF63
:1009900009901D901020011058CC0197C9F70895B7
:1009A00090E0809102108370E1F78DE984BF90930D
:1009B0000010089506880F9207880F920895008C02
:1009C0000F92018C0F9208952860AA9AFF93F4E683
:1009D000A0DDFA95E9F7FF910895277F9ACDC2E04F
:1009E00066DE80E180930110B0DE20920110089550
:1009F00007DFEF01DFDF2BD069F09BE0D2DFE89566
:100A0000CFDF92E0CEDF00801180E8953296F03A99
:100A1000D1F7C6DFFE01D3CF02D010CCF1DEFF93B9
:100A2000EF93C8DFDCDF81F412D071F094919F3F27
:100A300059F09BE0B6DF0082B3DF92E0B2DF0490B2
:100A40000192F03AE1F7ACDFEF91FF91B8CFE0E02F
:100A5000F0E994918191891711F4F03AD1F7E0E02F
:100A6000F0E908950000FFFF010000002D000000E4
:100A700000A0FFFF0002080266012FC10090FF9F47
:100A80000002080262022BC10014FF1501001812B7
:100A900065032EC180109F102000080263042CC142
:100AA00000111F11010000007305000050105810C4
:100AB00001000000750600000060FF6700020000F2
:100AC00061072AC140104F10010000006C080000AF
:100AD00000110011010000002D09000035DEA09377
:100AE0000469B0930569C0930669D09307690895B6
:100AF000F5DF06C0E0E1E0930110F0DF2092011085
:100B0000EEEC09F4E4ED0ED090910769809106694E
:100B10001CDD909105698091046917DD02C0EEEC3F
:100B200001C0EAEDFDE00591002311F027DDFBCFC8
:100B300008950FDD81DEF3DF63DE8489958900E1AE
:100B4000080F090FF02EE0E925DD85DE38F0082FCB
:100B5000F00EEDDC55DE04890F70B9F7E0DFF1949B
:100B60000F2DE5DC9EDE40F7089566DECEDDDFCE9C
:100B700005D00091316900930069089519DE3DDECA
:100B800042CE20DE3ADE3FCEE89404C06894CA0F1D
:100B9000DB1F00C0EF93FF936FEF7FEFCB01FF27C9
:100BA000A8950EF019900EF41A9008941794062E3A
:100BB0000F1E969587957795679500FE08C0EDEE18
:100BC0009E27E8EB8E27E3E87E27E0E26E27169467
:100BD00071F7119728F790958095709560950E01A3
:100BE000DB01EC018623872389238095FF91EF9118
:100BF0000895FFFFFFFFFFFFFFFFFFFFFFFFFFFF66
:100D0000A1811B5B34316D2E2E2E5B524553455411
:100D10002D885DA11B5B34346D2E2E2E5B524F4D02
:100D20002E5254422E6273745D00A1814944205BAF
:100D3000905D814C3A208708523A201B5B33326D1C
:100D40004331325230303031A1533A208705553A81
:100D500020870681413A208707423A20C702433A5A
:100D6000208704453A208703463A20870181524F65
:100D70004D205B527C537C645D202D205B617C6246
:100D80007C637C657C667C6C7C737C755D3E20003E
:100D9000813A31301B5B39346DA81B5B39306D30C3
:100DA00030A0000081811B5B34356D2E2E2E5B45FB
:100DB00072726F722023885DA0202D203C627265C4
:100DC000616B3E20746F20726573756D65001B5BEF
:100DD00039306D001B5B33326D001B5B6D00A181F0
:100DE0001B5B34346D5B532D3E5D0000A1811B5BAA
:100DF00034346D5B3C2D525D0000FFFFFFFFFFFFB1
:100E0000ACAAA9A5A3A69C9A999593968E8D8BB111
:100E1000B2B4B874726C6A696563665C5A595553AA
:100E2000564E4D4B4771E8E4E2D1C9C5D8D4D2CA79
:100E3000C6CC78171B1D1E2E363A272B2D3539337D
:100E40001ED00ED01CD00CC00BD019D009C017D0AA
:100E500007D015C005D0E991EF73E081ED930895B7
:100E6000E991EF70F881FF0FEE1FFF0FEE1FFEE814
:100E7000E081ED93E991EF73E081ED930895FEE851
:100E8000E881E695E695E081ED93E991E370E295DE
:100E9000F881F07FF295EF2BFEE8E081ED93089565
:100EA000FEE8E881E081ED930895FFFFFFFFFFFF7B
:100F0000005EBCE2613FDD83C29C7E20A3FD1F41E9
:100F10009DC3217FFCA2401E5F01E3BD3E6082DCD9
:100F2000237D9FC1421CFEA0E1BF5D0380DE3C62C9
:100F3000BEE0025CDF81633D7C22C09E1D43A1FFB9
:100F40004618FAA427799BC584DA3866E5BB5907A9
:100F5000DB856739BAE406581947A5FB7826C49A99
:100F6000653BD987045AB8E6A7F91B45C6987A2489
:100F7000F8A6441A99C7257B3A6486D85B05E7B979
:100F80008CD2306EEDB3510F4E10F2AC2F7193CD69
:100F9000114FADF3702ECC92D38D6F31B2EC0E5059
:100FA000AFF1134DCE90722C6D33D18F0C52B0EE49
:100FB000326C8ED0530DEFB1F0AE4C1291CF2D7339
:100FC000CA947628ABF517490856B4EA6937D58B29
:100FD0005709EBB536688AD495CB2977F4AA481619
:100FE000E9B7550B88D6346A2B7597C94A14F6A809
:100FF000742AC896154BA9F7B6E80A54D7896B35F9
:1010000081C0FFCFFFC7FFCFFFC7FFCFFFC7FFCF15
:10101000FFC7FFCFFFC7FFCFFFC7FFCFFFC7FFCF80
:10102000FFC7FFCFFFC7FFCFFFC7FFCFFFC7FFCF70
:10103000FFC7FFCFFFC7FFCFFFC7FFCFFFC7FFCF60
:10104000FFC7FFCFFFC7FFCFFFC7FFCFFFC7FFCF50
:10105000FFC7FFCFFFC7FFCFFFC7FFCFFFC7FFCF40
:10106000FFC7FFCFFFC7FFCFFFC7FFCFFFC7FFCF30
:10107000FFC7FFCFFFC7FFCFFFC7FFCFFFC7FFCF20
:10108000FFC7FFCFFFC7FFCFFFC7FFCFFFC7FFCF10
:10109000FFC7FFCFFFC7FFCFFFC7FFCFFFC7FFCF00
:1010A000FFC7FFCFFFC7FFCFFFC7FFCFFFC7FFCFF0
:1010B000FFC7FFCFFFC7FFCFFFC7FFCFFFC7FFCFE0
:1010C000FFC7FFCFFFC7FFCFFFC7FFCFFFC7FFCFD0
:1010D000FFC7FFCFFFC7FFCFFFC7FFCFFFC7FFCFC0
:1010E000FFC7FFCFFFC7FFCFFFC7FFCFFFC7FFCFB0
:1010F000FFC7FFCFFFC7FFCFFFC7FFCFFFC7FFCFA0
:1011000051295C1FA895F8942224EFB3E0930A6854
:10111000EFE1FAE6EDBFFEBFECE010D4E8EDF3E05E
:10112000E4BFF093600000C000C0E0916300E1FD07
:10113000FCCFE8EDF1E0E4BFF0936200F9D3E0E02A
:10114000FAE6C0E0DEE021922197E9F705D4E8E075
:10115000E0933304E0933204E0933404E0933104E9
:10116000E0933004E0E6F8E02682A0E6B0E0A08755
:10117000B187A0E0A583A3E0A783AAE4A683239870
:1011800022982498219820982B982A98E0E0FBE058
:101190002082218224862586AFEFA683DDD36DD3FE
:1011A000B5D3E8EDE4BFE5E0E0930001A8954BD4AA
:1011B000AA98A29AB1C0BEC460C5B5C469C57CC4B2
:1011C000BDC4D6C4DFC4F2C41FC541C5BDC0BCC0C8
:1011D000BBC0BAC0B9C00C9408000C9409000C94B0
:1011E0000A000C940B000C940C000C940D000C9451
:1011F0000E000C940F000C9410000C9411000C9431
:1012000012000C9413000C9414000C9415000C9410
:1012100016000C9417000C9418000C9419000C94F0
:101220001A000C941B000C941C000C941D000C94D0
:101230001E000C941F000C9420000C9421000C94B0
:1012400022000C9423000C9424000C9425000C9490
:1012500026000C9427000C9428000C9429000C9470
:101260002A000C942B000C942C000C942D000C9450
:101270002E000C942F000C9430000C9431000C9430
:1012800032000C9433000C9434000C9435000C9410
:1012900036000C9437000C9438000C9439000C94F0
:1012A0003A000C943B000C943C000C943D002092BE
:1012B0000070209219702092327020924B70209210
:1012C000647020927D70209200712092197120929A
:1012D000327120924B712092647120927D71209224
:1012E0000072209219722092327220924B722092D8
:1012F000647220927D722092007320921973209262
:10130000327320924B732092647320927D73089500
:10131000EBEF33943E22089594D116C0E29AC2D1E5
:10132000EFD185E671D310C0E29ABCD1ECD18EE743
:101330006BD30AC0E29AB6D1E9D183E265D304C087
:10134000B1D1D8D18EE200C0239820926608FDD298
:1013500041D3EFE1FAE6EDBFFEBFF3D207D0C4D12F
:10136000D8D1DED1ECD19ED17ED1F5C1E1999FDFFC
:10137000E79BCEDFE299A5D1ECB3E973ECBB00C0EB
:1013800096D291D22DD0CC24E601D50187E165D04B
:10139000F0936E6C87E161D0F0936E6C87E15DD065
:1013A000F0936E6C87E159D0F0936E6C87E155D065
:1013B000F0936E6C8FE751D0FD2DE1E0E081E7FD09
:1013C00006D0E69B07D0E4E0E093A7040895E69AF0
:1013D000E79A0895E1E0DE26EBEFB394BE2237C032
:1013E000A895209266082092000BE0E0F0E0E093E0
:1013F0000A0BF0930B0B20920C0B20920D0BEFEFCE
:10140000E093060BEAECE093660887E0CFE6DCE6C3
:101410003199FECFE3E0E093000B229AE4E0E09301
:10142000A704E0E0FFE80090640807FEFCCF00900E
:1014300061081090600802FC71CF1992E125E081EB
:101440008A958AF7E0936E6C209266080895EFE61D
:10145000FCE6CCE0D8E687E0F8C1EAECE093660869
:101460009D91E6999E7F219690FD239AE0E0FFE80A
:101470000D903199FECF90FD009262080D9090FD85
:10148000009262080090640807FEFCCF009061089B
:101490001090600802FC42CF1992E125E0818A9504
:1014A00089F362F7F0916E6CFE2B23982092660808
:1014B00008950C942A0C0C94250C0C942E0CE60127
:1014C000E885E03120F4F0E0E552F74F099438CF99
:1014D0009FD0E7E7FCE687E1EEDF87C099D0E7E73A
:1014E000FCE68DE0E8DFECE0F8E683E0E4DF83E0B3
:1014F000E0DF6FC08DD0D32DCEE780E8E0E0F9E6E5
:10150000DADF02C085D000C088D082D0F6018FE03B
:10151000D2DFD32DCEE7AFE7B0E069DEF32DEC2DBF
:101520003F96A193B193C193D19353C0E60188E153
:10153000C4DF09F40895F8CEE601A2E1B0E057DE79
:10154000F601739671C0DD2DCEE7AFE7B0E04FDE58
:10155000F6013F9669C0E091266AE211E150E093FE
:10156000266AE211EDCEE601E985F091226AEF23C9
:10157000FA95F093226AE211E3CE84C0E601E98590
:10158000F0916B6CF211EF13DBCE08950895E091AA
:101590006C6CE0FFD5CE0895E0916C6CE0FD04C06A
:1015A0008091236A8211CCCE089515DEA991B9915C
:1015B0000D010128AE17BF07021051F40EDEA991EC
:1015C000B9910D010128AE17BF07021009F4089563
:1015D000B7CED32DCC2DA2E1B0E009DEF32DEC2D5A
:1015E0007396A193B193C193D193D32DCC2D87E161
:1015F00064DFE9930895DF93CF93C82F0E944D0CC9
:10160000EF91FF91A193B193C193D193EF0108950D
:10161000CC2DCA9504C0C4E602C0CDE700C0D32DCE
:10162000888181608993089501900A127DCE01908E
:101630000B127ACE01900C1277CE01900D1274CE5F
:101640000895E3E0E093216AE0E0F4E76F01E0E071
:10165000F0E75F01F2E73F2E20926C6CE4E0ECBB18
:101660009DD01DD00FC0E7990895FD2DE2E0808147
:1016700080FD01D00895E091266AE211EA95E09399
:10168000266A0895E0914801FFE0F491F093226A00
:101690002092266A0895EFE0E093266A089520924A
:1016A000236A0895F32DE0E02082F32DE9E1208202
:1016B000E2E32082EBE42082E4E62082EDE7208270
:1016C0000895F0E7BF2EF2E73F2EF1CDE4E1F9E611
:1016D0002192E033E9F708952092480120924901D0
:1016E000E1E0E09343010895E0E8F9E6A2C0E4E810
:1016F000F9E69FC0E8E8F9E69CC0E0E9F9E699C0A0
:10170000ECE8F9E696C0E4E9F9E693C0E8E9F9E621
:1017100090C0E0916E6C20926E6CE21105CE08953F
:10172000E7990895DD2DC5E0E881F0916D6CF395A2
:10173000E0936D6CEF1709F40895E29AFBCDDD2D6F
:10174000C0E0EC85E093216AE7998FC2EB85E77FE3
:10175000FBE00C947F0C02D0E9DEB1CECAE1DD2DB6
:10176000CC2E80E090E0E0E0F9E60990119080292D
:1017700001249029E830C9F7803011F09211E0CDB2
:10178000E0E009F0E1E0E0936C6C089520926B6C6E
:101790002092676CECB3E260ECBB089501D037C0D7
:1017A000E0E0F9E60E94FF08EF010E94EB08E993F0
:1017B000F9930E94ED08E993F9930E94370CE9939D
:1017C000F9930E943A0CE993F9930E94EF08E99388
:1017D000F9930E94F108E993F99382E00CDF81E02C
:1017E0000ADF83E008DF84E006DF87E004DF85E0CE
:1017F00002DF86E000DFE0E1F1E180E15CDEE8E1CC
:10180000F0E0E993F993E0910A68E993089509D02B
:1018100081E08993E8E0F9E68CE04DDE2992299297
:101820000895C7E7DCE6E0E0F9E688E044CE0C94F2
:10183000040D8081918101968083918328F48281B7
:1018400093810196828393830895019009928A95EA
:10185000E1F7089529928A95E9F70895E0E0FFE815
:101860000990E025E0818A95D9F7EE230895E0E01C
:10187000F0E00895E0E0F0E00895E7E4FCE60E947F
:101880002309C7E2DAE60E942509E7E2FCE60E94A6
:101890002309C7E2DAE60C942509E7E4FCE60E9496
:1018A00027090C9417092298349BFECF0895349988
:1018B000FECF0895C0E0D8E6A4E0B0E00EC0C0E0DE
:1018C000D8E6A8E0B0E014C0C0E0D8E680E0C2DF0F
:1018D00000C0EFEFE0930968089589DCF001A0955E
:1018E000B095C095D095A083B183C283D38308956A
:1018F0007EDCF00180830895E2E0F2E000C0EF2397
:10190000F0950090206A0F22E02904C0E0E002C0B8
:10191000EFEF00C0E093206A00C0E091206A0C94D1
:10192000F508EF23F0950090216A0F22E02906C008
:10193000E0E004C0E5E502C0EFEF00C0E093216AFB
:1019400000C0E091216A0C94F308B39904C0E5E566
:10195000B19B0C94210907C0442455240895AA98EA
:101960000895AA9A0895E0914408E7FF0895E09148
:101970004008E093007608958F93892F0AD08F91C5
:1019800008C08F93892F05D08F9100C002D08CE2C0
:101990003BC001D003C08F93829501C08F938F709D
:1019A000805D8A3308F0895F2FD08F9108958AE097
:1019B0002BD08DE029C00F01451451F0F09144085F
:1019C000F5FF06C0F7E7E52DF081F0934208539448
:1019D000F0010895451459F0F0914408F5FFFACF4D
:1019E000F7E7E52DF081F09342085394F3CF089583
:1019F000C42DD7E70190002029F00882C395C511B6
:101A0000F9CFCA954C2ED8CF0F01F201FA95EF17F6
:101A100019F0F7E780834394CFCF8F938E2FF20195
:101A2000FA95EF1719F0F7E7808343948F910895A3
:101A30008991ACDF9A95E1F7089589918211881315
:101A40000895E2DFFACFCAE5DAE9F7DF80910A68A4
:101A5000A0DFCAE6DAE9F1DFBDCF0A0D1B5B343443
:101A60006D2E2E2E5B424C442D005D1B5B6D0A0DCE
:101A70000000CAE7DAE9E1DFADCF0A0D1B5B3433C2
:101A80006D2E2E2E5B5550445D1B5B6D0A0D0000C4
:101A9000C2EADAE9D2DFC0E0D8E690E1C9DF87DF49
:101AA00099CF0A0D1B5B34326D2E2E2E5B415050A8
:101AB0005D1B5B6D202D20006ADD3EDDECDD82E6E6
:101AC000B6DEC0911A69D0911B69CF3241F5D13C85
:101AD00031F522982398209266082E982BDF7ADF22
:101AE000E6018985809302688889998980930368D3
:101AF000909304688E859F85809300689093016819
:101B00000E945A0CE6018A8980FF0C940010E8EDCF
:101B1000E0933400E5E8E09301100C940010ECB37E
:101B2000E260ECBB0DCC33DD07DDB5DD81E77FDEA8
:101B3000E1DC0ACC89E67BDE0C94A4092DDDE6010C
:101B40002A9633DDF9DCA7DD83E771DEE601EE8559
:101B5000E093676CE985E0936B6CBEDDC7E0E7E47A
:101B6000FCE675DBC091676CE7E2FCE670DBECCB72
:101B700013DDE6012A9619DDDFDC8DDD85E757DE12
:101B800005DEE2CB04DDD8DC86DD82E750DEF6013F
:101B9000A285B385D32DCEE78585813808F0D0CBDB
:101BA0000D9009928A95E1F7ADDCCECBE7DCF4DC51
:101BB000C3DCC9DC70DD90DD87E739DEF6018285A4
:101BC0009385DFDEF6018585E1DE22982398209259
:101BD00066082E987BDDA0E8B0E0DD2DCEE7E7E4D7
:101BE000FCE637DBF601C285D385E7E2FCE60FDBD6
:101BF000E601AD85B0E0C7E4DCE6E7E2FCE62DDB1C
:101C0000ECB3E260ECBBA0CBB9DCC6DC95DC43DD19
:101C100086E60DDEF60182859385B3DEB7DD56DDFF
:101C200022982398209266082E98E7E2FCE61BDBB8
:101C3000F601C285D385E7E2FCE6E9DAE6018D85A7
:101C40000EDB11DBADDDECB3E260ECBB7DCB9EDCEB
:101C5000E6012A96AADC70DC1EDD8DE6E8DDF601E1
:101C600081858093236A0C94A4098DE2E0DDE8E08D
:101C7000F8E045DE3CDD0C94A4098EDCE6012A96F2
:101C800094DC5ADC68DC80E7D2DDC1DD27DC5CCB8C
:101C900083DCE6012A9689DC4FDCFDDC82E5C7DDCA
:101CA000E4CAFFFFFFFFFFFFFFFFFFFFFFFFFFFF94
:1020000059C1000081E04CC182E04AC183E048C16F
:10201000E4C0000085E044C186E042C173D076C0D0
:1020200088E03EC17ED081C08AE03AC18BE038C1F1
:10203000DAC00000DBC000008EE032C18FE030C1AA
:1020400080E12EC181E12CC182E12AC1DAC0000009
:1020500084E126C185E124C186E122C187E120C156
:102060008FC0000089E11CC18AE11AC18BE118C14F
:102070008CE116C16AC000008EE112C18FE110C16F
:1020800080E20EC181E20CC182E20AC183E208C192
:1020900084E206C185E204C186E202C187E200C192
:1020A00088E2FEC089E2FCC08AE2FAC08BE2F8C096
:1020B00061C000008DE2F4C08EE2F2C08FE2F0C099
:1020C00080E3EEC081E3ECC082E3EAC083E3E8C0D2
:1020D000A3C0000085E3E4C086E3E2C087E3E0C07C
:1020E00088E3DEC089E3DCC08AE3DAC08BE3D8C0D2
:1020F0008CE3D6C08DE3D4C08EE3D2C08FE3D0C0D2
:10210000858B65DF31E030930B0A1895CFB64F0110
:10211000E52FE33520F4F0E0E853F64E0994EFE0C4
:1021200070C730E130930B0A1895CFB64F01E0919C
:102130003A6AE395E0933A6AEA95EC3120F4F0E0EC
:10214000EE57F34E0994E0E15CC77FB660900B0058
:1021500038E062FE03C0309352045A9A63FE03C013
:10216000309353045B9A3091316A36293093316A47
:102170007FBE189538E030933504E99A3D9A18955A
:102180003F01E091446AF091456A30911006319325
:10219000309111063083E091466AF091476A31919F
:1021A00030930C063191309308063191309301063B
:1021B00031913093A00031913093446A3191309342
:1021C000456A319130930B06319130930A06E093C2
:1021D000466AF093476AF30118953F01E1E0E09306
:1021E0005301F30118953F01F501099460901C0B10
:1021F00070901D0B6092366A7092376A2092150BB0
:1022000018953F0130910008E0913B6AF32D31931E
:10221000E0933B6AF30118953F013091610832FD6C
:1022200018C030916008E32FFFB7E227FFBFFFE03F
:102230002081F8013193F091356AEF1301C0E498E1
:102240000E2FE49B04C0FD2D318130936208F30111
:102250001895E498239822982092050B20926508FF
:1022600020926608E598E29AE19AF12FE1E03FEFCB
:1022700030833FB7E0918C69F0918D693196E0939E
:102280008C69F0938D6948F4E0918E69F0918F69C3
:102290003196E0938E69F0938F693FBFF3011895F3
:1022A000F894239822982092650820926608E82FD7
:1022B0000C940118A895F8942224E8EDE0933400DA
:1022C000E5E8E0930110E8EDE4BF20921001EFE1B2
:1022D000FAE6EDBFFEBFE0E0FAE6C0E0DEE0219204
:1022E0002197E9F7A0910268A03110F0EBE152C408
:1022F000B0E0BA9FF001B6E0BA9FF00DE05AFF4F90
:10230000E093206AF093216AAF50A195B0E0BA9FA4
:10231000F001B6E0BA9FF00DE093226AF093236AD1
:10232000E8E0E0931104E0933504E0E0F8E0268271
:10233000A0E8B1E0A087B187A0E0A583A3E0A783D0
:1023400001982598E0EAF0E0A0E0A083A1E0A28354
:1023500089988A98819A829AE0E0F6E0A1E1A083C8
:10236000A0E0A183A6E0A283A0E0A383A0E0A483D1
:102370002092A2062092A306E1E4E093A006209218
:10238000650820926608A4E0A093E605E0E8E093E3
:102390009104E0939204E0E0FAE02082A6E0A283B8
:1023A000BFEFB0A7B1A7B2A7B3A7B4A7B5A7B6A30D
:1023B00027A220A221A2A3E6A183AFEFA387A1E1D8
:1023C000A287E0E0FBE02082A0E0A1832582E0E19B
:1023D000FBE0A5E1A083A2E0A1832582A1E5A4837F
:1023E000A1E4A0931002A1E0A0934102A0E8A09371
:1023F0001102A2E0A0932C02A0915101A0FDFCCFFC
:10240000A1E2A0935001A1E0A093520103D4A895AA
:10241000E8EDE4BFE4E0E093000183D685D61ED664
:102420002FD01BD7789470C00FC07BC07AC00EC06D
:1024300078C077C076C075C074C073C072C008C061
:1024400070C06FC06EC06DC00C94EB170C94F71782
:102450000C942A126CD440D483E7BBD58BE08093D4
:10246000976C9091146D80910611891B9091156D58
:1024700080910711890B88578093986CF9D355C0C8
:102480002DBA5527E1E0E093000A089520920070EC
:10249000209219702092327020924B7020926470BA
:1024A00020927D70209200712092197120923271D9
:1024B00020924B712092647120927D712092007263
:1024C000209219722092327220924B722092647282
:1024D00020927D72209200732092197320923273A1
:1024E00020924B732092647320927D730895EBEFDA
:1024F00033943E220895EBEFD394DE220895E1E079
:10250000F12E1E27089508956CD4FDDF0EC09CD4D3
:10251000CFD483E25ED609C097D4C7D48EE759D60C
:1025200004C092D4B9D48EE200C0EFE1FAE6EDBF68
:10253000FEBFF0D534D689D306D0A8D4C3D4D1D425
:1025400083D436D0DAC4E599FECFE1999FDFD9D2A2
:10255000E89BFECFD4DFE79BCADFE69BCCDFECB382
:10256000E973ECBBA8952092000B20920A0B2092F5
:102570000B0BE1E0E093060BE093050BE0E8E09342
:102580006508EAECE0936608C2D5BDD5E3E0F1E06A
:10259000F8943199FECFF093000AE093000BE59A8E
:1025A000E8987894FF2DE1E0E081E7FDE79A08954F
:1025B000CBEFD32DD395DC23C0E080E03CC5E0E039
:1025C000F6E0E0930C0BF0930D0BE1E0E093060BCB
:1025D000E4E3F3E15F01E0E8E0936508309160082F
:1025E0003091600830916008E8E1E093356A222D6F
:1025F000E0E0FD2D31910E2F30FF32C0239AE49A96
:102600003191E081319B26C0319B24C0319B22C097
:10261000319B20C0319B1EC0319B1CC0319B1AC016
:10262000319B18C0319B16C0319B14C0319B12C026
:10263000319B10C0319B0EC0319B0CC0319B0AC036
:10264000319B08C0319B06C0319B04C0319B02C046
:10265000319B00C030936208E0936208F301189543
:10266000E498F30123981895F12FE1E0E081E7FD6C
:10267000E69A229AE0E0F6E0E0930C0BF0930D0B63
:10268000E1E0E093060BEFE8F3E15F01E0E8E093BF
:102690006508309160083091600830916008E1E38E
:1026A000E093356A222DE9E1FD2D31910E2F30FFA7
:1026B00032C0239AE49A3191E081319B26C0319B4C
:1026C00024C0319B22C0319B20C0319B1EC0319B56
:1026D0001CC0319B1AC0319B18C0319B16C0319B66
:1026E00014C0319B12C0319B10C0319B0EC0319B76
:1026F0000CC0319B0AC0319B08C0319B06C0319B86
:1027000004C0319B02C0319B00C030936208E0934B
:102710006208F3011895E498F30123981895E0E016
:10272000F6E0E0930C0BF0930D0BE1E0E093060B69
:10273000E4EEF3E15F01E0E8E093650830916008C2
:102740003091600830916008EAE4E093356A222D08
:10275000E2E3FD2D31910E2F30FF32C0239AE49A2F
:102760003191E081319B26C0319B24C0319B22C036
:10277000319B20C0319B1EC0319B1CC0319B1AC0B5
:10278000319B18C0319B16C0319B14C0319B12C0C5
:10279000319B10C0319B0EC0319B0CC0319B0AC0D5
:1027A000319B08C0319B06C0319B04C0319B02C0E5
:1027B000319B00C030936208E0936208F3011895E2
:1027C000E498F30123981895E0E0F6E0E0930C0B11
:1027D000F0930D0BE1E0E093060BE9E3F4E15F0118
:1027E000E0E8E0936508309160083091600830912E
:1027F0006008E3E6E093356A222DEBE4FD2D31918C
:102800000E2F30FF32C0239AE49A3191E081319B40
:1028100026C0319B24C0319B22C0319B20C0319BFC
:102820001EC0319B1CC0319B1AC0319B18C0319B0C
:1028300016C0319B14C0319B12C0319B10C0319B1C
:102840000EC0319B0CC0319B0AC0319B08C0319B2C
:1028500006C0319B04C0319B02C0319B00C0309345
:102860006208E0936208F3011895E498F301239855
:102870001895E0E0F6E0E0930C0BF0930D0BE1E02F
:10288000E093060BEEE8F4E15F01E0E8E093650811
:10289000309160083091600830916008ECE7E09377
:1028A000356A222DE4E6FD2D31910E2F30FF32C026
:1028B000239AE49A3191E081319B26C0319B24C058
:1028C000319B22C0319B20C0319B1EC0319B1CC05C
:1028D000319B1AC0319B18C0319B16C0319B14C06C
:1028E000319B12C0319B10C0319B0EC0319B0CC07C
:1028F000319B0AC0319B08C0319B06C0319B04C08C
:10290000319B02C0319B00C030936208E0936208A3
:10291000F3011895E498F30123981895E0E6FEE199
:10292000E0930C0BF0930D0BE1E0E093060BE3EE6C
:10293000F4E15F01E0E8E0936508309160083091D0
:10294000600830916008EDEFE093356A222DEDE7E5
:10295000FD2D31910E2F30FF32C0239AE49A319130
:10296000E081319B26C0319B24C0319B22C0319B2A
:1029700020C0319B1EC0319B1CC0319B1AC0319BB3
:1029800018C0319B16C0319B14C0319B12C0319BC3
:1029900010C0319B0EC0319B0CC0319B0AC0319BD3
:1029A00008C0319B06C0319B04C0319B02C0319BE3
:1029B00000C030936208E0936208F3011895E49830
:1029C000F30123981895F091216AE091206AE09331
:1029D0000C0BF0930D0B20926508E1E0E093060BE1
:1029E000E6EFF4E15F01F30123981895E0E0F6E0EB
:1029F000E0930C0BF0930D0BE1E0E093060BE5E4A4
:102A0000F5E15F01E0E8E0936508309160083091FE
:102A1000600830916008E3E6E093356A222DEBE42C
:102A2000FD2D31910E2F239AE49A3191E081319B53
:102A300026C0319B24C0319B22C0319B20C0319BDA
:102A40001EC0319B1CC0319B1AC0319B18C0319BEA
:102A500016C0319B14C0319B12C0319B10C0319BFA
:102A60000EC0319B0CC0319B0AC0319B08C0319B0A
:102A700006C0319B04C0319B02C0319B00C0309323
:102A80006208E0936208F3011895E091226AF091E0
:102A9000236AE0930C0BF0930D0B20926508E1E0A4
:102AA000E093060BE8E5F5E15F012398F301189543
:102AB000E0E0F6E0E0930C0BF0930D0BE1E0E09327
:102AC000060BE5E7F5E15F013091600830916008A1
:102AD00030916008E0E8E0936508E498ECE7E09363
:102AE000356A222D05E6F30118952092650820929B
:102AF00066082092050B2092000B2398E598F301BD
:102B00001895E49801E0E8E0E093356A222DE0E1D1
:102B1000F2E0E0930C0BF0930D0BE1E0E093060B79
:102B2000EFEDF2E15F0108950C9408000C940900A8
:102B30000C940A000C940B000C940C000C940D00E7
:102B40000C940E000C940F000C9410000C941100C7
:102B50000C9412000C9413000C9414000C941500A7
:102B60000C9416000C9417000C9418000C94190087
:102B70000C941A000C941B000C941C000C941D0067
:102B80000C941E000C941F000C9420000C94210047
:102B90000C9422000C9423000C9424000C94250027
:102BA0000C9426000C9427000C9428000C94290007
:102BB0000C942A000C942B000C942C000C942D00E7
:102BC0000C942E000C942F000C9430000C943100C7
:102BD0000C9432000C9433000C9434000C943500A7
:102BE0000C9436000C9437000C9438000C94390087
:102BF0000C943A000C943B000C943C000C943D0067
:102C0000E2E0F2E000C0EF23F0950090346A0F227A
:102C1000E02904C0E0E002C0EFEF00C0E093346AB6
:102C200000C0E091346A0C949E15EF23F09500905B
:102C3000336A0F22E02906C0E0E004C0E5E502C0E7
:102C4000EFEF00C0E093336A00C0E091336A0C9468
:102C50009C150C941B180C9416180C941F18E70163
:102C6000E885E03120F4F0E0EC5EFD4E099459CCAB
:102C70009FD0EFE8FCE687E1EEDF87C099D0EFE870
:102C8000FCE68DE0E8DFECE0F8E683E0E4DF83E0FB
:102C9000E0DF6FC08DD0D32DCEE780E8E0E0F9E62D
:102CA000DADF02C085D000C088D082D0F7018FE083
:102CB000D2DFD32DCEE7AFE7B0E042DFF32DEE2D2C
:102CC0003F96A193B193C193D19353C0E70188E19B
:102CD000C4DF09F4089520CCE701A2E1B0E030DFC1
:102CE000F701739671C0DF2DCEE7AFE7B0E028DFC4
:102CF000F7013F9669C0E091416AE211E150E0932B
:102D0000416AE2110ECCE701E985F0913D6AEF23BB
:102D1000FA95F0933D6AE21104CC86C0E701E9859B
:102D2000F0918C6CF211EF13FCCB08950895E091B3
:102D30008D6CE0FFF6CB0895E0918D6CE0FD04C052
:102D400080913E6A8211EDCB0895EEDEA991B99192
:102D50000D010128AE17BF07021051F4E7DEA9915B
:102D6000B9910D010128AE17BF07021009F40895AB
:102D7000D8CBD32DCE2DA2E1B0E0E2DEF32DEE2DA7
:102D80007396A193B193C193D193D32DCE2D87E1A7
:102D900064DFE9930895DF93CF93C82F0E943E1814
:102DA000EF91FF91A193B193C193D193EF01089556
:102DB000CE2DCA9504C0C4E602C0CDE700C0D32D15
:102DC000888181608993089501900A12A5CB0190B2
:102DD0000B12A2CB01900C129FCB01900D129CCB39
:102DE0000895E3E0E093336AE0E0F4E78F01E0E088
:102DF000F5E77F01F0E7DF2EF2E73F2E20928D6CA2
:102E0000E4E0ECBBE0D01DD00FC0E7990895FF2DA2
:102E1000E2E0808180FD01D00895E091416AE211F5
:102E2000EA95E093416A0895E0914801FFE0F4914A
:102E3000F0933D6A2092416A0895EFE0E093416A81
:102E4000089520923E6A0895F32DE0E02082F32D4C
:102E5000E9E12082E2E32082EBE42082E4E62082C2
:102E6000EDE720820895F0E7DF2EF2E73F2E0ECB4C
:102E7000E4E1F9E62192E033E9F708952092480170
:102E800020924901E1E0E09343010895E0E8F9E68A
:102E9000C1C0E4E8F9E6BEC0E8E8F9E6BBC0E0E995
:102EA000F9E6B8C0ECE8F9E6B5C0E4E9F9E6B2C085
:102EB000E8E9F9E6AFC0E091246A2092246AE211C1
:102EC0002BCB0895E7990895DF2DC5E0E881F091B7
:102ED000256AF395E093256AEF1709F40895E29ABD
:102EE00016CBDF2DC0E0ED85E093336AE79977C01C
:102EF000EB85E77FF9E00C94031602D0E7DEAFCE56
:102F0000CAE1DF2DEC2E80E090E0E0E0F9E60990E8
:102F10001190802901249029E830C9F7803011F000
:102F20009211FFCAE0E009F0E1E0E0938D6C0895B2
:102F300020928C6C2092886CECB3E260ECBB08951C
:102F400001D037C0E0E0F9E60E94A815EF010E9429
:102F50009415E993F9930E949615E993F9930E94C9
:102F60002818E993F9930E942B18E993F9930E948A
:102F70009815E993F9930E949A15E993F99382E0E1
:102F80000ADF81E008DF83E006DF84E004DF87E01A
:102F900002DF85E000DF86E0FEDEE0E1F1E180E1D6
:102FA0005ADEE8E1F0E0E993F993E0910A68E993E9
:102FB000089509D081E08993E8E0F9E68CE04BDEE2
:102FC000299229920895CFE8DCE6E0E0F9E688E06E
:102FD00042CE0C94E91889E6FCDF0C9495128DE240
:102FE000F8DFE8E0F8E00FDE54DF0C949512A4DE81
:102FF000E7012A96AADE70DE20DF82E5EADFDECD79
:10300000ECE32398F894AFE1BAE6ADBFBEBF1ADE99
:10301000A895FECF8081918101968083918328F4C9
:10302000828193810196828393830895019009920E
:103030008A95E1F7089529928A95E9F70895E0E0E5
:10304000FFE80990E025E0818A95D9F7EE230895FD
:10305000E0E0F0E00895E0E0F0E00895E8E6FCE666
:103060000E94CC15C8E4DAE60E94CE15E8E4FCE63E
:103070000E94CC15C8E4DAE60C94CE15E8E6FCE62E
:103080000E94D0150C94C015799FE001689FD00173
:10309000699FB00DC11DD21D789FB00DC11DD21DFD
:1030A000089580E404C080E202C080E100C0C083D3
:1030B000D1838283238224822582BDCF0DD007C095
:1030C0000BD003C009D0AA0FBB1FAA0FBB1FAA0FAA
:1030D000BB1FAA0FBB1F0895B381A081AB0FB181A5
:1030E000B21DDC91CC93A481B581AD1BB209AC0FAC
:1030F000B21DA483B583C281D381D395DC1708F0B8
:10310000DD27D38308952298349BFECF0895349908
:10311000FECF0895B39904C0E5E5B19B0C94CA15A0
:1031200007C0442455240895AA980895AA9A08959A
:10313000E0914408E7FF0895E0914008E0930076AD
:1031400008958F93892F0AD08F9108C08F93892F6C
:1031500005D08F9100C002D08CE23BC001D003C0EB
:103160008F93829501C08F938F70805D8A3308F0B2
:10317000895F2FD08F9108958AE02BD08DE029C0F0
:103180000F01451451F0F0914408F5FF06C0F7E730
:10319000E52DF081F09342085394F0010895451411
:1031A00059F0F0914408F5FFFACFF7E7E52DF081EB
:1031B000F09342085394F3CF0895C42DD7E70190BC
:1031C000002029F00882C395C511F9CFCA954C2E6D
:1031D000D8CF0F01F201FA95EF1719F0F7E78083C6
:1031E0004394CFCF8F938E2FF201FA95EF1719F0FA
:1031F000F7E7808343948F9108958991ACDF9A9586
:10320000E1F708958991821188130895E2DFFACFDA
:10321000C4E2D2EBF7DF80910A68A0DFC4E3D2EB0F
:10322000F1DFBDCF0A0D1B5B34346D2E2E2E5B42B9
:103230004C442D005D1B5B6D0A0D0000C4E4D2EB15
:10324000E1DFADCF0A0D1B5B34336D2E2E2E5B55A7
:1032500050445D1B5B6D0A0D0000CCE6D2EBD2DF63
:10326000C0E0D8E690E1C9DF87DF99CF0A0D1B5B8C
:1032700034326D2E2E2E5B4150505D1B5B6D202D28
:103280002000E091446AF091456AEF2B0895CF93B6
:10329000C091446AC21106C0C091456AC21102C001
:1032A000CF9103C0CF9188940895CF93C2E0C0938B
:1032B0000A06C1E0C0930D06C191C0930006C191FA
:1032C000C0930206C191C0930306C191C093040646
:1032D000C191C0930C06C191C0930806C191C093DF
:1032E0000106C191C093A000C191C093446AC191ED
:1032F000C093456AC191C0930B06C191C0930A0661
:10330000E093466AF093476ACF9108940895E4E108
:10331000F3EBCBCF1106000001050080006D01002A
:1033200001070080046D0001010B0080086D0001A1
:1033300001050080026D010001070080066D00019B
:10334000010B00800A6D0001010B0080426A010040
:10335000010B0080106D000101070080426A01002E
:10336000010700800E6D000101050080426A010026
:10337000010500800C6D000101040080126D010048
:1033800001420081146D010000000080126D0002F6
:1033900052C07BC096C0A9C0B2C0BBC0BCC0BDC03B
:1033A000BEC0BFC0C0C0C1C0C2C0C3C0C4C0C5C011
:1033B000C6C0C7C0C8C0C9C0CAC0E3C0E4C0E9C075
:1033C000EAC0EEC0EFC0F0C0F1C0F2C0F3C0F4C07C
:1033D000F5C0F6C0F7C0F8C0F9C0FAC0FBC0FCC029
:1033E0000AC10BC10CC10FC112C115C118C11BC14B
:1033F0001EC121C124C127C12AC12DC130C133C181
:1034000036C139C151C152C153C17AC18FC1ABC19B
:10341000ADC1BDC1BEC1C1C1C4C1C7C1CAC1CDC199
:10342000D0C1D3C1D6C1D9C1DCC1DFC1E2C1E5C1C0
:10343000E8C1EBC1EEC1E4E0E093A704F12FE5E6BB
:10344000478142954F70ED9943954EBB44814C7F27
:103450004DBB40910D6D440F42E308F04181539BF9
:10346000EE9B40E04B3F08F04BEF4093A3064381B7
:103470004F7040932F6A440F440FF42F440F4F0FA7
:103480004093306A44DF51E0CEC1E4E0E093A7040A
:10349000209205082092060830923C6A44E0E8EB4E
:1034A000F2E0F3D2E091200AE43BE0F32092000A3C
:1034B000E0E4F2E0E093200AF093210AE89A52E077
:1034C000B5C1E4E0E093A704DF93CF93E0E0FFE829
:1034D000D0913C6ACCE44991E427E081C336D9F726
:1034E000E883CF91DF9153E09EC1E4E0E093A7042D
:1034F000F32DECE42192E436E9F754E097C1FF2D77
:10350000ECE6408142954F70F32DEDE5408355E0A8
:103510008AC156E08BC157E086C158E087C159E0A7
:1035200082C15AE083C15BE07EC15CE07FC15DE0A7
:103530007AC15EE07BC15FE076C150E177C151E1C5
:1035400072C152E173C153E16EC154E16FC1F32DF9
:10355000EFE54081EC994064E091316A2092316A54
:10356000E2FD446052994061E3FD48605399406236
:10357000EFE54083E9E0E0935204E093530455E122
:1035800052C156E153C1EEB3EA95EEBB22F057E1CA
:103590004AC156E14BC1FF2DECE6E081EF70EFBB75
:1035A000E0E01CC0E1E01AC0E2E018C0E3E016C0B1
:1035B000E4E014C0E5E012C0E6E010C0E7E00EC0B1
:1035C000E8E00CC0E9E00AC0EAE008C0EBE006C0B1
:1035D000ECE004C0EDE002C0EEE000C04FB34E17D7
:1035E00009F44EC04E2FFF2DE359F081E35500C082
:1035F000E0932B6AFEBB59E210C1539511C153955C
:10360000F79B0BC110C15395F79B0AC10FC153958E
:10361000F69B03C108C15395F69B02C107C15395A0
:10362000F59BFBC000C15395F59BFAC0FFC05395B5
:10363000F49BF3C0F8C05395F49BF2C0F7C05395C8
:10364000F39BEBC0F0C05395F39BEAC0EFC05395DA
:10365000F29BE3C0E8C05395F29BE2C0E7C05395EC
:10366000F19BDBC0E0C05395F19BDAC0DFC05395FE
:10367000F09BD3C0D8C050912B6AF09BD1C0D6C06C
:10368000F32DECE440910D6D44874091016D42872C
:103690004091036D438740910F6D45874091116DB7
:1036A00046874091136D47875BE3BDC05395BEC00D
:1036B000EB993DC0ED9901C0BECE5DE3FF2DEBE679
:1036C0004081F32DECE54083407E4695E42F4695FE
:1036D0004E0FE0E7F2E0E40FF21DE0932D6AF09365
:1036E0002E6AE8E0F7E040912D6AE41B40912E6AD3
:1036F000F40B40E0C3D1E0912D6AF0912E6AB3C083
:103700005395FF2DEBE64081440F440F440FE0E951
:10371000FAE2E40FF21DE40FF21DE40FF21D4091F6
:103720002D6AE41B40912E6AF40BC9C084CEEA993D
:1037300004C040E4ECE5F1E003C040E8ECE5F1E072
:1037400040932A6AE093266AF093276AF695E795F4
:10375000E093286AF093296AEEE7E0932C6A40E44C
:1037600040932B6A14C0E0912A6AE770E0912A6ABC
:10377000E15050F0E0932A6AE0912C6AFF2D4191CC
:103780004EBBE0932C6A08C0E0E0E0932B6A52E461
:1037900044C050912B6A44C053E45395F09B49C0F8
:1037A00052C05395F09B4AC053C05395F19B41C002
:1037B0004AC05395F19B42C04BC05395F29B39C010
:1037C00042C05395F29B3AC043C05395F39B31C01E
:1037D0003AC05395F39B32C03BC05395F49B29C02C
:1037E00032C05395F49B2AC033C05395F59B21C03A
:1037F0002AC05395F59B22C02BC05395F69B19C048
:1038000022C05395F69B1AC023C05395F79B11C055
:103810001AC05FE3F79B12C01BC0E0EEFAE023C0C2
:10382000E0EEFAE036C0E0E7F5E01DC0E0E7F5E0E5
:1038300030C0E091266AF091276A15C0E091266AAF
:10384000F091276A26C0E091286AF091296A0BC09E
:10385000E091286AF091296A1CC0E0EEFAE042C0CB
:10386000E0E7F5E03FC0EC9916C0EF9B3BC0E0936A
:10387000360AF093370A4FEF40933B0A40933D0AD4
:103880004091306A40933A0A20923B0AF401CFBE3D
:103890000895EC99EACFEF9B25C0E093360AF093A8
:1038A000370A4FEF40933B0A40933D0A4091306AFC
:1038B00040933C0A20923D0AF401CFBE0895EF9B4D
:1038C00011C0E093360AF093370A20923A0A209208
:1038D0003B0A4091306A40933C0A20923D0AF40131
:1038E000CFBE0895E093360AF093370A4FEF409326
:1038F0003A0A40933B0A40933C0A40933D0AF40144
:10390000CFBE08951EC04CC079C091C0B2C0B1C036
:10391000B0C0AFC0AEC0ADC0ACC0ABC0AAC0A9C043
:10392000A8C0A7C0A6C0A5C0A4C0A3C0A2C0A1C073
:10393000A0C09FC09EC09DC09CC09CC0F401CFBED3
:103940000895ECE4E0933B6AE0E8E0930608E0E8E1
:10395000E0930508E8E0F7E040912D6AE41B409110
:103960002E6AF40BE093386AF093396AE093366A72
:10397000F093376AE1E0E093160BE093150BE998BA
:10398000EBE0E0933504E0E0FFE040912D6AE41BBA
:1039900040912E6AF40BE093280AF093290ACECFC7
:1039A0004091366AF091376AE091386A4E1BE09197
:1039B000396AFE0BF6954795F6954795F695479526
:1039C000E4E5F32D4083F32DEFE54081E999416073
:1039D0004083E0EAF1E140912D6AE41B40912E6AB8
:1039E000F40BE093386AF093396AE093366AF09307
:1039F000376AE093280AF093290AA0CFE998EBE010
:103A0000E0933504E1E0E093160BE093150BE0E75B
:103A1000F7E140912D6AE41B40912E6AF40BE0938C
:103A2000280AF093290AEEE4E0933B6A87CF40919D
:103A3000366AF091376AE091386A4E1BE091396A34
:103A4000FE0BF6954795F6954795F695479511F433
:103A500020920608E5E5F32D4083F32DEFE5408144
:103A6000E999426040832092150BFFEFF093390AE9
:103A700065CF64CFFFEFF093390A60CF40933A6A85
:103A8000E093380AF093390A089540933A6AE09334
:103A9000280AF093290A0895FF0F4795FF0F4795CD
:103AA000FF0F4795FF0F4795FF0F4795FF0F47956E
:103AB000FF0F4795FF0F47950895FFFFFFFFFFFF9B
:00000001FF
