@ba12 ; Affinity 
@bb01 ; MemBank 
@bc03 ; Command 
:020000020A00F2
:1000000088C0FFCF81E084C082E082C083E080C0EE
:1000100084E07EC085E07CC086E07AC087E078C05E
:1000200088E076C089E074C08AE072C08BE070C05E
:100030008CE06EC08DE06CC08EE06AC08FE068C05E
:1000400080E166C081E164C082E162C083E160C09A
:1000500084E15EC085E15CC086E15AC087E158C09A
:1000600088E156C089E154C08AE152C08BE150C09A
:100070008CE14EC08DE14CC08EE14AC08FE148C09A
:1000800080E246C081E244C082E242C083E240C0D6
:1000900084E23EC085E23CC086E23AC087E238C0D6
:1000A00088E236C089E234C08AE232C08BE230C0D6
:1000B0008CE22EC08DE22CC08EE22AC08FE228C0D6
:1000C00080E326C081E324C082E322C083E320C012
:1000D00084E31EC085E31CC086E31AC087E318C012
:1000E00088E316C089E314C08AE312C08BE310C012
:1000F0008CE30EC08DE30CC08EE30AC08FE308C012
:1001000001002FC1030000004444444450B6FD6C7C
:10011000FFCFA895F8942224EFE1F9E6EDBFFEBFEA
:100120008F98879ADAD0A895E8EDE4BFE7E0E093EE
:100130000001F7D0F9D086D077D1ABD02ED0A0E097
:10014000B0E1C0E0D0EBE0E0F0E9099011900114DB
:1001500019F41197D1F71AC036D0E2E2FBE6C2E0FB
:10016000C2D1DBD1F9F744D0E2E4FBE6C1E0BBD178
:10017000C0E0D0EB98D1E2E2FBE6C2E0B4D1A0E06F
:10018000B0E1C2E4DBE6E2E2FBE6B3D148D0E2E470
:10019000FBE6C1E0A8D18FEFB0C1C2EAD1EA28D115
:1001A000F4C01B5B33336D2E2E2E636F6D70617246
:1001B000696E67204E455720776974682043555211
:1001C0001B5B6D0A0D00CEECD1EA12D1DEC01B5BC9
:1001D00033336D2E2E2E636865636B696E67204224
:1001E0004C44206261636B75701B5B6D0A0D0000EF
:1001F000C8EFD1EAFDD0C9C01B5B33336D2E2E2E64
:10020000696E7374616C6C696E67206E65772042ED
:100210004C4420636F64651B5B6D0A0D0000C6E2F1
:10022000D2EAE6D0B2C01B5B39326D2E2E2E636C43
:1002300065616E75701B5B6D0A0D000029928A95D1
:10024000E9F70895E2E4FBE60E946F12C2E2D9E604
:100250000E947112E2E2FBE60E946F12C2E2D9E64E
:100260000C947112E2E4FBE60E9473120C94631288
:100270002298349BFECF08953499FECF0895C0E0B4
:10028000D8E6A4E0B0E00EC0C0E0D8E6A8E0B0E058
:1002900014C0C0E0D8E680E0D1DF00C0EFEFE0930B
:1002A00009680895F0D0F001A095B095C095D0955B
:1002B000A083B183C283D3830895E5D0F001808306
:1002C0000895E2E0F2E000C0EF23F095009020698D
:1002D0000F22E02904C0E0E002C0EFEF00C0E0938D
:1002E000206900C0E09120690C944112EF23F09541
:1002F000009021690F22E02906C0E0E004C0E5E596
:1003000002C0EFEF00C0E093216900C0E0912169D5
:100310000C943F12B39904C0E5E5B19B0C946D12A7
:1003200007C0442455240895AA980895AA9A0895C8
:10033000E0914408E7FF0895E0914008E093006CE5
:10034000089502D08CE23BC001D003C08F93829508
:1003500001C08F938F70805D8A3308F0895F2FD042
:100360008F9108958AE02BD08DE029C00F014514AC
:1003700051F0F0914408F5FF06C0FDE6E52DF0814F
:10038000F09342085394F0010895451459F0F09108
:100390004408F5FFFACFFDE6E52DF081F093420821
:1003A0005394F3CF0895C42DDDE60190002029F089
:1003B0000882C395C511F9CFCA954C2ED8CF0F012D
:1003C000F201FA95EF1719F0FDE680834394CFCF41
:1003D0008F938E2FF201FA95EF1719F0FDE68083C7
:1003E00043948F9108958991ACDF9A95E1F7089530
:1003F0008991821188130895E2DFFACFC0E1D4EA2F
:10040000F7DF80910A68A0DFC0E2D4EAF1DFBDCF58
:100410000A0D1B5B34346D2E2E2E5B424C442D0096
:100420005D1B5B6D0A0D0000C0E3D4EAE1DFADCFD8
:100430000A0D1B5B34336D2E2E2E5B5550445D1B15
:100440005B6D0A0D0000C8E5D4EAD2DFC0E0D8E653
:1004500090E1C9DF87DF99CF0A0D1B5B34326D2E27
:100460002E2E5B4150505D1B5B6D202D20000C94A7
:1004700008000C9409000C940A000C940B000C94D6
:100480000C000C940D000C940E000C940F000C94B6
:1004900010000C9411000C9412000C9413000C9496
:1004A00014000C9415000C9416000C9417000C9476
:1004B00018000C9419000C941A000C941B000C9456
:1004C0001C000C941D000C941E000C941F000C9436
:1004D00020000C9421000C9422000C9423000C9416
:1004E00024000C9425000C9426000C9427000C94F6
:1004F00028000C9429000C942A000C942B000C94D6
:100500002C000C942D000C942E000C942F000C94B5
:1005100030000C9431000C9432000C9433000C9495
:1005200034000C9435000C9436000C9437000C9475
:1005300038000C9439000C943A000C943B000C9455
:100540003C000C943D00FFFFFFFFFFFFFFFFFFFF9C
:1010000081C0FFCFFFC7FFCFFFC7FFCFFFC7FFCF15
:10101000FFC7FFCFFFC7FFCFFFC7FFCFFFC7FFCF80
:10102000FFC7FFCFFFC7FFCFFFC7FFCFFFC7FFCF70
:10103000FFC7FFCFFFC7FFCFFFC7FFCFFFC7FFCF60
:10104000FFC7FFCFFFC7FFCFFFC7FFCFFFC7FFCF50
:10105000FFC7FFCFFFC7FFCFFFC7FFCFFFC7FFCF40
:10106000FFC7FFCFFFC7FFCFFFC7FFCFFFC7FFCF30
:10107000FFC7FFCFFFC7FFCFFFC7FFCFFFC7FFCF20
:10108000FFC7FFCFFFC7FFCFFFC7FFCFFFC7FFCF10
:10109000FFC7FFCFFFC7FFCFFFC7FFCFFFC7FFCF00
:1010A000FFC7FFCFFFC7FFCFFFC7FFCFFFC7FFCFF0
:1010B000FFC7FFCFFFC7FFCFFFC7FFCFFFC7FFCFE0
:1010C000FFC7FFCFFFC7FFCFFFC7FFCFFFC7FFCFD0
:1010D000FFC7FFCFFFC7FFCFFFC7FFCFFFC7FFCFC0
:1010E000FFC7FFCFFFC7FFCFFFC7FFCFFFC7FFCFB0
:1010F000FFC7FFCFFFC7FFCFFFC7FFCFFFC7FFCFA0
:1011000051295C1FA895F8942224EFB3E0930A6854
:10111000EFE1FAE6EDBFFEBFECE010D4E8EDF3E05E
:10112000E4BFF093600000C000C0E0916300E1FD07
:10113000FCCFE8EDF1E0E4BFF0936200F9D3E0E02A
:10114000FAE6C0E0DEE021922197E9F705D4E8E075
:10115000E0933304E0933204E0933404E0933104E9
:10116000E0933004E0E6F8E02682A0E6B0E0A08755
:10117000B187A0E0A583A3E0A783AAE4A683239870
:1011800022982498219820982B982A98E0E0FBE058
:101190002082218224862586AFEFA683DDD36DD3FE
:1011A000B5D3E8EDE4BFE5E0E0930001A8954BD4AA
:1011B000AA98A29AB1C0BEC460C5B5C469C57CC4B2
:1011C000BDC4D6C4DFC4F2C41FC541C5BDC0BCC0C8
:1011D000BBC0BAC0B9C00C9408000C9409000C94B0
:1011E0000A000C940B000C940C000C940D000C9451
:1011F0000E000C940F000C9410000C9411000C9431
:1012000012000C9413000C9414000C9415000C9410
:1012100016000C9417000C9418000C9419000C94F0
:101220001A000C941B000C941C000C941D000C94D0
:101230001E000C941F000C9420000C9421000C94B0
:1012400022000C9423000C9424000C9425000C9490
:1012500026000C9427000C9428000C9429000C9470
:101260002A000C942B000C942C000C942D000C9450
:101270002E000C942F000C9430000C9431000C9430
:1012800032000C9433000C9434000C9435000C9410
:1012900036000C9437000C9438000C9439000C94F0
:1012A0003A000C943B000C943C000C943D002092BE
:1012B0000070209219702092327020924B70209210
:1012C000647020927D70209200712092197120929A
:1012D000327120924B712092647120927D71209224
:1012E0000072209219722092327220924B722092D8
:1012F000647220927D722092007320921973209262
:10130000327320924B732092647320927D73089500
:10131000EBEF33943E22089594D116C0E29AC2D1E5
:10132000EFD185E671D310C0E29ABCD1ECD18EE743
:101330006BD30AC0E29AB6D1E9D183E265D304C087
:10134000B1D1D8D18EE200C0239820926608FDD298
:1013500041D3EFE1FAE6EDBFFEBFF3D207D0C4D12F
:10136000D8D1DED1ECD19ED17ED1F5C1E1999FDFFC
:10137000E79BCEDFE299A5D1ECB3E973ECBB00C0EB
:1013800096D291D22DD0CC24E601D50187E165D04B
:10139000F0936E6C87E161D0F0936E6C87E15DD065
:1013A000F0936E6C87E159D0F0936E6C87E155D065
:1013B000F0936E6C8FE751D0FD2DE1E0E081E7FD09
:1013C00006D0E69B07D0E4E0E093A7040895E69AF0
:1013D000E79A0895E1E0DE26EBEFB394BE2237C032
:1013E000A895209266082092000BE0E0F0E0E093E0
:1013F0000A0BF0930B0B20920C0B20920D0BEFEFCE
:10140000E093060BEAECE093660887E0CFE6DCE6C3
:101410003199FECFE3E0E093000B229AE4E0E09301
:10142000A704E0E0FFE80090640807FEFCCF00900E
:1014300061081090600802FC71CF1992E125E081EB
:101440008A958AF7E0936E6C209266080895EFE61D
:10145000FCE6CCE0D8E687E0F8C1EAECE093660869
:101460009D91E6999E7F219690FD239AE0E0FFE80A
:101470000D903199FECF90FD009262080D9090FD85
:10148000009262080090640807FEFCCF009061089B
:101490001090600802FC42CF1992E125E0818A9504
:1014A00089F362F7F0916E6CFE2B23982092660808
:1014B00008950C942A0C0C94250C0C942E0CE60127
:1014C000E885E03120F4F0E0E552F74F099438CF99
:1014D0009FD0E7E7FCE687E1EEDF87C099D0E7E73A
:1014E000FCE68DE0E8DFECE0F8E683E0E4DF83E0B3
:1014F000E0DF6FC08DD0D32DCEE780E8E0E0F9E6E5
:10150000DADF02C085D000C088D082D0F6018FE03B
:10151000D2DFD32DCEE7AFE7B0E069DEF32DEC2DBF
:101520003F96A193B193C193D19353C0E60188E153
:10153000C4DF09F40895F8CEE601A2E1B0E057DE79
:10154000F601739671C0DD2DCEE7AFE7B0E04FDE58
:10155000F6013F9669C0E091266AE211E150E093FE
:10156000266AE211EDCEE601E985F091226AEF23C9
:10157000FA95F093226AE211E3CE84C0E601E98590
:10158000F0916B6CF211EF13DBCE08950895E091AA
:101590006C6CE0FFD5CE0895E0916C6CE0FD04C06A
:1015A0008091236A8211CCCE089515DEA991B9915C
:1015B0000D010128AE17BF07021051F40EDEA991EC
:1015C000B9910D010128AE17BF07021009F4089563
:1015D000B7CED32DCC2DA2E1B0E009DEF32DEC2D5A
:1015E0007396A193B193C193D193D32DCC2D87E161
:1015F00064DFE9930895DF93CF93C82F0E944D0CC9
:10160000EF91FF91A193B193C193D193EF0108950D
:10161000CC2DCA9504C0C4E602C0CDE700C0D32DCE
:10162000888181608993089501900A127DCE01908E
:101630000B127ACE01900C1277CE01900D1274CE5F
:101640000895E3E0E093216AE0E0F4E76F01E0E071
:10165000F0E75F01F2E73F2E20926C6CE4E0ECBB18
:101660009DD01DD00FC0E7990895FD2DE2E0808147
:1016700080FD01D00895E091266AE211EA95E09399
:10168000266A0895E0914801FFE0F491F093226A00
:101690002092266A0895EFE0E093266A089520924A
:1016A000236A0895F32DE0E02082F32DE9E1208202
:1016B000E2E32082EBE42082E4E62082EDE7208270
:1016C0000895F0E7BF2EF2E73F2EF1CDE4E1F9E611
:1016D0002192E033E9F708952092480120924901D0
:1016E000E1E0E09343010895E0E8F9E6A2C0E4E810
:1016F000F9E69FC0E8E8F9E69CC0E0E9F9E699C0A0
:10170000ECE8F9E696C0E4E9F9E693C0E8E9F9E621
:1017100090C0E0916E6C20926E6CE21105CE08953F
:10172000E7990895DD2DC5E0E881F0916D6CF395A2
:10173000E0936D6CEF1709F40895E29AFBCDDD2D6F
:10174000C0E0EC85E093216AE7998FC2EB85E77FE3
:10175000FBE00C947F0C02D0E9DEB1CECAE1DD2DB6
:10176000CC2E80E090E0E0E0F9E60990119080292D
:1017700001249029E830C9F7803011F09211E0CDB2
:10178000E0E009F0E1E0E0936C6C089520926B6C6E
:101790002092676CECB3E260ECBB089501D037C0D7
:1017A000E0E0F9E60E94FF08EF010E94EB08E993F0
:1017B000F9930E94ED08E993F9930E94370CE9939D
:1017C000F9930E943A0CE993F9930E94EF08E99388
:1017D000F9930E94F108E993F99382E00CDF81E02C
:1017E0000ADF83E008DF84E006DF87E004DF85E0CE
:1017F00002DF86E000DFE0E1F1E180E15CDEE8E1CC
:10180000F0E0E993F993E0910A68E993089509D02B
:1018100081E08993E8E0F9E68CE04DDE2992299297
:101820000895C7E7DCE6E0E0F9E688E044CE0C94F2
:10183000040D8081918101968083918328F48281B7
:1018400093810196828393830895019009928A95EA
:10185000E1F7089529928A95E9F70895E0E0FFE815
:101860000990E025E0818A95D9F7EE230895E0E01C
:10187000F0E00895E0E0F0E00895E7E4FCE60E947F
:101880002309C7E2DAE60E942509E7E2FCE60E94A6
:101890002309C7E2DAE60C942509E7E4FCE60E9496
:1018A00027090C9417092298349BFECF0895349988
:1018B000FECF0895C0E0D8E6A4E0B0E00EC0C0E0DE
:1018C000D8E6A8E0B0E014C0C0E0D8E680E0C2DF0F
:1018D00000C0EFEFE0930968089589DCF001A0955E
:1018E000B095C095D095A083B183C283D38308956A
:1018F0007EDCF00180830895E2E0F2E000C0EF2397
:10190000F0950090206A0F22E02904C0E0E002C0B8
:10191000EFEF00C0E093206A00C0E091206A0C94D1
:10192000F508EF23F0950090216A0F22E02906C008
:10193000E0E004C0E5E502C0EFEF00C0E093216AFB
:1019400000C0E091216A0C94F308B39904C0E5E566
:10195000B19B0C94210907C0442455240895AA98EA
:101960000895AA9A0895E0914408E7FF0895E09148
:101970004008E093007608958F93892F0AD08F91C5
:1019800008C08F93892F05D08F9100C002D08CE2C0
:101990003BC001D003C08F93829501C08F938F709D
:1019A000805D8A3308F0895F2FD08F9108958AE097
:1019B0002BD08DE029C00F01451451F0F09144085F
:1019C000F5FF06C0F7E7E52DF081F0934208539448
:1019D000F0010895451459F0F0914408F5FFFACF4D
:1019E000F7E7E52DF081F09342085394F3CF089583
:1019F000C42DD7E70190002029F00882C395C511B6
:101A0000F9CFCA954C2ED8CF0F01F201FA95EF17F6
:101A100019F0F7E780834394CFCF8F938E2FF20195
:101A2000FA95EF1719F0F7E7808343948F910895A3
:101A30008991ACDF9A95E1F7089589918211881315
:101A40000895E2DFFACFCAE5DAE9F7DF80910A68A4
:101A5000A0DFCAE6DAE9F1DFBDCF0A0D1B5B343443
:101A60006D2E2E2E5B424C442D005D1B5B6D0A0DCE
:101A70000000CAE7DAE9E1DFADCF0A0D1B5B3433C2
:101A80006D2E2E2E5B5550445D1B5B6D0A0D0000C4
:101A9000C2EADAE9D2DFC0E0D8E690E1C9DF87DF49
:101AA00099CF0A0D1B5B34326D2E2E2E5B415050A8
:101AB0005D1B5B6D202D20006ADD3EDDECDD82E6E6
:101AC000B6DEC0911A69D0911B69CF3241F5D13C85
:101AD00031F522982398209266082E982BDF7ADF22
:101AE000E6018985809302688889998980930368D3
:101AF000909304688E859F85809300689093016819
:101B00000E945A0CE6018A8980FF0C940010E8EDCF
:101B1000E0933400E5E8E09301100C940010ECB37E
:101B2000E260ECBB0DCC33DD07DDB5DD81E77FDEA8
:101B3000E1DC0ACC89E67BDE0C94A4092DDDE6010C
:101B40002A9633DDF9DCA7DD83E771DEE601EE8559
:101B5000E093676CE985E0936B6CBEDDC7E0E7E47A
:101B6000FCE675DBC091676CE7E2FCE670DBECCB72
:101B700013DDE6012A9619DDDFDC8DDD85E757DE12
:101B800005DEE2CB04DDD8DC86DD82E750DEF6013F
:101B9000A285B385D32DCEE78585813808F0D0CBDB
:101BA0000D9009928A95E1F7ADDCCECBE7DCF4DC51
:101BB000C3DCC9DC70DD90DD87E739DEF6018285A4
:101BC0009385DFDEF6018585E1DE22982398209259
:101BD00066082E987BDDA0E8B0E0DD2DCEE7E7E4D7
:101BE000FCE637DBF601C285D385E7E2FCE60FDBD6
:101BF000E601AD85B0E0C7E4DCE6E7E2FCE62DDB1C
:101C0000ECB3E260ECBBA0CBB9DCC6DC95DC43DD19
:101C100086E60DDEF60182859385B3DEB7DD56DDFF
:101C200022982398209266082E98E7E2FCE61BDBB8
:101C3000F601C285D385E7E2FCE6E9DAE6018D85A7
:101C40000EDB11DBADDDECB3E260ECBB7DCB9EDCEB
:101C5000E6012A96AADC70DC1EDD8DE6E8DDF601E1
:101C600081858093236A0C94A4098DE2E0DDE8E08D
:101C7000F8E045DE3CDD0C94A4098EDCE6012A96F2
:101C800094DC5ADC68DC80E7D2DDC1DD27DC5CCB8C
:101C900083DCE6012A9689DC4FDCFDDC82E5C7DDCA
:101CA000E4CAFFFFFFFFFFFFFFFFFFFFFFFFFFFF94
:00000001FF
; 
; *** EOF 
